S02200004D79466972737450726F6A6563745F4D53535F434D335F6170702E7372656349
S113000000000120910100007F0300008103000033
S11300108303000085030000870300000000000044
S11300200000000000000000000000008903000040
S11300308B030000000000008D0300008F0300000C
S11300409103000093030000950300009703000050
S1130050990300009B0300009D0300009F03000020
S1130060A1030000A3030000AD0800008D080000F8
S1130070A9030000AB030000AD030000AF030000C0
S1130080B1030000B3030000B5030000B703000090
S1130090B9030000BB030000BD030000BF03000060
S11300A0C1030000C3030000C5030000C703000030
S11300B0C9030000CB030000CD030000CF03000000
S11300C0D1030000D3030000D5030000D7030000D0
S11300D0D9030000DB030000DD030000DF030000A0
S11300E0E1030000E3030000E5030000E703000070
S11300F0E9030000EB030000ED030000EF03000040
S1130100F1030000F3030000F5030000F70300000F
S1130110F9030000FB030000FD030000FF030000DF
S113012001040000030400000504000007040000AB
S1130130090400000B0400000D0400000F0400007B
S1130140110400001304000015040000170400004B
S1130150190400001B0400001D0400001F0400001B
S113016021040000230400002504000027040000EB
S1130170290400002B0400002D0400002F040000BB
S113018031040000330400000000000000000000FF
S11301904FF0000BDFF8BE020068DFF8B612096802
S11301A001F0030100F01C00142801D14BF0020BF4
S11301B0002901D04BF0010BBBF1000F05D0A7487B
S11301C0A749DFF8722200F09FF8A64880470BF099
S11301D0020ABAF1000F0CD0DFF86E02DFF86E12DB
S11301E002680B680FB44FF000024FF0FF03026087
S11301F00B609D489D4A9E4B022808D1DFF83E12B1
S11302000A60DFF842120A60DFF836120B60012838
S113021008D1DFF82E120A60DFF82A120A60DFF82C
S11302201E120B609348002809D193489349944ABD
S113023000F032F893489449944A00F02DF8944819
S11302409449954A00F028F894489549DFF8E62146
S113025000F05AF8BBF1000F12D092489249DFF82F
S1130260DA2100F051F80BF0020ABAF1000F07D0BE
S11302700FBC02600B6000BFAFF30080AFF30080DF
S1130280DFF828020FF2030E00474FF000004FF092
S11302900001DFF81CF2FEE72DE9F841884225D081
S11302A0B2EB010200D5FEE740EA010313F00303B9
S11302B002D000F01DF819E04FF00003904612112F
S11302C0F7D09A421CBFF0C8F0C103F10103F8D182
S11302D008F00F08B8F1000F08D004780C7000F192
S11302E0010001F10101B8F10108F6D1BDE8F8817E
S11302F008B54FF0000303780B7000F1010001F121
S11303000101013AF7D108BD884237D000F0030655
S1130310002E14D04FF00405A5EB06044FF0080797
S113032007FB06F8914669FA08F9002C07D080F813
S1130330009069FA07F900F10100013CF5E74FF07C
S113034000060F46091A88460911914614461546B7
S1130350B14206D018BFA0E8340206F10106B1424A
S1130360F8D108F00F08B8F1000F07D002704FEA77
S1130370322200F10100B8F10108F4E77047FEE70A
S1130380FEE7FEE7FEE7FEE7FEE7FEE7FEE7FEE741
S1130390FEE7FEE7FEE7FEE7FEE7FEE7FEE7FEE731
S11303A0FEE7FEE7FEE7FEE7FEE7FEE7FEE7FEE721
S11303B0FEE7FEE7FEE7FEE7FEE7FEE7FEE7FEE711
S11303C0FEE7FEE7FEE7FEE7FEE7FEE7FEE7FEE701
S11303D0FEE7FEE7FEE7FEE7FEE7FEE7FEE7FEE7F1
S11303E0FEE7FEE7FEE7FEE7FEE7FEE7FEE7FEE7E1
S11303F0FEE7FEE7FEE7FEE7FEE7FEE7FEE7FEE7D1
S1130400FEE7FEE7FEE7FEE7FEE7FEE7FEE7FEE7C0
S1130410FEE7FEE7FEE7FEE7FEE7FEE7FEE7FEE7B0
S1130420FEE7FEE7FEE7FEE7FEE7FEE7FEE7FEE7A0
S1130430FEE7FEE7704700000000A2A2A2A200802F
S11304400340088003401080034030800340348020
S113045003403880034018080240000000F00020E8
S113046000000120110F0000000000000000000047
S11304700100000000000000000000000000000077
S113048090010000C0040000C0040000201100001E
S11304902011000000000020200000202000002087
S11304A0B0000020B000002000F00020510F000038
S11304B0F1040000AFF30080AFF30080AFF30080DD
S11304C040F22003C2F200031A780AB9012018701E
S11304D0704700BF40F20000C2F2000008B5036894
S11304E02BB140F20003C0F2000303B1984708BDEA
S11304F070B582B000F0F8FB0020052100F040FC4C
S113050040F264000322C2F200004FF4E13100F033
S1130510BBFB40F2640040F6A071C2F20000C0F2DE
S1130520000100F08DF840F2640041F23401C2F29F
S11305300000C0F2000100F083F840F21C0643F210
S11305400004C2F20006C4F2010401AD3168C80916
S11305500090009B2BB10098431E0093009A002A40
S1130560F9D1D4F8882040F26400D143C4F888104B
S1130570C2F200002946012200F0A0F80028E5D0CC
S113058040F26400C2F200002946012200F002F8A1
S1130590DCE700BF40F26403C2F2000398422DE995
S11305A0F00508D040F2240CC2F2000C604502D0E1
S11305B0BDE8F00570470B1E18BF0123002A0CBFCD
S11305C0002303F00103002BF2D090F80D80D0F843
S11305D000A000259AF814C048EA0C081CF0200F6B
S11305E080F80D8023D00F2A24D910274E5D04688B
S11305F0012307F1FF3C26700CEA030605EB030C0C
S11306004D19BB4211D236B1EE5C0223BB422670B7
S11306100CF1010C09D2EE5C01332670EE5C01335F
S1130620BB4226700CF1020CF5D36546D21A002A9F
S1130630D0D1BDE70AB11746D8E71346D21AF6E778
S113064040F26403C2F2000398422DE9F00508D099
S113065040F22402C2F20002904202D0BDE8F0054A
S113066070470029FAD00D78002DF7D0427B04683A
S11306704FF0000C237D1A4313F0200FFAD042737D
S113068025B96346002DE9D09C46F3E7D0F800A0D5
S1130690002601EB0C0801368AF8005018F80650C1
S11306A006EB0C032F1E18BF01270F2E8CBF00274B
S11306B007F00107002FE5D0EDE700BF40F2640327
S11306C0C2F20003984270B409D040F2240CC2F282
S11306D0000C604503D00023184670BC70470B1E05
S11306E018BF0123002A0CBF002303F00103002BD1
S11306F0F1D0046890F80DC0237D43EA0C0C13F08C
S1130700010F80F80DC0E6D000232578CD5404688D
S1130710467B94F814C001334CEA06069A4294BF0F
S113072000250CF001054673002DEED1D4E700BF7F
S113073040F26403C2F20003984210B5044606D0A6
S113074040F22400C2F20000844200D010BD2268AE
S1130750117A01F00F0CBCF10C0FF7D801A151F87C
S11307602CF000BFB50700004D070000AD070000E6
S1130770BD070000A50700004D0700009907000011
S11307804D0700004D0700004D0700004D07000015
S11307904D070000A5070000E369002BD6D02046D2
S11307A0984710BD236A002BF9D1CFE7636A002B69
S11307B0F5D1CBE7A36A002BF1D1C7E7283222F0A9
S11307C07F4020F4700302F07041580101F1007C75
S11307D05CF8003013F0FF0F05D0E36A1BB120462C
S11307E098472268283202F0704022F07F4C00F1D2
S11307F000732CF47001181D4901435813F0FF0FC6
S113080005D0236B1BB1204698472268283202F09A
S1130810704322F07F4C03F100702CF47001083017
S11308204901435813F0FF0F05D0636B1BB12046F9
S113083098472268283202F0704322F07F4C2CF44F
S1130840700003F100730C334101585810F0FF0F8E
S113085005D0A36B1BB1204698472268283222F0AA
S11308607F4C02F0704101F100722CF470031032DD
S11308705801115811F0FF0F3FF468AFE36B002BE0
S11308803FF464AF2046984760E700BF684620F015
S113089007018D4601B540F22400C2F20000FFF7C3
S11308A047FFBDE801408546704700BF684620F019
S11308B007018D4601B540F26400C2F20000FFF763
S11308C037FFBDE801408546704700BF40F264032E
S11308D0C2F20003984270B407D040F22401C2F27D
S11308E00001884201D070BC70470469002CFAD022
S11308F04369002BF7D0016890F80DC00A7D42EAE5
S11309000C0C12F0200F80F80DC0826929D09D1ABA
S11309100F2D38D91025A41826786B1E0E7003F0FD
S11309200106012301329D42826119D946B194F82E
S113093001C0022301329D4281F800C082610FD9B7
S113094014F803C0013281F800C00133826114F845
S113095003C0013301329D4281F800C08261EFD8A7
S113096043699A42BFD102680021131D23F07F4CD2
S113097003F0704202F100732CF47002043352014C
S113098099504161AFE7002DC5D1EAE72DE9F04F59
S113099040F264038FB0C2F200030B9248F20002EB
S11309A09842C4F2030204460D91906C4EF2001179
S11309B000F0298140F48077CEF200014FF4006604
S11309C09764C1F88061956C40F2000125F4807051
S11309D0C4F2010190640B222271216000220D46B1
S11309E00A7101F1100605F8082F01F1380A2AF0FE
S11309F07F4B01F1340925F07F4726F07F4805F04D
S1130A00704506F070460AF0704ACDF810A00695BD
S1130A1029F07F4006F100750390019509F07049B3
S1130A20049DCDF81C90DDF80C9005F1007529F4B7
S1130A30700A0A952BF47009079DDDF818B0CDF8FB
S1130A4014900BF1007905F1007B049D01F1300C49
S1130A502CF07F4005F100750CF0704CCDF80CA023
S1130A6004950CF100750CF1007AAC46039DCDF8A9
S1130A7024A06D010395059D28F470086D0105956A
S1130A80069DCA4605F100750695019D4FEA481872
S1130A9014350195079D27F4700705F10075079536
S1130AA0049D7F0104350495654614350895099D18
S1130AB0CDF830801C3509950A9D4FF001080C359E
S1130AC00AF1080A09F104090A9506F1007649F8C1
S1130AD007800C9D4AF80780DDF818A010364AF804
S1130AE007807251DDF80CA0019E0BF1040B7251CA
S1130AF04BF80A20DDF81CB0059D4BF80A20049E33
S1130B00DDF820A020F4700040010CF1180C7251A3
S1130B10DDF824B04AF800204CF80020DDF828C0A5
S1130B209C424BF800204CF8052081F8442081F8C1
S1130B30482081F84C2079D040F22403C2F200030B
S1130B409C4215D00B9D00200D7360730D9E606157
S1130B50A66025732061A06120626062E061A062EA
S1130B60E06220636063A063E0630FB0BDE8F08FD0
S1130B700D9FA76000F00EF940F21801C2F20001C7
S1130B800A680D9ED700B7FBF6F2D3095708B3F5F0
S1130B90803F28BF2168D5D2012B216850D901F1AB
S1130BA00C0020F07F4C00F0704606F100702CF42D
S1130BB0700A4FEA4A1E0D465FFA83F8A7EB8317C3
S1130BC01C300126C2F3C73A40F80E60A7EBC313EA
S1130BD081F804A005F8308B9A1825F07F4305F0BE
S1130BE0704523F47008A2EB470705F100751C3526
S1130BF04FEA4818FFB2002340F80E3045F8086069
S1130C0081F83C709EE740F08007CEF200014FF47B
S1130C1080669764C1F88061956C4FF0804125F03F
S1130C20800090640A2222712160D7E60D9AA260A6
S1130C3000F0B0F840F21401C2F200010A68A0E723
S1130C4001F10C0C2CF07F4E0CF070422EF4700568
S1130C5002F100724FEA451E08460025DBB21C3241
S1130C60012642F80E600D7100F8303B20F07F4CF5
S1130C7000F0704000F100762CF470031C365B0128
S1130C8042F80E50F5505DE7F8B50446FFF77EFED6
S1130C9022684FF6FF7302F1340002F13005C0F20E
S1130CA00F0305F07047383200F0704102EA030682
S1130CB007F1007C1D4000EA030702F0704201F1D5
S1130CC0007140F6CD007B010CF10C0C02F10077B1
S1130CD06D01002208317601C0F200004CF80520B5
S1130CE06062CA50BA51F8BD48F20002C4F203026D
S1130CF02DE9F005946C41F24C0644F4801393649E
S1130D00906C4EF2001340F0F0719164C0F2000652
S1130D10CEF2000300220127551CB45C16F805A08E
S1130D2004F01F000AF01F0117FA00F017FA01F18E
S1130D304FFA8AF862B254094FEA581C6A1C04F14B
S1130D40600A0CF1600820340CF1200C202A43F8CE
S1130D50240043F82A0043F82C1043F82810DBD170
S1130D6048F20003C4F203039A6C22F0F070986412
S1130D70996C21F480129A64BDE8F005704700BFB5
S1130D801F289FBF41F26C03C0F2000353F82030C8
S1130D9019607047F0B448F20003C4F20303D3F8B7
S1130DA0982082B012F0806F18D1D3F8980010F414
S1130DB0805F48D041F2EC02C0F20002EC4692E8B7
S1130DC003008CE80300D3F89C7002AEC7F38215CD
S1130DD0741914F8081C012977D061D2D3F8504152
S1130DE047F640024FF28003C0F27D1214F0040F64
S1130DF0C0F2FA2340F21C0640F2140540F2180433
S1130E0040F2080C40F20C0040F2100140F20407DA
S1130E1008BF1346C2F20006C2F20005C2F2000483
S1130E20C2F2000CC2F20000C2F20001C2F20007DA
S1130E30CCF800203B6033602B60236003600B60C0
S1130E4002B0F0BC70474EF2001340F21C0540F2B1
S1130E50140440F2180040F2080747F6400C40F230
S1130E600C0140F2100240F20406C0F2F553C2F243
S1130E700005C2F20004C2F20000C2F20007C0F290
S1130E807D1CC2F20001C2F20002C2F20006C7F8E1
S1130E9000C033602B60236003600B601360CFE7F6
S1130EA044F2402340F21C0540F2140440F21800BE
S1130EB040F2080747F6400C40F20C0140F21002E1
S1130EC040F20406C0F20F03D1E740F21C0540F2E1
S1130ED0140440F2180040F2080747F6400C40F2B0
S1130EE00C0140F2100240F20406C2F20005C2F204
S1130EF00004C2F20000C2F20007C0F27D1CC2F27C
S1130F000001C2F20002C2F200064FF40043BEE741
S1130F1048F20003C4F20303D3F84C114FF6020263
S1130F2091420BD1D3F8980040F48072C3F8982012
S1130F30D3F8981021F08060C3F898004EF600535F
S1130F40CEF200035A6942F400715961FFF772BA94
S1130F5070B541F20C1641F20C15C0F20006C0F255
S1130F600005761BB61006D0002455F82430013451
S1130F709847A642F9D841F20C1541F21016C0F276
S1130F800005C0F20006761B00F0B4F8B61006D0D7
S1130F90002455F8243001349847A642F9D870BD8E
S1130FA00A0D202A2A2A2A2A2A2A2A2A2A2A2A2AE4
S1130FB02A2A2A2A2A2A2A2A2A2A2A2A2A2A2A2A8D
S1130FC02A2A2A2A2A2A2A2A2A2A2A2A2A2A2A2A7D
S1130FD02A2A2A0A0D20092020202020202020202F
S1130FE02057656C636F6D6520746F20536D61725B
S1130FF074467573696F6E32200A0D202A2A2A2AD4
S11310002A2A2A2A2A2A2A2A2A2A2A2A2A2A2A2A3C
S11310102A2A2A2A2A2A2A2A2A2A2A2A2A2A2A2A2C
S11310202A2A2A2A2A2A2A2A2A2A2A2A200A0D206D
S11310300A0D00002048656C6C6F2C20576F726C91
S1131040642121200A0D200A0D00000032333435BA
S1131050363738393A3B3C3D3E3F404142434445B4
S1131060464748494A4B4C4D4E4F50510030014081
S113107004300140083001400C3001401030014080
S113108014300140183001401C3001402030014030
S113109024300140283001402C30014030300140E0
S11310A034300140383001403C3001404030014090
S11310B044300140483001404C3001405030014040
S11310C054300140583001405C30014060300140F0
S11310D064300140683001406C30014070300140A0
S11310E074300140783001407C300140000100013F
S11310F002020303F8B500BFF8BC08BC9E46704763
S1131100F8B500BFF8BC08BC9E467047D504000083
S1131110C104000000000000000000000000000006
S11311200000000000E1F50540787D0100E1F505CF
S113113000E1F50500E1F50500E1F50500E1F5053F
S90301916A
