:1000000000000120910100007F0300008103000037
:100010008303000085030000870300000000000048
:1000200000000000000000000000000069A60000C1
:100030008B030000000000002DA7000069A700004E
:100040009103000093030000A9970000C5970000EA
:10005000990300009B0300009D0300009F03000024
:10006000A1030000A3030000A1910000BD910000C6
:1000700045A40000AB030000AD030000AF03000087
:10008000B1030000B3030000B5030000819200003B
:10009000B9030000BB030000BD030000BF03000064
:1000A000C1030000C3030000C5030000599A00000B
:1000B000F19A0000CB030000CD030000CF03000045
:1000C000D1030000D3030000D5030000D7030000D4
:1000D000D9030000DB030000DD030000DF030000A4
:1000E000E1030000E3030000E5030000E703000074
:1000F000E9030000EB030000ED030000EF03000044
:10010000F1030000F3030000F5030000F703000013
:10011000F9030000FB030000FD030000FF030000E3
:1001200001040000030400000504000007040000AF
:10013000090400000B0400000D0400000F0400007F
:10014000110400001304000015040000170400004F
:10015000190400001B0400001D0400001F0400001F
:1001600021040000230400002504000027040000EF
:10017000290400002B0400002D0400002F040000BF
:100180003104000033040000000000000000000003
:100190004FF0000BDFF8BE020068DFF8B612096806
:1001A00001F0030100F01C00142801D14BF0020BF8
:1001B000002901D04BF0010BBBF1000F05D0A7487F
:1001C000A749DFF8722200F09FF8A64880470BF09D
:1001D000020ABAF1000F0CD0DFF86E02DFF86E12DF
:1001E00002680B680FB44FF000024FF0FF0302608B
:1001F0000B609D489D4A9E4B022808D1DFF83E12B5
:100200000A60DFF842120A60DFF836120B6001283C
:1002100008D1DFF82E120A60DFF82A120A60DFF830
:100220001E120B609348002809D193489349944AC1
:1002300000F032F893489449944A00F02DF894481D
:100240009449954A00F028F894489549DFF8E6214A
:1002500000F05AF8BBF1000F12D092489249DFF833
:10026000DA2100F051F80BF0020ABAF1000F07D0C2
:100270000FBC02600B6000BFAFF30080AFF30080E3
:10028000DFF828020FF2030E00474FF000004FF096
:100290000001DFF81CF2FEE72DE9F841884225D085
:1002A000B2EB010200D5FEE740EA010313F00303BD
:1002B00002D000F01DF819E04FF000039046121133
:1002C000F7D09A421CBFF0C8F0C103F10103F8D186
:1002D00008F00F08B8F1000F08D004780C7000F196
:1002E000010001F10101B8F10108F6D1BDE8F88182
:1002F00008B54FF0000303780B7000F1010001F125
:100300000101013AF7D108BD884237D000F0030659
:10031000002E14D04FF00405A5EB06044FF008079B
:1003200007FB06F8914669FA08F9002C07D080F817
:10033000009069FA07F900F10100013CF5E74FF080
:1003400000060F46091A88460911914614461546BB
:10035000B14206D018BFA0E8340206F10106B1424E
:10036000F8D108F00F08B8F1000F07D002704FEA7B
:10037000322200F10100B8F10108F4E77047FEE70E
:10038000FEE7FEE7FEE7FEE7FEE7FEE7FEE7FEE745
:10039000FEE7FEE7FEE7FEE7FEE7FEE7FEE7FEE735
:1003A000FEE7FEE7FEE7FEE7FEE7FEE7FEE7FEE725
:1003B000FEE7FEE7FEE7FEE7FEE7FEE7FEE7FEE715
:1003C000FEE7FEE7FEE7FEE7FEE7FEE7FEE7FEE705
:1003D000FEE7FEE7FEE7FEE7FEE7FEE7FEE7FEE7F5
:1003E000FEE7FEE7FEE7FEE7FEE7FEE7FEE7FEE7E5
:1003F000FEE7FEE7FEE7FEE7FEE7FEE7FEE7FEE7D5
:10040000FEE7FEE7FEE7FEE7FEE7FEE7FEE7FEE7C4
:10041000FEE7FEE7FEE7FEE7FEE7FEE7FEE7FEE7B4
:10042000FEE7FEE7FEE7FEE7FEE7FEE7FEE7FEE7A4
:10043000FEE7FEE7704700000000A2A2A2A2008033
:100440000340088003401080034030800340348024
:1004500003403880034018080240000000F00020EC
:1004600000000120D9B800000000000000000000DA
:10047000010000000000000000000000000000007B
:1004800090010000C0040000C0040000007C0100D6
:10049000007C010000000020A0000020A00000203F
:1004A000E0980020E098002000F00020F9C2000051
:1004B000A9C00000000000000000000000000000D3
:1004C00010B5054C237833B9044B13B10448AFF38E
:1004D00000800123237010BDA00000200000000058
:1004E000E07B0100084B10B51BB108480849AFF389
:1004F00000800848036803B910BD074B002BFBD0F0
:10050000BDE81040184700BF00000000E07B01007C
:10051000A4000020000000200000000010B504210D
:10052000044606200AF0E6F92060002010BD10B550
:10053000044600680AF05CFB2068BDE810400AF041
:1005400066BB0068003018BF0120704700230360BD
:10055000704713B504460191206801A94FF0FF329E
:1005600000230AF0F7F90128F6D102B010BD00000F
:100570001FB5114B04AC5A6844F80C1DC2F30802B5
:100580006AB1002304AA42F8043D214600680AF03B
:100590005CFA039B044643B10AF0A8F805E0214643
:1005A000006813460AF0D6F9044614F1FF3018BF6C
:1005B0004FF0FF3004B010BD00ED00E0F7B5064687
:1005C0000D4617460AF0A4FC044605B901AD67B113
:1005D000306829463A4600230AF073FA01280DD004
:1005E00000232B604FF0FF300BE0306829464FF0BE
:1005F000FF3200230AF065FA0128F6D10AF088FCE0
:10060000001B03B0F0BD07B501B901A900221346D4
:1006100000680AF056FA10F1FF3018BF4FF0FF30B3
:1006200003B05DF804FB70B506460D4601200021BD
:100630000AF060F9044670B100210A460B460AF040
:1006400089F92DB92046294601222B460AF039FAAC
:100650003460002000E0FF2040B270BD70B5054658
:100660000E460AF055FC044646B100212868324681
:100670000B460AF026FA01280DD108E0002128686F
:100680004FF0FF320B460AF01CFA0128F6D10AF0AF
:100690003FFC001B70BD4FF0FF3070BD00210068B3
:1006A0000A460B460AF056B900680AF0B0BA0120B3
:1006B00070477047704770B50646154686B00A9A6F
:1006C0000024009205AA019202949AB2039408466B
:1006D0002B4631460AF0CAFB012814BF2046059874
:1006E00006B070BD08B50AF009F8012008BD0AF08F
:1006F00011B80000004870472345414270B51426E8
:100700004643074D0446A85918B103F0E7FB002300
:10071000AB51142303FB04540023A37470BD00BF2A
:10072000C00000204FF06043D3F8802ED2070CD5D4
:10073000D3F8003EDB0700D470474FF060431A68DF
:100740000AB900BFF9E7C2B21A7070472DE9F74F36
:100750000A23002207469046944692461E469E462D
:100760001846484C01910A2ED5B294F8009004D155
:10077000B9F1000F04D12E4618E0B9F1000F15D0E1
:100780003FB139688B4654F80E1C8B4501D1EEB24F
:1007900073E0B9F1010F94F8019069D154F8121C7B
:1007A000002960D0C14501D32B46C84601320A2A30
:1007B00004F11404D7D1019A910752D40A2E02D120
:1007C000D20702D44DE0F6B22FE04FFA8EF20A2A99
:1007D0000DD0142353432C4A5FFA8EF6D358BBB185
:1007E0002A4C14F8010F90B1FFF79CFFF9E70A2893
:1007F00001D0C6B202E00A2B33D0DEB2092E07D9EF
:10080000234C14F8010F10B1FFF78CFFF9E700BE7D
:100810003046FFF773FF092E07D91D4C14F8010F5E
:1008200010B1FFF77FFFF9E700BE174B142202FB60
:100830000632927C1C463AB1164D15F8010F10B1E4
:10084000FFF770FFF9E700BE27B1142303FB06434F
:100850003A685A60142202FB06430022DA74F6B2A8
:100860000BE0FF2609E0D145A0D32846CA469DE704
:10087000E14524BFAE46CC4698E770B203B0BDE870
:10088000F08F00BFD2000020C000002075D500000E
:100890008CD500009FD500002DE9F047984690F8D0
:1008A00026300546062B0E4617464C6808D0DFF862
:1008B000389019F8010F10B1FFF734FFF9E700BEC7
:1008C000D8F8003028462360B8F804303146A380B9
:1008D0003B68C4F80630BB8863810823A381AB69F9
:1008E000BDE8F047184700BFC8D5000038B50E4C2A
:1008F0000025A27C8AB1E37C0133DBB2EF2BE374E9
:1009000003D8012A05D1012B07D92846FFF7F6FEA7
:1009100003E0032A04BF0223A37401350A2D04F166
:100920001404E6D138BD00BFC000002070B50646F3
:10093000074D0024AB7C2BB1AB68B34202D12046FB
:10094000FFF7DCFE01340A2C05F11405F2D170BD6D
:10095000C00000202DE9F0470546884600F1270732
:1009600000F1040938B9314C14F8010F10B1FFF748
:10097000D9FEF9E700BE03202A21002203F010FB74
:10098000064600284DD04389292B07D8284C14F857
:10099000010F10B1FFF7C6FEF9E700BE0120746831
:1009A00001F0FEFCA08295F82630062B08D0DFF877
:1009B0008CA01AF8010F10B1FFF7B4FEF9E700BEE2
:1009C0003B683146C4F81630BB8828466383194B10
:1009D0001A689B882262A384174B1A689B8822603E
:1009E000A3803B68C4F80630BB886381D9F8003027
:1009F000E361D8F80030C4F826304FF48073E38107
:100A0000082323820623A3740423E3744FF4C163F1
:100A1000A381AB6998470446304603F05FFA20464D
:100A200000E0FF2040B2BDE8F08700BF93DC00008B
:100A30002ED6000029D7000070D50000C8D50000D0
:100A4000194B2DE9F0418846142101FB023114466F
:100A50008A7C0746012A1D4607D8144E16F8010F56
:100A600010B1FFF75FFEF9E700BE142101FB04514E
:100A700001F11006B378022B09D1F378E32B06D9E4
:100A800038460431FFF766FF08B90323B370142317
:100A900003FB04533846414607F127020C33BDE8F7
:100AA000F041FFF7F9BE00BFC00000205FD6000094
:100AB0002DE9F0470746884608683946144601F094
:100AC000D3F880BBD8F8003003F0F002E02A2AD037
:100AD0004BB340460121FFF739FE051E25DB3D4E95
:100AE000142303FB0562917C103209B90121917036
:100AF00003FB05639B7C43B9DFF8E09019F8010F15
:100B000010B1FFF70FFEF9E700BE142303FB0563E6
:100B10009B7C012B00D054B938464146FFF71AFFA1
:100B200002462CB953E0F22051E028464FE0FF2264
:100B300014236B43F118897C01290CD9264A3846C5
:100B40001570244A214613440C3307F12702BDE8EF
:100B5000F047FFF7A1BE15D1274697B37A893B89A5
:100B60009A420AD13B6843B1DFF8748018F8010F4C
:100B700010B1FFF7D7FDF9E700BE3B7B012B03D196
:100B80003F68EAE7104622E039890320002203F09B
:100B900007FA0746D0B1214603F09EFB18B138464C
:100BA00003F09CF912E03C46142303FB05F2B05815
:100BB0001F4608B103F092F907FB05F034500020FE
:100BC00005E0204603F038FB002CEDD1FF2040B2B9
:100BD000BDE8F087C0000020BC0000208FD60000D8
:100BE000B7D60000F7B50E461546044638B9444F4F
:100BF00017F8010F10B1FFF795FDF9E700BE3EB9F8
:100C0000404F17F8010F10B1FFF78CFDF9E700BE58
:100C10003DB93D4F17F8010F10B1FFF783FDF9E71C
:100C200000BE30460E2103F00BF9002861D1286880
:100C3000214601F019F8002853D12B6803F0F00287
:100C4000E02A14D101238DF800305E238DF80230A4
:100C50006B788DF8010003F07F038DF80330AB78DB
:100C60008DF80430EB788DF805306B463AE0626819
:100C7000A1685A400A4209D04FF6A9629BB293423A
:100C800004D0E36804F10C05002B34D01F49204840
:100C90000A78142303FB0203987C8E46012803D9AB
:100CA00029685B6899420CD019490023887CDAB224
:100CB00001280BD92F684868874207D1D2B28EF835
:100CC000002020463146FFF7BBFE15E001330A2B1A
:100CD00001F11401EAD1204629463246FFF7E8FE29
:100CE0000AE00C4B2046314604F12702FFF7D4FD01
:100CF00002E0FE2000E0FC2040B203B0F0BD00BFE7
:100D000093DC0000C8E20000D1D60000BC00002047
:100D1000C000002070D500002DE9F04F478985B054
:100D20000E2F06460D4640F2E48044682378B4F85E
:100D30000C80D80714D5012B08D1637883B9A37828
:100D40005E2B0DD1737B43F0100308E020466C4905
:100D500006220BF0F7FA18B9737B43F0080373739C
:100D6000B8F1080F03D0B8F5C16F19D0C1E095F8FC
:100D70002D30990640F1BD8030466FF00D0103F033
:100D80005FF840B15F4C14F8010F10B1FFF7CAFCD7
:100D9000F9E700BEADE03046294600F071FDABE05A
:100DA00095F82D309A0640F1A480292F40F2A180B9
:100DB000E389B3F5807F40F09C8040F20643628A6D
:100DC0009A4240F09680238A082B40F09280A246F7
:100DD0005AF81C0F6F680290D4F8260003901FB1D8
:100DE000039BDB1B5F425F4195F82630002F14BF49
:100DF0004FF0010B4FF0020B062B04F1160808D040
:100E0000DFF8089119F8010F10B1FFF78BFCF9E733
:100E100000BE029805F1270988B3294600F024FF97
:100E2000019060BB029B03F0F003E02B27D002A8E7
:100E30005946FFF78BFC002821DBA44614234343CB
:100E4000DFF8CCE002200EEB030188748D605CF8C3
:100E5000160F019AC860BCF804005EF803B008825F
:100E6000CA74BBF1000F0AD04EF803202846594639
:100E70004A464346FFF710FD584603F02FF8A38A71
:100E8000B3F5807F35D1A7B3022001F089FAA082A3
:100E9000DAF80030C4F826306B68E36195F8263044
:100EA000062B07D0184F17F8010F10B1FFF73AFCC7
:100EB000F9E700BED8F8003028462362B8F80430BD
:100EC0003146A384D8F800302360B8F80430A380FA
:100ED000D9F80030C4F81630B9F80430A8F8043056
:100EE000D9F80030C4F80630B9F804306381AB6932
:100EF0009847304602F0F2FF002005B0BDE8F08FC1
:100F000070D50000E0D60000C8D5000001D7000071
:100F1000C000002000230360704700002DE9F84363
:100F2000414D2E68002E7CD101232B603F4B1F6862
:100F3000002F76D03E4B04781A78944234D044780F
:100F40005A78944230D084789A7894422CD0C478DD
:100F5000DA78944228D004791A79944224D04479DA
:100F60005A79944220D0334CD0F800802278DFF8B0
:100F7000CCE04EF802800EEB020CB0F804E0063232
:100F8000D2B2ACF804E03C2A18BF2270027808BF45
:100F900026701A7042785A7082789A70C278DA7025
:100FA00002791A7142795A7189B2002939D0032025
:100FB000024602F0F5FF814608B304460026DFF83A
:100FC0007880606808EB060162890BF0CBF96389D1
:100FD00024681E44B6B2002CF1D12146404609F0E7
:100FE0008DF9D9F804302C60988901F0D9F9B0F561
:100FF000006F0CD040F6060398420DD107E00E4872
:10100000494609F07BF9C5F80090BDE8F8833B69D3
:1010100048463946984720B14846BDE8F84302F0B3
:101020005DBFBDE8F88300BFD0010020880100202B
:101030008D010020D4010020C8070020930100206A
:1010400038B50D46114B1A68012A04D1104B4FF4E4
:1010500080521A60F6E701221A6000240D486A895E
:10106000204469680BF07EF96B892A891C449A42F6
:10107000A4B201D02D68F1E706482146034A09F0E1
:101080008FF90128F8D1002038BD00BFB80D00202D
:1010900000E100E0D8010020304B70B500261E7042
:1010A000452380F82E30302380F82F302C4BC6613A
:1010B00043612C4B044683612B4BDE66012380F891
:1010C00030300BF0D5F80378054684F827304378A4
:1010D000502284F82830837884F82930C37884F843
:1010E0002A30037984F82B30437984F82C30062396
:1010F00084F8263040F2DC53A38494F82D3063F05A
:101100004D0384F82D30194B1C60194B194C1E608F
:10111000194B20461E60194B83F80C2308F096FEED
:101120000423A67223602B78204623716B786371A9
:10113000AB78A371EB78E3712B7923726B796372CF
:1011400008F004FF0E4809F0F5F90E4809F0F8F927
:1011500031460D4809F0D2F8304670BD8C010020B0
:10116000E50B0000411000000080034088010020D2
:10117000B80D0020EC810020D001002000E100E04B
:10118000150F00001D0F0000C80700204FF060433E
:10119000D3F8802ED2070CD5D3F8003EDB0700D45D
:1011A00070474FF060431A680AB900BFF9E7C2B24E
:1011B0001A7070472DE9F043064685B0894690467F
:1011C00001202421002202F0EBFE0446002834D046
:1011D0004389232B07D81A4D15F8010F10B1FFF7DB
:1011E000D5FFF9E700BE65683768002385F80090F1
:1011F00085F80180AB80EB8062683368083203F1C8
:101200001C0153F8040B8B4242F8040BF9D1002661
:1012100061896E80284600F0D6FAFB6804AA6880CF
:1012200042F8043D01230193009620463146FF23F6
:1012300000F0F0FC204602F051FE05B0BDE8F0835E
:101240002ED700002DE9F04F466885B035780F465F
:1012500005F00F05AD00C5F1000B5946044602F03C
:10126000EFFD002840F0AD802389032B40F2A980D8
:1012700063681B78082B40F0A480DFF86CA1394626
:10128000DAF80080404600F0EFFC002840F099803A
:1012900008F0F008B8F1E00F00F093802389072BE5
:1012A00040F28F80204600F094FA002840F08980B8
:1012B000204622211FFA85F802F0C2FD002841D005
:1012C0002046414602F0BCFD024638B1404D15F8BB
:1012D000010F00286AD0FFF759FFF8E702202189A3
:1012E00002F05EFE814600286BD043890835AB4290
:1012F00007D2384D15F8010F10B1FFF747FFF9E796
:1013000000BE4846214602F0E7FF38B1324D15F8DD
:10131000010F00284AD0FFF739FFF8E74846594641
:10132000D9F8046002F08CFD38B12C4D15F8010F8E
:1013300000283BD0FFF72AFFF8E7204602F0CEFD59
:101340004C460CE020466FF0210102F079FD30B1EF
:10135000224D15F8010F48B3FFF718FFF9E74FF6D4
:10136000F671DAF800306268F3601D4BFF251B68E8
:10137000304633610023137053888B428CBF09338E
:1013800008335380002373811421357200F01BFA57
:1013900041467081204602F053FD024640B1114D96
:1013A00015F8010F10B1FFF7F1FEF9E700BE08E0F4
:1013B000012300900193029720460B492B4600F031
:1013C00017FC204605B0BDE8F04F02F087BD00BF16
:1013D0005AD700008DD70000C3D70000EBD700001C
:1013E00018820020E0D60000208200200A46043047
:1013F0000321FFF7DFBE0A4604300B21FFF7DABEF8
:101400004FF06043D3F8802ED2070CD5D3F8003EBE
:10141000DB0700D470474FF060431A680AB900BF79
:10142000F9E7C2B21A7070472DE9F0412B4B05461F
:101430001B68002088B00F4602460821069302F080
:10144000AFFD0646002845D043894468072B08D8DD
:10145000DFF88C8018F8010F10B1FFF7D1FFF9E722
:1014600000BE6B68162F5B68069306D1AB6805F16A
:101470000808636001232B7307E0172F03BFAB68D5
:10148000DFF8608063604FF00008A7F11603012BBE
:101490001DD827700027082167706780204600F05C
:1014A00092F940F294426B686080029307ABADF80A
:1014B0001C200393022204230192049300973046D8
:1014C00006A942460123ADF81E7000F0B9FA304675
:1014D00002F004FD08B0BDE8F08100BF6CD9000047
:1014E0001DD80000C00D002038B505460B200C4665
:1014F00002F0FCFA70B1456000230CB1226800E0F4
:101500001A46C381437303730374034B82601A68E2
:101510001860026038BD00BFC40D002038B5437BA1
:101520000546022B0C4605D0012B11D1C3890BB106
:1015300099420DD2002C08BF0124FFF7DBF8013CD3
:1015400090FBF4F101FB14000123441CEC816B734C
:1015500038BD0000034A044B1A60044B02F180724C
:101560001A607047E0000001BC0D0020C00D002093
:1015700038B50546064B1C6844B16368AB4203D1DD
:1015800020460521FFF7CAFF2468F5E738BD00BFF4
:10159000C40D002010B5064B1B6833B15A68824257
:1015A000FAD19C680A689442F6D1184610BD00BF73
:1015B000C40D002010B50E490446FFF7EBFF20B91B
:1015C00020460B49FFF790FF60B102234373037C71
:1015D00001330374636B3BB12046054901229847F0
:1015E000002002E0FF2000E0184640B210BD00BF1E
:1015F000BC0D00202DE9F34143680F4619780646DB
:1016000001F00F0189004942154602F019FC00283B
:1016100048D17189072945D97468204600F0D3F86C
:10162000804600283ED138462946FFF7B3FF002800
:1016300038D02378112B0BD0162B33D1437B012BC1
:1016400001BF0223A0F80E80437380F80C8029E0CC
:10165000174B29681A6898469142636815D1A3B957
:1016600063780BB90A236370124B1D68D5B16B68A0
:10167000BB4208D1AA68D8F800309A4203D0284665
:101680006178FFF74BFF2D68F0E75BB1914206D11F
:1016900002A941F8043D3846FFF77CFF10B161789C
:1016A000FFF73CFF304602F019FC02B0BDE8F081C4
:1016B000BC0D0020C40D0020094B10B51C6874B18E
:1016C000E38953B1013B9BB2E38133B9637B012BC7
:1016D00003D120461621FFF7A7FE2468EFE710BDCF
:1016E000C40D002013B5002310F00104ADF806303E
:1016F00007D09942C1BF037801F1FF318DF807305F
:1017000001300022012904DD30F8023B02391A447D
:10171000F8E704BF03788DF80630BDF80630D0181E
:1017200083B203EB104083B203EB104024B10302F9
:101730009BB2C0F30720184380B202B010BD2DE960
:10174000F84300250646884691461F462C46AEB112
:1017500070687189FFF7C6FF7389204484B2DB0784
:1017600004EB104441BF2302C5F101059BB2C4F351
:10177000072444BFEDB21C433668E8E725B12102D7
:1017800089B2C4F307240C43D8F80000D9F800301C
:1017900082B202EB10409AB2104400EB13400444B2
:1017A000384600F0FDFD0444BDF8200000F0F8FDCF
:1017B000204484B204EB104083B203EB1040C043DA
:1017C00080B2BDE8F88308B5FFF78CFFC04380B254
:1017D00008BD70B5002506462C46AEB1706871890B
:1017E000FFF780FF7389204484B2DB0704EB1044C9
:1017F00041BF2302C5F101059BB2C4F3072444BFD6
:10180000EDB21C433668E8E725B123029BB2C4F36E
:1018100007241C43E04380B270BD4FF06043D3F80F
:10182000802ED2070CD5D3F8003EDB0700D47047DA
:101830004FF060431A680AB900BFF9E7C2B21A70E4
:10184000704700000C4B1B685BB193F82D20D2074A
:10185000F9D5596802684A4099680A42F3D1184696
:1018600009E0064B186830B190F82D3013F0010FE5
:1018700008BF0020704770477092002074920020CB
:101880002DE9F84F4768044697F800800E464FEA66
:101890001813042B03D0204602F020FBC3E0788805
:1018A00000F081FD08F00F0863894FEA880843457E
:1018B0000546F0D323898342EDD338464146FFF7EE
:1018C00082FF0028E7D12046294602F047FC3B6909
:1018D0005649574A0B60F86803F0F003E02B10609C
:1018E000894692460AD196F92D30002B28DA3046E7
:1018F000FFF750FE002840F0848021E035464FF08D
:10190000010B95F82D30DB0705D4BBF1000F0FD08C
:10191000484B1D680DE06B68002BF6D0D9F800002D
:1019200098426FD0294600F09FF90028EDD069E079
:101930002D68B54208BF2D684FF0000B002DE0D197
:101940007B7A112B5BD1B844B8F80230B3F5884FDD
:1019500055D13546002D9ED0FB8823F0C0039BB2A5
:1019600033B1204600F0B6FA044600285BD0476841
:10197000DFF8C880304D20463146C8F800602F603F
:1019800002F078FD90BB7B7A022B15D006D8012B94
:1019900018D120463146FFF755FC27E0062B06D02C
:1019A000112B0FD12046314605F062FD1EE0204686
:1019B000314604F0AFF919E0204631461B4AFFF7E3
:1019C00019FE13E0D9F80000314600F04DF950B986
:1019D000164B1B6803F0F003E02B04D06760204631
:1019E0000221FFF703FD204602F078FA0023C8F831
:1019F00000302B60CAF80030C9F8003013E0002531
:101A000000E03546DAF800000028A3D0314600F0A7
:101A10002BF900287FF43FAF054B1B6803F0F00360
:101A2000E02B97D137E70020BDE8F88F2082002017
:101A30001882002070920020248200201C82002046
:101A40002DE9F04F87B01F469DF840308346029342
:101A5000C3890191012B16469DF844A0DDF848800A
:101A6000BDF8505007D05F4C14F8010F10B1FFF7CC
:101A7000D4FEF9E700BE002E00F0968075B3EB1C93
:101A800023F003031FFA83F909F1140458460FFAEF
:101A900089F1A4B202F0D4F908B1FE209DE00390D0
:101AA0001399DBF804002A460AF05CFC4D45039BC1
:101AB00007D2DBF8040019462844C5EB09020AF0F6
:101AC0005CFC002215464FEA59039A4207DADBF81C
:101AD000041031F8121001320D44F6E71424584670
:101AE000142102F0ADF90028D7D1BBF80A20DBF8A9
:101AF0000490132A09D83C4A12F8010F20B103922E
:101B0000FFF78BFE039AF7E700BEA40889F8087078
:101B100089F809A09DF8083044F040043268E4B226
:101B200089F8004089F80130029BC9F8102047EA83
:101B30000A27BBF808001FFA82FA0AEB124A44EAA5
:101B4000032400F02DFC0021A9F806102749A9F86C
:101B5000020003900888029100F022FC0299019B88
:101B6000B1F800E0A9F804000EF1010EA1F800E0C0
:101B7000039A0BB1196809B9D8F80410C9F80C1008
:101B8000D9F80C3099B28A440AEB134A57443D44C1
:101B900025442A44104482B202EB104000EB10406E
:101BA000C043A9F80A0005E0DBF8043006AE1B6963
:101BB00046F8043DB8F824304BB1BBF808209A42EF
:101BC00005D958464146324600F01EFB05E0D8F8DC
:101BD0001430404659463246984740B207B0BDE8F7
:101BE000F08F00BF2DD9000039D90000C80D0020AA
:101BF00010B586B09DF8204000949DF824400194D3
:101C00000A9C0294002403940494FFF719FF06B081
:101C100010BD00002DE9FF411F46C3890546012B79
:101C20008846144607D00F4E16F8010F10B1FFF783
:101C3000F4FDF9E700BE2046FFF704FE68B19DF809
:101C40002830029000939DF82C302846019341469D
:101C500022463B46FFF7CCFF00E0FC2040B204B038
:101C6000BDE8F0812DD90000431E0333024614D88D
:101C700091F82D3003F0020303F0FF0083B14868B0
:101C800082420CD08B685040184208D1DB4302EAF4
:101C90000300C31A58425841704701207047002082
:101CA00070474FF06043D3F8802ED2070CD5D3F89D
:101CB000003EDB0700D470474FF060431A680AB952
:101CC00000BFF9E7C2B21A70704700000D4B70B543
:101CD0001A68044682420D4602D102681A600AE080
:101CE00039B9094E16F8010F10B1FFF7DAFFF9E71D
:101CF00000BE23682B602146BDE87040052001F03E
:101D000021BF00BFCC0D00206FD9000081422DE91A
:101D1000F84305460F4607D1304C14F8010F10B1B7
:101D2000FFF7BFFFF9E700BE57B13B68AB4207D0F2
:101D30002B4C14F8010F10B1FFF7B3FFF9E700BE09
:101D40006E6873689A88BAB91A6805F11C016A60EE
:101D500005F1080252F8040B8A4243F8040BF9D14A
:101D600030460121FFF747FB304602F05DFA84B2AE
:101D7000304602F0B3F800E000246E68C6B1736824
:101D80003046D3F8009002F04FFA0444B4F5803F97
:101D900008DBDFF8588018F8010F10B1FFF781FF5A
:101DA000F9E700BE3046A4B202F098F84E46E5E7E7
:101DB00028463946FFF78AFF0A4B1E881D46A64271
:101DC00007D2094F17F8010F10B1FFF76AFFF9E7C3
:101DD00000BE361B2E802046BDE8F88388D900005F
:101DE00094D90000D00D0020C3D90000A6D900006E
:101DF0002DE9F0410646884600250024214620466C
:101E0000144B1B68D3B15F69F268974207D19F6991
:101E10003269974203D19F89B288974208D0013432
:101E200028B1DF7FC27F974298BF184600E018466E
:101E30001A68002A18BF19461346E3E710B1FFF7E6
:101E400065FF0544454501DA012CD6DC2846BDE88E
:101E5000F08100BFCC0D002038B5044638B9074DDD
:101E600015F8010F10B1FFF71CFFF9E700BE21467E
:101E7000BDE83840062001F065BE00BF84E20000E6
:101E800038B5044638B9084D15F8010F10B1FFF701
:101E900008FFF9E700BE606908B102F01FF82046AC
:101EA000BDE83840FFF7D8BFDED9000038B5084B91
:101EB0000024186858B1C37F05681BB1013BC37784
:101EC000044602E02146FFF721FF2846F2E738BD2D
:101ED000CC0D00202DE9F74F44680546237803F028
:101EE0000F03052B49D1E08800F05DFA8246608837
:101EF00000F059FA237883462846019302F094F9BA
:101F00009B4E0746338803440A2B06DC994A00237C
:101F1000D2F800900093904612E020463946FFF731
:101F200067FF50B333883B440A2BEFDD25E0D9F837
:101F30001410E268914207D0CDF80090D9F80090D3
:101F4000B9F1000FF3D10AE0D9F8181022699142D3
:101F5000F2D1B9F80C10A2889142EDD111E0052020
:101F600001F0C4FD8146002840F0A3802046394698
:101F7000FFF73EFFB84280F29580284601F0AEFFA1
:101F8000F3E0E08800F00FFAC0F30C0088B9B9F86C
:101F90000E0000F008FAC0F30C0050B1224609F11F
:101FA000080104F1140052F804EB824241F804EBFA
:101FB000F9D132881744E2883780920610D499F814
:101FC0001E20019B42F0010289F81E2003F00F023F
:101FD000C2EB82320BEB820B0BEBCA0AA9F81CA0F6
:101FE0006F684FF00108788800F0DDF93A7802F068
:101FF0000F02C2EB823200EB820084B2F88800F05C
:10200000D2F9D9F80430C0F30C001946C0006F684B
:1020100022184FF0000E92B2C7F800E0B880FA80A4
:10202000744600295FD0D1F804E0BEF804C06045D2
:1020300008D23960ACB1E18881422CD862452AD8F7
:10204000256010E027D0BEF80610814223D824B1C5
:10205000E188614518BF4FF00008DEF80010DFE7A7
:1020600000BEC9F8045099F81E20D3077DD5B8F1F9
:10207000000F7AD0D9F8042050688288002A74D1E1
:102080003A68002A4ED05168FC888A8894426CD104
:102090000A680F46F5E7284602F0C6F83388181A92
:1020A00030806AE7052001F021FD814600283FF4D9
:1020B00064AF0021202248460AF05FF9032289F824
:1020C0001F20D8F8002009F10801C9F80020224695
:1020D000C8F8009004F1140052F804EB824241F871
:1020E00004EBF9D165E79CB1E288824208D9DFF8B8
:1020F00098A01AF8010F10B1FFF7D3FDF9E700BE61
:10210000E188BA882560914218BF4FF00008AAE71D
:10211000002BA6D0184C14F8010F0028A0D0FFF710
:10212000C0FDF8E7B84217D03A683AB1134C14F83A
:10213000010F10B1FFF7B5FDF9E700BEF988B9F856
:102140001C20914222D00E4C14F8010F10B1FFF761
:10215000A8FDF9E700BE19E00A4C14F8010F10B110
:10216000FFF79FFDF9E700BEDEE7002049E000BF72
:10217000D00D0020CC0D002008DA00003FDA00006E
:1021800061DA00008EDA0000EAD90000B9F81C20FC
:1021900009F11C001432A9F81C20D9F80420546855
:1021A00009F108022146256852F8047B824241F871
:1021B000047BF9D1B9F81C0000F0F2F8002260802D
:1021C000E280628120461421FFF7FDFA6081D9F890
:1021D00004405DB16F6828466FF0130101F030FED6
:1021E0002946204602F036F83D68F2E74846009955
:1021F000FFF76CFD204602F017F83388181A30807C
:10220000204603B0BDE8F08F2DE9F04F8B8C8DB0E8
:10221000069343688246D8880A920393059100F09A
:10222000C2F8C0F30C0300F40050029383B2089389
:10223000069B0822143B93FBF2F3BAF808409BB2CA
:102240000793DB00143C9BB2A4B209934FF0000B40
:102250001425002C00F09880029B0220C3F30C0987
:10226000089B142143EA09030493069B0022133BB5
:10227000A342DFBF049BDDF8249043F40053049392
:10228000C8BFA14601F08CFE064600287ED0BAF8F1
:102290000A30132B07D8404F17F8010F10B1FFF782
:1022A00000FDF9E700BE039B72681946143153F82C
:1022B000040B8B4242F8040BF9D1DAF80430D6F85B
:1022C00004802B44CAF80430BAF80A304F465D1B2C
:1022D000AAF80A505D4687B3BAF80A50BD4228BF33
:1022E0003D46ADB235B3062001F000FC834668B12F
:1022F000DAF8043003208DE82800294602225B46E4
:1023000001F06AFD30B95846FFF7A6FD304601F0EE
:10231000E5FD3BE00B90504601F08EFF1F4B7F1B0D
:10232000CBF814A0CBF8103030460B99BFB201F0B7
:1023300091FF17B1DAF800A0CDE7049800F030F86B
:10234000A8F8060009F1140080B200F029F8142161
:10235000A8F80200A8F80A704046FFF734FA059B77
:102360000A9A5B69A8F80A003146059898473046F2
:1023700001F0B4FD029B079AC9EB040413449BB21D
:10238000A4B20293AB4664E7204600E0FF2040B2CF
:102390000DB0BDE8F08F00BF9BDA0000811E000089
:1023A00040BA80B2704740BA80B2704700BA7047F6
:1023B000FFF7FCBF037B8B421FBF002301734373F6
:1023C000438370474FF06043D3F8802ED2070CD57B
:1023D000D3F8003EDB0700D470474FF060431A6823
:1023E0000AB900BFF9E7C2B21A707047F8B5038B9B
:1023F000044602331344442B0F46154607D90B4EAF
:1024000016F8010F10B1FFF7DDFFF9E700BE238BCF
:102410006269591C1344218383F8F070238B62692D
:10242000591C1344218383F8F050F8BDBBDA000037
:10243000038B70B5432B04460E4607D9074D15F89C
:10244000010F10B1FFF7BEFFF9E700BE238B6269F1
:10245000591C1344218383F8F06070BD03DB000036
:10246000038B70B50233442B04460D4607D90C4E3E
:1024700016F8010F10B1FFF7A5FFF9E700BE238B97
:102480006269591C13442A0A218383F8F020238BA4
:102490006269591C1344218383F8F05070BD00BF5A
:1024A0003EDB0000038B70B50433442B04460D461D
:1024B00007D9154E16F8010F10B1FFF783FFF9E7A2
:1024C00000BE238B6269591C13442A0E218383F8B2
:1024D000F020238B6269591C1344C5F30742218302
:1024E00083F8F020238B6269591C1344C5F307223B
:1024F000218383F8F020238B6269591C13442183C4
:1025000083F8F05070BD00BF7FDB00002DE9F04183
:102510000C461546064648B9554C14F8010F10B143
:10252000FFF750FFF9E700BEF2209EE049B9514C99
:1025300014F8010F10B1FFF745FFF9E700BEFA20CC
:1025400093E00B693BB14C4F17F8010F10B1FFF747
:1025500039FFF9E700BE63693BB1484F17F8010F37
:1025600010B1FFF72FFFF9E700BE00204FF49A717A
:10257000024601F015FD2061002875D04389B3F5AE
:102580009A7F07D23E4F17F8010F10B1FFF71AFFDD
:10259000F9E700BE637B3B4F13B9FEF7ABF8386039
:1025A0003B680027236023695A6801236261137026
:1025B00062695370636996F826209A706369DF70C8
:1025C0002068D4F81480FFF7F1FE6269082DC8F87E
:1025D000040017815781D76007D0042D05D0032D43
:1025E00005D1237B043B012B01D87368D360002302
:1025F00013615361936196F8260099B2884262692B
:1026000084BFF11891F827101A4403F1010398BF11
:102610000021102B1177EED100236269D11801330C
:102620000022402B81F82C20F7D1636999180132E0
:102630000023802A81F86C30F7D162691249C2F810
:10264000EC10238362691A4482F8F0300133442B82
:10265000F8D1204635210122FFF7C8FE2046294641
:10266000FFF7E6FE002000E0FF2040B2BDE8F08169
:10267000BFDB0000DEDB0000FCDB000021DC000033
:1026800048DC0000D40D00206382536337B5054653
:1026900030B9334C14F8010F58B1FFF793FEF9E746
:1026A000046A44B92F4C14F8010F10B1FFF78AFEE9
:1026B000F9E700BE52E0636B581C0BD03C221E337E
:1026C000B3FBF2F34FF6FF72934228BF134603B9F0
:1026D0000123A383A36B591C0BD03C221E33B3FBF5
:1026E000F2F34FF6FF72934228BF134603B901235A
:1026F000E383E38BA28B9A4202D30BB10023A38323
:10270000A37B0BB1A36A0BE094F824301A0601D422
:10271000FF2305E0BF2B94BF4FF6FF736FF07F439D
:102720000093E36A01932BB9636A009A134043F064
:1027300080730193284604F1240101F045FA2846EC
:10274000694601F0CBFA01A9284601F0C3FA2846F0
:1027500001F0CEFA20460A21FFF72CFE03B030BD6F
:1027600088DC0000A1DC000038B5044640B9184CF4
:1027700014F8010F10B1FFF725FEF9E700BE38BDD0
:1027800043693BB9134D15F8010F10B1FFF71AFE5D
:10279000F9E700BE238B432B07D90F4D15F8010F26
:1027A00010B1FFF70FFEF9E700BE238B6269591CD9
:1027B00021831344FF2283F8F020238B432B05D879
:1027C0006269591C218313440022F4E738BD00BF1D
:1027D000B9DC0000DBDC000007DD000038B5044692
:1027E00040B9124C14F8010F10B1FFF7EBFDF9E7F7
:1027F00000BE38BD03693BB90D4D15F8010F10B18E
:10280000FFF7E0FDF9E700BE63693BB9094D15F834
:10281000010F10B1FFF7D6FDF9E700BE206908B13E
:1028200001F05CFB00232361636138BD46DD0000DD
:1028300064DD000089DD000073B50646046A0421EA
:102840002046FFF7B7FD304621460322FFF75EFE24
:102850000546D8B9022220463921FFF7C7FDB18CC1
:102860002046FFF7FDFD2046FFF77EFF218B206904
:10287000F03189B201F072FC009660682169104A5B
:10288000432304F033FF2046FFF7A8FF637B28466D
:102890000133DBB2092B63738FBF42F21073C3EBBA
:1028A000431203EB8203DB0098BF9BB24FF4FA7232
:1028B00003F2F31393FBF2F3638302B070BD00BF26
:1028C00068D9000073B50646046A00236362204697
:1028D0000621FFF76FFD304621460122FFF716FE65
:1028E000054680BB022220463921FFF77FFD2046A6
:1028F000B18CFFF7B5FD042220463721FFF776FDA6
:1029000020460121FFF794FD20460321FFF790FDAB
:1029100020461C21FFF78CFD06212046FFF788FD8D
:102920002046FFF721FF218B2069F03189B201F0A9
:1029300015FC0096606821690E4A432304F0D6FE18
:102940002046FFF74BFF627B28460132D2B2052AB0
:102950008FBF4EF660234FF47A7393409BB262733D
:1029600003F2F3134FF4FA7293FBF2F3638302B0B2
:1029700070BD00BF68D9000073B50646046A012126
:102980002046FFF717FD304621460322FFF7BEFD24
:102990000546002848D1022220463921FFF726FDAE
:1029A0002046B18CFFF75CFD042232212046FFF760
:1029B0001DFD606AFFF7FCFC01462046FFF772FD33
:1029C000042236212046FFF711FD206AFFF7F0FCB4
:1029D00001462046FFF766FD042220463721FFF717
:1029E00005FD20460121FFF723FD20460321FFF7C7
:1029F0001FFD20461C21FFF71BFD06212046FFF787
:102A000017FD2046FFF7B0FE218B2069F03189B217
:102A100001F0A4FB0096606821690E4A432304F08C
:102A200065FE2046FFF7DAFE627B28460132D2B20D
:102A3000052A8FBF4EF660234FF47A7393409BB202
:102A4000627303F2F3134FF4FA7293FBF2F36383AE
:102A500002B070BD68D9000073B50646046A032150
:102A60002046FFF7A7FC304621460322FFF74EFD24
:102A7000054640BB022220463921FFF7B7FC20461D
:102A80004FF41071FFF7ECFC042232212046FFF7CF
:102A9000ADFC606AFFF78CFC01462046FFF702FDA3
:102AA0002046FFF761FE218B2069F03189B201F0E9
:102AB00055FB0096606821690F4A432304F016FE17
:102AC0002046FFF78BFE637B28460133DBB2092BE0
:102AD00063738FBF42F21073C3EB431203EB8203A5
:102AE000DB0098BF9BB24FF4FA7203F2F31393FB2F
:102AF000F2F3638302B070BD68D900002DE9F04F96
:102B0000D0F820908BB0D9F8083007469346546827
:102B10003BB1B34D15F8010F10B1FFF753FCF9E7C6
:102B200000BEBBF80A302B2B6CD92378022B69D15D
:102B300097F8263007F12602263304F11B013B44A7
:102B40009A4206D012F8015F11F8010F8542F7D0C2
:102B500058E06068FFF72CFCD9F80030984251D15A
:102B6000A04800210A2209F008FCBBF80A302B2BF0
:102B700048D9DBF80430BBF808A0C9F808300023B6
:102B80000193F0245E4673899C420AD33668E41AA6
:102B9000C3EB0A0AA4B21FFA8AFA002EF3D131E07D
:102BA00000BE73680393039B1A5DFF2A04D18D4A0C
:102BB0001378154693B96CE15445F8D2A31C9BB227
:102BC00071890493631C8B4203DA039B23445B7873
:102BD00023E13368FBB15B681B781EE1824B002167
:102BE0001B681170012B00F0D581022B05D1002349
:102BF00001934FF06C0A2C24C4E7032B40F0498169
:102C0000C6E100BE0023C9F80830584601F066F955
:102C10000BB0BDE8F08F332A07D1744C14F8010FC4
:102C20000028EED0FFF7CEFBF8E707D8012A00F026
:102C3000278180F0A080013CA4B20AE0362A00F08F
:102C4000C68000F20681342A00F0DE80352A00F0CA
:102C5000F78000252B464FF0FF3802341C44A4B205
:102C6000002D6ED0C446002309935E4B434402936B
:102C7000049AC8EB0C0302EB8303BCF1090F9BB26F
:102C80000FD95B4A12F8010F50B107930692CDF8A5
:102C900014C0FFF797FB079B069ADDF814C0F1E715
:102CA00000BE029A1278002A4BD1032D94BFAAB21B
:102CB0000422304609A9CDF814C001F095FB042D7B
:102CC000DDF814C01DD9AB0707D04A4C14F8010F2A
:102CD000002896D0FFF776FBF8E7029A012302F866
:102CE000013B0998CDF814C00292FFF75FFBDDF8B5
:102CF00014C03D4B043D43F82C00EDB20CF1010C27
:102D0000B6E708D10998CDF808C0FFF751FBDDF808
:102D100008C009900DE0012D08D0374C14F8010FC0
:102D200000283FF46EAFFFF74DFBF7E79DF8243026
:102D300009932C4B012203F80C20099A2A4B43F8E3
:102D40002C2073899C42FFF42EAFE41AC3EB0A0ACD
:102D5000A4B21FFA8AFA5445BFF429AF3668002E90
:102D60007FF41FAF254D15F8010F00283FF418AF71
:102D7000FFF728FBF7E7032A08D1214C14F8010FCD
:102D800000283FF43EAFFFF71DFBF7E7062A7FF46C
:102D900060AF00239A0708D01A4C14F8010F0028DE
:102DA0003FF42FAFFFF70EFBF7E71D46082B28BFB8
:102DB0000825AB4208D2124C14F8010F00283FF44A
:102DC00020AFFFF7FFFAF7E74FF0080845E7074C99
:102DD00014F8010F00283FF414AFFFF7F3FAF7E7F8
:102DE000B0DD00002882002034820020D5DD000004
:102DF000E7DD0000F8DD00000CDE00001FDE000053
:102E0000C3DD0000FFDD0000854C14F8010F002831
:102E10003FF4F7AEFFF7D6FAF7E7332A00F0BE80AB
:102E200040F2C380362A00F0DB8000F2E780342ACB
:102E300000F0DD80352A40F0CF80012B00F0E380E8
:102E4000774C14F8010F00283FF4DBAEFFF7BAFA15
:102E5000F7E73A2A08D1734C14F8010F00283FF421
:102E6000D0AEFFF7AFFAF7E73B2A7FF4F2AE6D4C36
:102E700014F8010F00283FF4C4AEFFF7A3FAF7E7F8
:102E8000684C14F8010F00283FF4BBAEFFF79AFA24
:102E9000F7E7019B002B7FF4AAAE6B786249002B09
:102EA0003FF4B0AE614B1A791E46052A32D199F82B
:102EB0000C30012B29D1019B3C6AA362E362CB78E1
:102EC0000BB1F36823632B790BB1336901E0236BFA
:102ED0005B0863636B790BB1736900E0236BA363D9
:102EE000A3681B696362AB7923B1B069FFF75EFA2F
:102EF0000123A062A373EB791BB1F069FFF756FAC7
:102F0000E0623846FFF7C2FB7CE6033B022B3FF64C
:102F100079AEF6E7062A1FD199F80C30DA1E022A9C
:102F200002D9012B7FF46EAE38463C6A00F0FBFEFE
:102F300038463F4900F048FE38463D4900F0CAFE99
:102F400038463B4900F0CAFE20460C21FFF732FA12
:102F50003846FFF7B7FC55E6022A7FF453AE99F8DE
:102F60000C20062A7FF44EAEBDF804203C6AA9F876
:102F70001A208A78002A3FF445AE9868FFF716FABF
:102F8000A36820621B6938466362FFF7F5FC39E6E7
:102F9000012301934FF0EC0A6C24F3E5042B7FF43A
:102FA0003CAE1D464FF0030857E6012A06D1042B1C
:102FB0007FF466AF1D464FF006084EE6FFF43BAEC9
:102FC000032A06D1032B7FF6D8AE4FF0070804255D
:102FD00043E6062A3FF4DEAE049A1A4494B2B0E601
:102FE000042B7FF4F4AE1D464FF0020835E6012BAA
:102FF0007FF40AAF1D464FF000082EE63A2A05D1AD
:10300000042B7FF428AF1D46984626E63B2AE3D1E1
:10301000042B7FF42CAF1D464FF005081DE600BFC2
:10302000DEDD0000D5DD0000288200203482002093
:103030006CD9000073B50646046A05212046FFF7E7
:10304000B9F9304621460322FFF760FA0546E0B998
:10305000022220463921FFF7C9F9B18C2046FFF73B
:10306000FFF92046FFF780FB218B2069F03189B200
:1030700001F074F800966068216904F1200243238E
:1030800004F034FB2046FFF7A9FB637B284601339D
:10309000DBB2092B63738FBF44F62063C3EB43128B
:1030A00003EB82031B0198BF9BB24FF4FA7203F249
:1030B000F31393FBF2F3638302B070BD134B10B5AF
:1030C0001C6814B3236AF3B1DA8B511E012AD98329
:1030D0000AD11B7B03F0FB02012A01D00A2B12D17B
:1030E0002046FFF7A9FB0EE09A8B511E012A998317
:1030F00009D11B7B03F0FB02012A01D00A2B02D16C
:103100002046FFF797FF2468DBE710BD7092002090
:1031100073B50446066A00213046FFF74BF90023D9
:1031200033627362B362F362B363736333632046E3
:1031300031460722FFF7EAF9054698B93046FFF70E
:1031400013FB318B3069F03189B201F007F800943C
:103150007068316906F12002432304F0C7FA304653
:10316000FFF73CFB737B20460133DBB2092B737303
:103170008FBF42F21073C3EB431203EB8203DB00F9
:1031800098BF9BB24FF4FA7203F2F31393FBF2F37E
:10319000738300F0C8FD2046064900F015FD204667
:1031A000044900F097FD2046024900F097FD2846AB
:1031B00002B070BD6CD900001F4B10B51C68002C0C
:1031C00038D0236AA3B35A8B012A02D9013A5A8311
:1031D0002EE02DD100225A831A7B0C2A1BD0062AFE
:1031E00019D0012A06D15B7B2046052B11D8FFF7A9
:1031F000C3FB1DE0052A03D12046FFF71BFF17E0A4
:10320000042A0AD15B7B2046082B02D8FFF714FB67
:103210000EE0FFF77DFF204608E0032A08D15B7B24
:103220002046012B02D8FFF717FC01E0FFF74AFB0D
:103230002468C4E710BD00BF7092002038B540B9C3
:10324000134C14F8010F10B1FFF7BCF8F9E700BEFA
:1032500038BD90F82D30046A23F0080380F82D3033
:10326000ACB1606818B104F0F5FA00236360A3689C
:103270003BB1084D15F8010F10B1FFF7A3F8F9E7BE
:1032800000BE2046BDE838400021FFF793B838BDA6
:1032900056DE0000B0DD000070B5054640B9334C85
:1032A00014F8010F10B1FFF78DF8F9E700BE59E0EF
:1032B00090F82D30046A23F008029B0680F82D2038
:1032C00050D5838CB3F5107F43D33CB93C2000F03C
:1032D00035FB044600283CD0286217E0606808B13E
:1032E00004F0B8FA23693BB1214E16F8010F10B172
:1032F000FFF768F8F9E700BEA3683BB11D4E16F86A
:10330000010F10B1FFF75EF8F9E700BE00213C2283
:10331000204609F032F804F0B3FA6060C8B1037ACD
:10332000154943F0200303724422606804F07CF9DD
:1033300011494322606804F063FA60680F492A4625
:1033400004F084FA2846FFF7BDFA20B12846FFF7BB
:1033500075FFFF2007E095F82D3043F0080385F84E
:103360002D3000E0F22040B270BD00BF93DC0000C1
:103370006FDE0000B0DD00006CD90000FD2A000007
:1033800008B5FDF797F900F05FF900F08BFB00F04E
:1033900019FC05F003FC04F06AF801F019F9FEF7D6
:1033A000D9F8BDE8084000F07DB8000070B50446CB
:1033B0000C200E46154600F099FBB8B91C4A12F8CD
:1033C000013F8BB14FF06041D1F8800EC007F6D5B8
:1033D000D1F8001EC907F2D54FF06041086808B95E
:1033E00000BFF9E70B70EAE700BE70BD114900238A
:1033F00003600B688660C56044602BB15A68A242C6
:1034000008D9121B5A600360086070BD54688C4272
:1034100008D8134642685968511A1A684160002A50
:10342000F4D101E0611A51600260186070BD00BF04
:1034300087DE0000DC0D0020084B1A6862B9084ADC
:10344000126812B9074A126832B101221A60FA20D2
:1034500005490022FFF7AABF704700BFD80D002022
:1034600080920020949200206D34000008B501F095
:10347000A5FD084B1B6813B9074B1B6833B1BDE8AA
:103480000840FA2005490022FFF790BF044A136064
:1034900008BD00BF80920020949200206D3400008F
:1034A000D80D002008B54FF47A700E490022FFF7BE
:1034B0007DFF41F288300C490022FFF777FF4EF67E
:1034C00060200A490022FFF771FF4FF4FA700849A3
:1034D0000022FFF76BFFBDE8084064200549002289
:1034E000FFF764BF65350000493500002D35000049
:1034F00011350000F934000008B5FEF7DDF8BDE82D
:103500000840642001490022FFF750BFF934000051
:1035100008B5FFF751FEBDE808404FF4FA700249C4
:103520000022FFF743BF00BF1135000008B5FFF7C9
:10353000C5FDBDE808404EF6602002490022FFF7B5
:1035400035BF00BF2D35000008B5FDF7CFF9BDE848
:10355000084041F2883002490022FFF727BF00BF30
:103560004935000008B5FEF7A1FCBDE808404FF45E
:103570007A7002490022FFF719BF00BF65350000CD
:10358000104A30B51368E3B100249D68854213D119
:10359000DD688D4210D119680CB9116000E021601E
:1035A0001A681AB150685968014451600C201946D4
:1035B000BDE8304000F0C6BA1D681C460DB12B4670
:1035C000E3E730BDDC0D0020F8B505460E46134C90
:1035D00022682AB928463146BDE8F840FCF7EEBF1C
:1035E000526862B921680C200B68CF6823608C6830
:1035F00000F0A8FA002CEAD03846A047E7E72846B2
:103600003146FCF7DBFF431CECD02268536898423C
:1036100034BF1B1A00235360F8BD00BFDC0D00202F
:103620004FF06043D3F8802ED2070CD5D3F8003E7C
:10363000DB0700D470474FF060431A680AB900BF37
:10364000F9E7C2B21A707047104B114A23F0030316
:1036500010B54FF4805013600E4900225A801A7141
:103660001A180A60012118801080508011710A4ACE
:103670000A481360FCF7D7FF38B1094C14F8010F62
:1036800010B1FFF7CDFFF9E700BE10BD5F8200204B
:10369000EC0D0020E40D0020E00D0020E80D0020DE
:1036A000C4DE00002DE9F8430446002800F0A180A4
:1036B000830707D0504D15F8010F10B1FFF7B0FF89
:1036C000F9E700BE4D4D2E68B44209D34C4B1B6840
:1036D0009C4205D24A4B1A68984694420AD20FE09F
:1036E000484F17F8010F10B1FFF79AFFF9E700BE36
:1036F000B442EFD2FCF7F6FFBDE8F843FCF7F7BFA2
:1037000041480021FCF7AAFF14F8043CA4F1080684
:103710003BB93E4F17F8010F10B1FFF781FFF9E7F2
:1037200000BE3B4F002304F8043C3B682D689E42DA
:1037300038BF3E60AE4208D2DFF8D89019F8010FCA
:1037400010B1FFF76DFFF9E700BED8F800804645DD
:1037500008D3DFF8C49019F8010F10B1FFF760FF2C
:10376000F9E700BE14F8043C43B1DFF8B09019F853
:10377000010F10B1FFF754FFF9E700BE34F8083C21
:10378000B3F5805F08D9DFF8989019F8010F10B1F0
:10379000FFF746FFF9E700BE34F8082CAB189E424D
:1037A0000FD0197969B943450BD03968994204BFE4
:1037B000174B1E60AB5A24F8083CAB5A721B2B44C3
:1037C0005A8034F8062CAB18B3420DD0197959B988
:1037D0003968B14204BF0E490B6034F8083CAB5263
:1037E00034F8083C1D446A800748BDE8F843FCF7FC
:1037F00055BFBDE8F88300BFDFDE0000EC0D002000
:10380000E40D002000DF0000E80D002017DF0000BD
:10381000E00D00202BDF000042DF00005CDF000035
:1038200077DF00002DE9F0414FF6FC7503310D40C4
:103830000B2D044603D9B5F5805F01D932E00C2584
:10384000384B1E689846B44208D3374B1B689C42DD
:1038500004D2354B1B689C420FD309E0334F17F855
:10386000010F10B1FFF7DCFEF9E700BEB442F0D261
:10387000FCF738FFFCF73BFF3EE0A4F1080334F807
:10388000087C9E1BB6B2083FBF1BBFB2BD420CD91D
:10389000274C14F8010F10B1FFF7C2FEF9E700BE84
:1038A000BDE8F0810020BDE8F08125D0002121484D
:1038B000FCF7D4FED8F8003034F8081C5818027908
:1038C000EAB95F5A1C4906F1080215440A68ADB20C
:1038D000824203EB050208BF0A60002111715F53A9
:1038E000568024F8085C5A5BB2F5805F1CBF9B18B9
:1038F0005D801048FCF7D2FE2046BDE8F08105F15E
:103900001402BA42F5D80C4806F1080215440768BB
:10391000ADB25A19BA4238BF026000201071595333
:10392000DEE700BFEC0D0020E40D0020A1DF000069
:10393000B8DF0000E80D0020E00D00202DE9F04187
:10394000002800F088804FF6FC75033005400B2DF1
:1039500003D9B5F5805F01D97CE00C2500213F48F3
:10396000FCF77CFE3E4E3F48316807687B1A9BB2ED
:10397000C5F5805293426ADACC1894F804C031F845
:1039800003E0BCF1000F60D1AEF10802D21AAA42E6
:103990005BD305F11408424515D305F108021A441A
:1039A00092B201EB020888F804C021F802E0A8F8FE
:1039B00002300123228023718B5AB3F5805F04D03B
:1039C00019444A8001E001232371BC42264F16D1DD
:1039D0002346396836681A7922B18B4202D01B8897
:1039E0003344F8E7396803608B4208D03AB11F4E80
:1039F00016F8010F10B1FFF713FEF9E700BE1748E4
:103A0000FCF74CFE08353B682544AB4207D2184D05
:103A100015F8010F10B1FFF703FEF9E700BEA30789
:103A20000FD0144D15F8010F10B1FFF7F9FDF9E7AC
:103A300000BE114D15F8010F10B1FFF7F1FDF9E7C8
:103A400000BE04F10800BDE8F081734690E703482A
:103A5000FCF724FE0020BDE8F08100BFE80D002047
:103A6000EC0D0020E00D0020E40D0020D8DF000068
:103A7000F1DF000021E0000050E000004FF0604363
:103A8000D3F8802ED2070CD5D3F8003EDB0700D444
:103A900070474FF060431A680AB900BFF9E7C2B235
:103AA0001A70704770B50D4B0D4823F003030021C9
:103AB0000C4C002234F8114040F8042F4E0095B20F
:103AC000A54207D2056801321D60074D0360755B92
:103AD0002B44F4E701310F29EAD170BDF30D00202A
:103AE000442D002074E00000FEE000000E2870B5B8
:103AF000054608D9104C14F8010F10B1FFF7BEFFAE
:103B0000F9E700BE70BDFCF7EDFD0C4B064653F81F
:103B1000254064B1226843F82520A30707D0084D4B
:103B200015F8010F10B1FFF7A9FFF9E700BE304605
:103B3000FCF7DDFD204670BD91E00000482D00201F
:103B4000AEE0000070B505460C46002933D08B0767
:103B500007D0194E16F8010F10B1FFF78FFFF9E7E4
:103B600000BEFCF7BFFD154B0646194653F825204D
:103B70000020226043F8254051F820205AB11368F4
:103B80004BB19A4201D10E4C09E01B68126803B197
:103B90001B68002AF4D101300F28EDD106E014F89B
:103BA000010F10B1FFF76AFFF9E700BE3046BDE82C
:103BB0007040FCF79CBD70BDD1E00000482D002096
:103BC000F1E000007047000070B505460C46E1B119
:103BD0000A6843689A4217D00D4B186840B10268D2
:103BE0006B68C6689A4201D101F07EFA3046F5E76B
:103BF000084B1B6843B11A6822B169688A4204BF46
:103C000022681A60DB68F5E724686C6070BD00BF4D
:103C1000809200208892002070B5154606461C460A
:103C2000FFF7D2FF05B12D68B56004B12468F460D8
:103C300070BD0000F8B5079E0446D6B9224D15F8B0
:103C4000010FA8B14FF06047D7F880EE1EF0010FCA
:103C5000F5D0D7F8007EFF07F1D54FF06047D7F8D1
:103C600000E0BEF1000F01D100BFF6E73870E6E7D3
:103C700000BE0698154FE0613878002500F1010E6E
:103C800084F83000089865602061A5602046E560F2
:103C900084F82D502562656387F800E0FFF7BCFFCC
:103CA0002046B04760B90A4B20461A6822601C6063
:103CB00094F92D30AB4205DAFDF77CFC2046F8BDC7
:103CC0002846F8BDF8BD00BF1BE10000842D002090
:103CD0007092002001B10968C160704701B10968A4
:103CE00081607047014B1860704700BF74920020DC
:103CF00010B590F82D300446D90713D443F00102D3
:103D000080F82D20DA060DD59B0602D5011DFCF7A3
:103D100021FE94F92D30002B04DA2046BDE8104036
:103D2000FDF726BC10BD90F82D30D90707D523F03C
:103D300001019B0680F82D1001D5FCF7F7BD7047F7
:103D400010B5FCF7CFFC094B00221A70FCF7CFFC32
:103D5000074B1C6844B1606F20B100F061FD002387
:103D6000636710BDE468F5E710BD00BF78920020DE
:103D7000809200204FF06043D3F8802ED2070CD5FC
:103D8000D3F8003EDB0700D470474FF060431A6859
:103D90000AB900BFF9E7C2B21A70704738B50C4DC6
:103DA000FCF7A0FC2C780123E4B22B70FCF79FFCFD
:103DB00064B908482146224604F078FF30B1FCF788
:103DC00091FC2C70BDE83840FCF791BC38BD00BFB9
:103DD00078920020413D000070B5049E032805D86C
:103DE000DFE800F01002120622240EE0134C01E07E
:103DF00000240AE014F8010F10B1FFF7BBFFF9E748
:103E000000BE70BD362400E00E24E51CBDF8140091
:103E100025F00304651885424FF000000DDC1860A2
:103E200016B134445C6000E05E60022058731846AE
:103E30001A73012219815981DA8170BD32E10000C3
:103E400010B540B9224C14F8010F10B1FFF792FFE2
:103E5000F9E700BE10BD002938D00BDA4A42438989
:103E600092B2934207D21B4C14F8010F00B3FFF734
:103E700081FFF9E78AB2047B43680CB1032C05D1BA
:103E80005B1A00F11002934214D21DE0013C012C98
:103E900001D9114C06E0002916DA4489944213D363
:103EA0005B1A07E014F8010F10B1FFF763FFF9E7A1
:103EB00000BE09E04360438989B20B444381038912
:103EC00019440181002010BD012010BD084610BD1D
:103ED00084E2000056E1000074E100002DE9F041A9
:103EE000044648B92A4C14F8010F10B1FFF742FFFD
:103EF000F9E700BEBDE8F081037B032B07D9254D10
:103F000015F8010F10B1FFF735FFF9E700BE0027E4
:103F1000FDB2A4B1FCF7E6FBE38980463BB91E4E37
:103F200016F8010F10B1FFF725FFF9E700BEE6898B
:103F30004046013EB6B2E681FCF7D9FB16B12846F1
:103F4000BDE8F081627B26689207237B0DD523694B
:103F50003BB9124D15F8010F10B1FFF70BFFF9E750
:103F600000BE2369204698470FE09BB2032B01D186
:103F70000E2003E0013B012B04D80D202146FFF762
:103F8000E1FD02E02046FFF78DFB01373446BFE735
:103F900084E2000082E1000097E10000ADE1000052
:103FA0002DE9F0410E461746032805D8DFE800F05A
:103FB0001002120622250EE0634C01E000250AE003
:103FC00014F8010F002800F0B480FFF7D3FEF7E7E4
:103FD000362500E00E25032F03D8DFE807F07C9795
:103FE00097045A4C9FE00E20FFF780FD044610B95D
:103FF000FFF7D4FEA4E003230373002303604319F7
:10400000033525F00305C5F51475B542A8BF35463F
:10401000133323F00303458100F518771D44AF42A5
:104020004360068107D24A4D15F8010F10B1FFF722
:10403000A1FEF9E700BEA04661890123E381761A5B
:10404000002E79DD0E20FFF751FD0023054628B92B
:10405000FFF7A4FE2046FFF741FF49E043730360EA
:104060004FF6FF7303229E420273C8F8000008D186
:10407000DFF8E08018F8010F10B1FFF77BFEF9E7D9
:1040800000BEB3B2B3F5147F2B8128BF4FF4147375
:104090006B8105F110036B609B0708D0DFF8B880D7
:1040A00018F8010F10B1FFF765FEF9E700BE63894C
:1040B000626813449F4208D2DFF8948018F8010F19
:1040C00010B1FFF757FEF9E700BE0123EB816B89C2
:1040D000A846F61AB4E705F11300F31C23F0030316
:1040E00020F00300184480B2FFF728FC044610B902
:1040F0000020BDE8F08105441335002325F00305B9
:104100004560068146810360037315E00D20FFF7CB
:10411000EDFC04460028EBD0002343600681468175
:104120000360077308E014F8010F10B1FFF722FED7
:10413000F9E700BEBDE8F0810123E381002363734A
:104140002046BDE8F08100BFCEE10000E9E10000BB
:1041500004E2000035E2000049E20000F8B50D4637
:10416000044638B92B4E16F8010F10B1FFF702FEC6
:10417000F9E700BE237B032B07D9274E16F8010F62
:1041800010B1FFF7F7FDF9E700BE2689B5423FD22F
:10419000AE1B63899D421CD9ED1A4FF6FE739E42F9
:1041A000ADB207DD1D4F17F8010F10B1FFF7E2FDAB
:1041B000F9E700BE2389334423812468002CE8D129
:1041C000174F17F8010F10B1FFF7D4FDF9E700BE44
:1041D000DFE7227BA2B99D4212D061682046091B0D
:1041E000294489B2FFF71EFB044648B90D4C14F868
:1041F000010F10B1FFF7BEFDF9E700BE4081FFDE01
:1042000020686581258108B1FFF768FE00232360DF
:10421000F8BD00BF76E200008EE20000A9E20000D7
:10422000BAE20000D2E2000003460022D0B201321E
:104230000BB11B68FAE7704710B5044640B1FCF7B4
:1042400051FAE3890133E381BDE81040FCF74FBA2E
:1042500010BD000070B50D46044600B141B9164CC2
:1042600014F8010F10B1FFF785FDF9E700BE70BD2E
:1042700022682AB1238929890B4423811446F7E750
:10428000228963899A4207D00C4E16F8010F10B1AB
:10429000FFF770FDF9E700BE23683BB1084E16F842
:1042A000010F10B1FFF766FDF9E700BE2A892389E7
:1042B00025601344238170BDEEE2000023E300007B
:1042C00050E3000010B50C46FFF7C4FF2046BDE8E0
:1042D0001040FFF7B1BF00002DE9F0410C46064643
:1042E00040B139B102890B899A4203D34FF00008DB
:1042F00047461CE0374C14F8010F00284CD0FFF75C
:1043000039FDF8E700BE6389434573899CBF246883
:104310004FF00008BB4235D01CB1628923899A4214
:104320003FD0728933899A4245D0002C4FD073898F
:104330006589DB1BC8EB0505AB4270686168B4BFDB
:104340009DB2ADB2384441442A4608F00BF82F44E0
:104350007389BFB24544BB421FFA85F807D21E4D90
:1043600015F8010F10B1FFF705FDF9E700BE6389ED
:104370004345C8D2194D15F8010F0028C2D0FFF7E8
:10438000F9FCF8E7366856B90CB3154C14F8010F70
:1043900010B1FFF7EFFCF9E700BEF22417E00027A9
:1043A000BAE72368002BBCD00E4C14F8010F60B1A3
:1043B000FFF7E0FCF9E73368002BB6D0094C14F89E
:1043C000010F10B1FFF7D6FCF9E700BEFA2460B286
:1043D000BDE8F08197E30000C7E30000DEE30000E2
:1043E000F9E3000006E400002DE9F8438846914611
:1043F000064630B91D4C14F8010F68B1FFF7BAFC3E
:10440000F9E711B10024274611E0194C14F8010F07
:1044100010B1FFF7AFFCF9E700BEBDE8F8830EB3BB
:104420004BB171898B4206D35B1A9BB23668B9F1E6
:10443000000FF4D116E072897168D21A95B24D4519
:1044400028BF4D4608EB070019442A462C442F4448
:10445000C5EB090507F086FFA4B2BFB21FFA85F9C4
:104460000023E3E72046BDE8F88300BF31E4000005
:1044700050E400002DE9F84380464368174E93F856
:104480000990346800271CB3237C4B4517D123685F
:104490001BB1134A1268934211D165697DB1A069BD
:1044A000214642460F4BA84768B157B1E368012047
:1044B000FB6033684FF00008E360346003E00020E5
:1044C00001E0B8460120E368274620B91C46DAE738
:1044D0002046BDE8F8830120BDE8F883882D002040
:1044E000208200201882002001B1096801600020AC
:1044F0007047416182617047094A014613688342EF
:1045000009D1C368136008E0DA681AB18A4204BFAF
:10451000CA68DA60DB68002BF6D10020FFF712BB17
:10452000882D002038B505460020FFF7DFFA044645
:1045300050B11C22002107F020FFFF23A372034B80
:1045400025741A681C60E260204638BD882D002062
:104550006FF009007047000030B5114A4FF48040F9
:1045600013884FF6FF718B421ABF01339BB24FF491
:10457000404300210B4C54F82140246854B1658B12
:104580009D4205D1013880B20028EAD1138030BDA8
:10459000E468F3E701310429ECD11380184630BDFB
:1045A00004000020E8E400004FF06043D3F8802EC0
:1045B000D2070CD5D3F8003EDB0700D470474FF08C
:1045C00060431A680AB900BFF9E7C2B21A707047AF
:1045D00070470000F8B5037E04460D464BB1214CF0
:1045E00014F8010F10B1FFF7DFFFF9E700BEFA2062
:1045F00035E0037A13F0040F0CBF042703271AB920
:10460000FFF7AAFF024638B30021174B53F82130B9
:104610001B688BB1588B90420CD1207A460702D58B
:10462000187A400706D41E68C6B1BDB12868A8B183
:10463000864213D0DB68ECE70131B942E5D115B110
:104640002B6803B12360094B62831A681C60E26027
:10465000FEF7F2FE002002E0FE2000E0F82040B26B
:10466000F8BD00BF04E50000E8E4000090920020DF
:1046700038B5037E054643B12B4C14F8010F10B139
:10468000FFF792FFF9E700BE38BD037A5B070ED54E
:10469000264B1B685BB1598B6A8B914205D1196817
:1046A0002A68914201D1002038BDDB68F2E703207F
:1046B000FFF71CFA04460028F5D02B6903616B8BC9
:1046C0004383012303766B7E43762B7A43F0020308
:1046D0000372AB7A83726B7A43722B6803606B8BC5
:1046E000A3B1134A1368AB4201D1EB680BE0114A46
:1046F000136043B1D968A94203D11360EA68DA6054
:1047000002E00B46F5E713600023EB600220294628
:10471000FFF718FA084B6361044B1A681C60E260EB
:10472000FEF78AFE204638BD2CE500008892002066
:10473000909200208C92002051450000818D036BE7
:10474000C28E70B5856A0446C81AB2F5866F2844D1
:1047500094BF821AA0F58662002A01DBE18570BD54
:10476000EA1A002A02DD0020E08570BD5D1BB5F568
:10477000803F07D3054E16F8010F10B1FFF714FF65
:10478000F9E700BEE585002070BD00BF4EE50000E2
:10479000037E70B5012B04460D4607D1174E16F85F
:1047A000010F10B1FFF700FFF9E700BEA38DC3F5BD
:1047B0007F43FF339D4207DD114E16F8010F10B104
:1047C000FFF7F2FEF9E700BEA18D2046294489B229
:1047D000B1F5066F8ABF4FF40663A185A385FFF785
:1047E000ADFFB0F5067F08DBA37F204643F0020350
:1047F000A377BDE8704002F087BB70BD68E500009C
:104800008EE5000010B5044648B1406808B1FFF7D6
:1048100065FB2146BDE810400420FFF793B910BDA9
:1048200010B520B10468FFF7EDFF2046F9E710BD91
:1048300038B504460420FFF759F9054660B1204613
:104840002B4604F1100250F8041B904243F8041B5D
:10485000F9D16868FFF7F0FC284638BD0161704760
:10486000037E70B5012B04460E4607D1054D15F8A1
:10487000010F10B1FFF798FEF9E700BEC4F88060A1
:1048800070BD00BFB2E50000037E70B5012B044689
:104890000E4607D1044D15F8010F10B1FFF784FE45
:1048A000F9E700BEE66770BDD9E50000037E70B58C
:1048B000012B04460E4607D1054D15F8010F10B126
:1048C000FFF772FEF9E700BEC4F88C6070BD00BF50
:1048D00000E6000041617047F8B5037E0446012BF5
:1048E0000F46164607D1064D15F8010F10B1FFF718
:1048F0005BFEF9E700BE84F82060C4F88870F8BD5C
:1049000026E6000038B5037E0446012B19D90A2B90
:1049100017D0806F18B1FFF7E1FA0023A367606F2B
:10492000FFF77EFF4FF6FF730025A386E06E6567F5
:10493000FFF776FF206FFFF773FFE5662567A4F8A2
:104940006A5038BD2DE9F74FAD4E336801333360FF
:10495000AC4B99461A7801321A70AB4B4FF0000AF3
:1049600098461C68002C00F06381237E3BB9A74D5C
:1049700015F8010F10B1FFF717FEF9E700BE237E0F
:10498000012B07D1A24D15F8010F10B1FFF70CFE56
:10499000F9E700BE237E0A2B07D19E4D15F8010FC3
:1049A00010B1FFF701FEF9E700BE99F8003094F866
:1049B00021209A4201D1E768FDE0217E84F8213070
:1049C000022994F8462001D1062A51D00C2A4FD052
:1049D00094F89530CBB1904994F894201944013261
:1049E00011F8011CD2B2914284F894203ED8062BD3
:1049F0004FF0000298BF013384F8942098BF84F8E8
:104A00009530204602F0CAFC30E0A38E18045CBF4B
:104A10000133A386236F4BB3B4F93400B4F94430A7
:104A2000984223DB02290AD0B4F94010B4F942308D
:104A300003EBE10379498A5C9340A4F844300023F6
:104A4000B4F84C20A386B4F860302046934228BFC7
:104A50001346E28E5B0851008B42A4F84E30A4F856
:104A60004C20B8BFA4F84E1002F008FC002500E06E
:104A70000125227E062A09D1A37FDB0606D53368ED
:104A8000616A5B1A282B84BF0135EDB2237A03F0EB
:104A9000080303F0FF0743B3042A01D0072A23D1F8
:104AA000636A31684FF4FA70C91AD4F8903003F58C
:104AB000242202F6B842B2FBF0F2914203D901354A
:104AC000EDB2012711E094F89620554F07FB023311
:104AD000B3FBF0F3994207D9204602F036FC94F874
:104AE0009630013384F896300027606F60B13368E8
:104AF000626AB4F944109A1A06234B439A4203D3CC
:104B0000FFF78EFE00236367237E032B07D13368F4
:104B1000626A9B1A282B09D90135EDB206E0092BF0
:104B200004D13368626A9B1AF02B01D8002D44D05F
:104B30002046FFF7E7FED8F80030BAF1000F0DD09D
:104B40009C4207D1374D15F8010F10B1FFF72CFD2E
:104B5000F9E700BEE368CAF80C300CE0A34207D0C6
:104B6000314D15F8010F10B1FFF71EFDF9E700BE3A
:104B7000E368C8F800304FB1638B22460093A38BE3
:104B80000193206DA16A231D02F022FBD4F88C5002
:104B9000D4F810B0E76821460220244CFEF7D2FF7B
:104BA000002323701DB158466FF00901A8472378F0
:104BB000002B7FF4D2AE54461EE0E37F94F8202011
:104BC0000133DBB29A42E768E37715D8DFF85CA0DF
:104BD000D4F88830E5778AF800501BB12069214667
:104BE000984700E028469AF80030002B7FF4B5AED5
:104BF00010B9204602F088F9A2463C46B2E600BF52
:104C0000849200208D2D00208092002044E6000038
:104C10006EE6000098E60000B3E80000F8E400004B
:104C2000F8240100C5E60000F0E600007C920020B8
:104C3000224F3D68002D3ED02B7E0A2B08D0DFF896
:104C4000808018F8010F10B1FFF7AEFCF9E700BE45
:104C500033686A6A9B1AF02B04D8D5F80C802C466E
:104C60004546E7E72846FFF74DFE74B13B689D4295
:104C700008D1DFF8508018F8010F10B1FFF794FC4D
:104C8000F9E700BEEB68E3600DE03B68AB4208D09B
:104C9000DFF8348018F8010F10B1FFF785FCF9E751
:104CA00000BEEB683B6029460220D5F80C80FEF779
:104CB00049FF2546D3E703B0BDE8F08F949200206A
:104CC0001AE7000049E7000070E7000038B5036804
:104CD0000C468B4202D1CB6803600CE0214A136082
:104CE00043B1D968A14203D11360E268DA6002E0FF
:104CF0000B46F5E713600023E3602046FFF702FE52
:104D0000237E0A2B0AD0012B08D0A37FDA0705D512
:104D100043F00203A377204602F0F6F8237E012B2E
:104D20001DD0E36E3BB1104D15F8010F10B1FFF728
:104D30003BFCF9E700BE236F3BB10C4D15F8010FAA
:104D400010B1FFF731FCF9E700BE636F3BB1084DCE
:104D500015F8010F10B1FFF727FCF9E700BE00239B
:104D6000237638BD8C92002096E70000AEE7000065
:104D7000C7E7000037B5037E044600294BD0042B5B
:104D800001D0072B47D1A26F1AB9A28DB2F5066FD9
:104D900041D0A37FDB0607D4414D15F8010F10B1B8
:104DA000FFF702FCF9E700BE638B22460093A38B5A
:104DB000206D0193A16A231D02F00AFA2046FFF735
:104DC000A1FD384A1368A34201D1E3680BE0364ADB
:104DD000136043B1D968A14203D11360E268DA607D
:104DE00002E00B46F5E71360304B01221A70237E78
:104DF0000025042BE56008D10A2323762C4B1A6882
:104E00001C60E260FEF718FB46E002202146FEF738
:104E100099FE284641E0072B3ED8DFE803F0041C4A
:104E2000222E2E3D3D34638B13B3224A1368A342D6
:104E300001D1E3680BE01C4A136043B1D968A14279
:104E400003D11360E268DA6002E00B46F5E7136015
:104E50000023E3600CE018482146FFF737FF0320EA
:104E600007E010482146FFF731FF104B01221A706E
:104E700002202146FEF766FE0EE0204601F0F4FF18
:104E800058B9052304E0204601F0EEFF28B90923B4
:104E90002376204602F038F8002040B203B030BD3F
:104EA000DEE70000809200208C9200207C9200209F
:104EB000949200209092002088920020037E01218D
:104EC000012B1EBF837F43F010038377FFF752BF90
:104ED00010B50846144632B11189FFF759FC204637
:104EE000FEF7FCFF04E01BB9BDE81040FFF7E6BF8A
:104EF000002010BDF8B5856FD0F8806000236F7B6F
:104F00000446836726B121462A460069B04705E07A
:104F1000304621462A463346FFF7DAFF98B9BB06EA
:104F200015D5A38DD4F88050B3F5066F1CBF01339F
:104F3000A38565B10022206921461346A8470A309F
:104F400005D1F62004E040B20A30FAD0A56700206F
:104F500040B2F8BDF8B5164B1D461A7801321A70EA
:104F6000144B1C682B780CB394F821209A42FAD089
:104F700084F82130A37FDA0709D543F00203A37731
:104F8000204601F0C1FFA37F23F00303A377A36FA3
:104F9000E7680BB93C46E5E7074E0023204633702F
:104FA000FFF7A8FF3378002BF4D0D9E7F8BD00BF96
:104FB0008D2D0020809200207C92002008B5FFF704
:104FC000C9FF064A13780133DBB21370DB0703D540
:104FD000BDE80840FFF7B6BC08BD00BF8C2D00201F
:104FE000037E70B5012B054614461CD061B1837F4A
:104FF00043F0100383770AB1012110E0806FA0B164
:10500000FEF76CFFAC6710E07AB1033BDBB2042B18
:1050100009D8012202FA03F313F0130F03D0BDE8FD
:105020007040FFF7A7BEF32200E0002250B270BD2F
:10503000037E2DE9F743012B0446894607D1264D0F
:1050400015F8010F10B1FFF7AFFAF9E700BE237EA4
:105050000A2B0AD121462148FFF738FE21460220BB
:1050600003B0BDE8F043FEF76DBD1D482146D4F8FE
:105070005080A76AD4F88C502669FFF727FE194B99
:10508000206F01221A7008B1FFF7CAFBE06E08B169
:10509000FFF7C6FB606F08B1FFF7C2FBB9F1000F65
:1050A00009D0638B40460093A38B39460193224677
:1050B000231D02F08DF802202146FEF743FD3DB18D
:1050C00030462B466FF0090103B0BDE8F0431847A6
:1050D00003B0BDE8F08300BFF7E700009492002022
:1050E000809200207C9200200121FFF7A1BF0000E8
:1050F000034A044B1868136818441060704700BFD7
:105100000800002084920020F8B505460220FEF732
:10511000EDFC384E0446002831D1374B31681B680E
:105120003BB15A6A8A1AA24224BF18461446DB6869
:10513000F6E708B1FFF7D8FF0220FEF7D7FC0446D8
:10514000E8B92E4BD6F800E01B687F2773B1597E73
:10515000A94209D8B94207D85A6AC2EB0E02A24244
:1051600022BF0F4614461846DB68EFE708B1FFF789
:10517000BBFF0220FEF7BAFC0446002838D000210D
:105180009822204607F0F9F840F66603A4F8663046
:105190004FF40663A385E385FF23A3724FF40673E0
:1051A000E3860623A4F84430A4F842304FF6FF7398
:1051B0006576A38600250123A4F84C30A4F8685036
:1051C0006572A4F84050FFF793FF3368A0656362EF
:1051D0000B4B20651B78A06484F82130094BE065F7
:1051E000C4F88030084BE577C4F8903084F89650C6
:1051F0002046F8BD849200209492002080920020E6
:105200008D2D0020D14E000000DD6D004020FFF705
:105210007BBF10B504460846FCF714FB30B1838C05
:1052200023B1283B9BB29C4228BF1C46204610BDA0
:10523000F8B5C368054698890C46FDF7B4F8C2076F
:1052400020D52046FFF7ECFA002428E0154BE6684D
:1052500019682A8973682789D01A0844C01B002856
:1052600013DBB089FDF79FF8C30706D5EF6801206F
:10527000BE89FDF795F83043B88126682046FFF7D0
:10528000C1FA3446002CE1D109E00A44D21A002ABE
:1052900005DD591A89B229816868FEF75FFF2C6025
:1052A000F8BD00BF902D00204FF06043D3F8802E52
:1052B000D2070CD5D3F8003EDB0700D470474FF07F
:1052C00060431A680AB900BFF9E7C2B21A707047A2
:1052D0002DE9F84F037E0446032B07D8A04D15F89F
:1052E000010F10B1FFF7E0FFF9E700BE9D4B9E4EA6
:1052F0001B7813F0100F00F0AD81636D3168B4F8C6
:105300006070581A0028A26D984D0DDB8B4203D1B6
:105310002B68D31A002B07DB2B689A421ED1944BC3
:105320001B68DB89BB4219D9914BB4F862001B683A
:10533000DB89616529689842A165A4F8603038BFAF
:10534000A4F8623094F8951023B939B984F89430F0
:10535000012301E011B1002384F895302968A06C85
:105360000B1A002B34DC0023A4F86430814B1B881B
:10537000002B40F08684B4F860E0A36D3A44734497
:10538000934240F07E84B4F93430002BC0F279842B
:10539000884240F0768494F84720531CDBB2934255
:1053A00088BF84F8473094F84730032B0AD9B4F803
:1053B0004C20E38E13449BB2934240F2CB80A4F87E
:1053C0004C30C7E040F0C680204601F096FFC1E0B7
:1053D000226D8A1A002A00F39A80A27FB4F94070E5
:1053E000500742BF22F00402A277B4F84E209BB2CD
:1053F00048BFA4F84C20B4F84220A4F8643002EB73
:10540000E702A4F84420B4F8662000201344A4F86E
:105410006630237E84F84600032B84F84700A1649D
:105420002FD9B4F84C20B4F84E309342E38E9CBF91
:105430005B4393FBF2F313449BB2934221D9A4F84C
:105440004C301EE000BEB4F864305BB1FB68988954
:10545000FCF7A9FFC20742BFB4F8643003F1FF3381
:10546000A4F864307868FEF7DFFEB4F86830181AE4
:10547000A4F868003846FFF7C5F9B4F86830002B87
:1054800033D1236F3BB9226F0023002A3CD14FF662
:10549000FF72A28639E0DB685868FCF789FF236F4A
:1054A0000746B3F80880DB689889FCF77CFF2B6817
:1054B00010F0030018BF0120FF1A404438440028B0
:1054C000E1DC276FB4F868803B6878682367FEF7F3
:1054D000ABFE80B28045B6D2DFF8A08018F8010F8D
:1054E0000028AFD0FFF7E0FEF8E7236F002BC8D10C
:1054F000E36E002BC5D1204F17F8010F10B1FFF755
:10550000D3FEF9E700BEBCE7A386E37722E00023E1
:10551000A4F864301EE000BEB4F864305BB1FB68F0
:105520009889FCF740FFC30742BFB4F8643003F129
:10553000FF33A4F864307868FEF776FEB4F868307C
:10554000181AA4F868003846FFF75CF9B4F8683018
:10555000002B49D1E36E9BB9A16B002953D179E0AF
:10556000B9E80000A02D0020902D00209C2D0020E7
:10557000A42D0020982D0020FAE80000D2E80000B9
:10558000DB682F685868FCF713FFE36E8146B3F8B9
:105590000880DB68C9EB07079889FCF704FF10F067
:1055A000030018BF012040443F1A002FD4DBAA4B50
:1055B000226D1B689B1A002BCEDCE76E3B68E3660E
:1055C0000BB9A4F86A307868B4F86880FEF72CFE4E
:1055D00080B28045A0D2DFF8988218F8010F002829
:1055E00099D0FFF761FEF8E7236F002BB2D1E36E8D
:1055F000002BAFD1994F17F8010F10B1FFF754FEF0
:10560000F9E700BEA6E7E36B2A689B1A002B21DAB4
:10561000934AB4F840301268521A43F3CC01521A3C
:1056200092B291B20804134444BF524291B2B4F80A
:1056300042209BB242F38D00121A0A4492B2A4F89F
:10564000403043F3CC031344A4F844300023A4F8BF
:105650004220A363834FA26A3888002800F00183A8
:10566000237E062B00F2FD823368D51A012D6ED4FD
:10567000511CC91A091A002969DC7B4BAA46D3F8C8
:1056800004909846B9F1000F08D1DFF8E8B11BF893
:10569000010F10B1FFF708FEF9E700BE47F6FE73F1
:1056A0009D4208DDDFF8D0B11BF8010F10B1FFF704
:1056B000FBFDF9E700BED8F804004389AB422CDAC1
:1056C0000389AB4208DADFF8B4B11BF8010F10B15F
:1056D000FFF7EAFDF9E700BED8F8043019894D1B41
:1056E000ADB2B9F80A30534509DAC3EB0A0A002310
:1056F000A9F80850A9F80A30D9F80090F1E7CAF1E2
:105700000001484609B2FEF79BFB98B1574D15F8CA
:10571000010F70B1FFF7C8FDF9E7694209B2FEF762
:105720008FFB38B1514D15F8010F10B1FFF7BCFDDB
:10573000F9E700BEB8F808303168A26A0B449B1A3A
:10574000A8F80830D8F80C3032605A6006E09B1A8E
:10575000002BBEBFA37F43F00203A3773268A16A88
:10576000531A002BC0F27882531CA08D5B1A1B1AAF
:10577000002B00F37182914240F08F813A4DEB682B
:10578000B5F808809889FCF70EFE10F0030018BFEA
:1057900001204044A38D80B28342388048D2EB6818
:1057A0009889FCF700FEC20710D5D5F80C90B9F81F
:1057B0000C804046FCF7F7FD00F03E00FCF7F0FDE2
:1057C00028F47C5840EA0800A9F80C00A38DDFF803
:1057D00098802B81EB689889FCF7E5FD830748BF2B
:1057E000B8F80830686844BF03F1FF33A8F8083000
:1057F0002989FEF7B3FCEB68B5F808809889FCF7B7
:10580000D2FD10F0030018BF01203368404480B27D
:105810003880A28D1844A36A1344984208D0DFF858
:10582000608018F8010F10B1FFF73EFDF9E700BEE8
:10583000636F002B00F09F80EB689889FCF7B3FD45
:10584000C0071FD5606F002800F09580036863676C
:10585000FEF7D8FFF6E700BF9C2D0020FAE8000015
:1058600084920020982D0020AC2D002049E90000F2
:10587000D2E800001AE900002AE9000039E9000036
:105880005CE90000D4F87480B8F1000F71D0D8F84A
:105890000CE03B88DEF804203068991AB8F808C09C
:1058A0000144CCEB010100292DDBBEF80C00FCF714
:1058B0007AFDC10720D5EB68DFF8B8929889FCF72C
:1058C00072FD820718D4D9F80CB00120BBF80CA0E7
:1058D000FCF766FDD9F80C3040EA0A00ABF80C0082
:1058E0009889B9F808A0FCF75EFD10F0030018BF16
:1058F00001209E4B50441880D8F800904046FEF797
:1059000081FFC846C0E703449B1A002B31DDEB68DA
:10591000121A98892A81FCF746FDDFF8589283070E
:1059200048BFB9F80830686844BF03F1FF33A9F8ED
:1059300008302989FEF712FCEB68B5F808909889C1
:10594000FCF731FD10F0030018BF01203368484414
:1059500080B238801844D8F80C305B68984208D080
:10596000DFF8209219F8010F10B1FFF79DFCF9E75D
:1059700000BEC4F874803F8833683B44A362A38DA3
:10598000BB4208D2DFF8008218F8010F10B1FFF710
:105990008BFCF9E700BEA38D2046DB1BA385FEF739
:1059A000CDFE6B681A8922B1714A1360714B0022D7
:1059B0005A60EB689889FCF7F6FCC5072FD56E4A4C
:1059C000137843F02003137029E000BEEB682F89A1
:1059D0009889FCF7E8FC10F00300A38D18BF0120A4
:1059E0003844181AA0852046FEF7A8FE69680B897E
:1059F000002B3FD1EB689889FCF7D5FCC00709D58F
:105A00005D4A137843F020031370237E042B04BFF8
:105A1000072323762B6828466367FEF7F3FE656F3E
:105A2000002D31D0EA68A16A53688B422CD190894D
:105A30002F893360FCF7B7FC10F00300A36A18BF8E
:105A4000012038441844EB68A0629889A78DB5F806
:105A50000880FCF7A8FC10F0030018BF01204044A8
:105A60008742B3DA454F17F8010F0028ADD0FFF792
:105A70001BFCF8E73E4B186810B1FEF7EBFB00E0AB
:105A8000196000236B60B5E7A37FD90702D523F027
:105A90000103F1E043F00103F0E0204601F006FAD3
:105AA000656F2DB93348FEF7C3FE6067BDE8F88F18
:105AB000334B4FF000081B6803F1FF3E03F1010C6C
:105AC000E8684268934212D12A482B8902899A4297
:105AD00040F2DB80FEF7ACFE002800F0D680B8F183
