:020000042000DA
:1000000000000120910100207F03002081030020D7
:1000100083030020850300208703002000000000E8
:100020000000000000000000000000008903002024
:100030008B030020000000008D0300208F030020B0
:1000400091030020930300209503002097030020D4
:10005000990300209B0300209D0300209F030020A4
:10006000A1030020A3030020A1080020C108002054
:10007000A9030020AB030020AD030020AF03002044
:10008000B1030020B3030020B5030020D90E0020E7
:10009000B9030020BB030020BD030020BF030020E4
:1000A000C1030020C3030020C50300203915002030
:1000B0002D160020CB030020CD030020CF0300200D
:1000C000D1030020D3030020D5030020D703002054
:1000D000D9030020DB030020DD030020DF03002024
:1000E000E1030020E3030020E5030020E7030020F4
:1000F000E9030020EB030020ED030020EF030020C4
:10010000F1030020F3030020F5030020F703002093
:10011000F9030020FB030020FD030020FF03002063
:10012000010400200304002005040020070400202F
:10013000090400200B0400200D0400200F040020FF
:1001400011040020130400201504002017040020CF
:10015000190400201B0400201D0400201F0400209F
:10016000210400202304002025040020270400206F
:10017000290400202B0400202D0400202F0400203F
:1001800031040020330400200000000000000000C3
:100190004FF0000BDFF8BE020068DFF8B612096806
:1001A00001F0030100F01C00142801D14BF0020BF8
:1001B000002901D04BF0010BBBF1000F05D0A7487F
:1001C000A749DFF8722200F09FF8A64880470BF09D
:1001D000020ABAF1000F0CD0DFF86E02DFF86E12DF
:1001E00002680B680FB44FF000024FF0FF0302608B
:1001F0000B609D489D4A9E4B022808D1DFF83E12B5
:100200000A60DFF842120A60DFF836120B6001283C
:1002100008D1DFF82E120A60DFF82A120A60DFF830
:100220001E120B609348002809D193489349944AC1
:1002300000F032F893489449944A00F02DF894481D
:100240009449954A00F028F894489549DFF8E6214A
:1002500000F05AF8BBF1000F12D092489249DFF833
:10026000DA2100F051F80BF0020ABAF1000F07D0C2
:100270000FBC02600B6000BFAFF30080AFF30080E3
:10028000DFF828020FF2030E00474FF000004FF096
:100290000001DFF81CF2FEE72DE9F841884225D085
:1002A000B2EB010200D5FEE740EA010313F00303BD
:1002B00002D000F01DF819E04FF000039046121133
:1002C000F7D09A421CBFF0C8F0C103F10103F8D186
:1002D00008F00F08B8F1000F08D004780C7000F196
:1002E000010001F10101B8F10108F6D1BDE8F88182
:1002F00008B54FF0000303780B7000F1010001F125
:100300000101013AF7D108BD884237D000F0030659
:10031000002E14D04FF00405A5EB06044FF008079B
:1003200007FB06F8914669FA08F9002C07D080F817
:10033000009069FA07F900F10100013CF5E74FF080
:1003400000060F46091A88460911914614461546BB
:10035000B14206D018BFA0E8340206F10106B1424E
:10036000F8D108F00F08B8F1000F07D002704FEA7B
:10037000322200F10100B8F10108F4E77047FEE70E
:10038000FEE7FEE7FEE7FEE7FEE7FEE7FEE7FEE745
:10039000FEE7FEE7FEE7FEE7FEE7FEE7FEE7FEE735
:1003A000FEE7FEE7FEE7FEE7FEE7FEE7FEE7FEE725
:1003B000FEE7FEE7FEE7FEE7FEE7FEE7FEE7FEE715
:1003C000FEE7FEE7FEE7FEE7FEE7FEE7FEE7FEE705
:1003D000FEE7FEE7FEE7FEE7FEE7FEE7FEE7FEE7F5
:1003E000FEE7FEE7FEE7FEE7FEE7FEE7FEE7FEE7E5
:1003F000FEE7FEE7FEE7FEE7FEE7FEE7FEE7FEE7D5
:10040000FEE7FEE7FEE7FEE7FEE7FEE7FEE7FEE7C4
:10041000FEE7FEE7FEE7FEE7FEE7FEE7FEE7FEE7B4
:10042000FEE7FEE7FEE7FEE7FEE7FEE7FEE7FEE7A4
:10043000FEE7FEE7704700000000A2A2A2A2008033
:100440000340088003401080034030800340348024
:1004500003403880034018080240000000F00020EC
:1004600000000120451800200000000000000000EE
:10047000010000000000000000000020000000203B
:1004800090010020C0040020C0040020301D002086
:10049000301D0020301D0020501D0020501D002068
:1004A000401E0020401E002000F00020611B0020A4
:1004B000C11A002000000000000000000000000041
:1004C00010B5054C237833B9044B13B10448AFF38E
:1004D00000800123237010BD501D0020000000008B
:1004E000101D0020084B10B51BB108480849AFF398
:1004F00000800848036803B910BD074B002BFBD0F0
:10050000BDE81040184700BF00000000101D00208B
:10051000541D0020301D00200000000080B483B076
:1005200000AF0346FB71094997F907305B09FA7977
:1005300002F01F02012000FA02F2603341F823208A
:100540000C37BD465DF8047B704700BF00E100E05A
:1005500080B483B000AF78600B46FB707B6803F01B
:1005600070427B68C3F313035B011344FA78920073
:10057000134403F100731A46012313600C37BD4680
:100580005DF8047B704700BF80B483B000AF786033
:100590000B46FB707B6803F070427B68C3F3130368
:1005A0005B011344FA789200134403F100731A4676
:1005B000002313600C37BD465DF8047B704700BF15
:1005C00080B483B000AF78600B46FB707B6803F0AB
:1005D00070427B68C3F313035B011344FA78920003
:1005E000134403F100731B68DBB218460C37BD4699
:1005F0005DF8047B704700BF80B584B000AFF86041
:10060000B9601346FB71FB68144A934204D0FB683F
:10061000134A934200D000BEFB79F868B9681A46C5
:1006200000F002FAFB681B68303318460321FFF71D
:10063000ABFFFB681B68343318460221FFF7A4FFA9
:10064000FB681B68383318460021FFF79DFFFB68E5
:10065000044A5A621037BD4680BD00BFF81D002015
:10066000B81D0020F10D002080B489B000AFF86003
:10067000B9607A600023FB61FB682A4A934204D088
:10068000FB68294A934200D000BEBB68002B00D112
:1006900000BE7B68002B00D100BEFB68214A93425C
:1006A00003D0FB68204A934237D1BB68002B34D07B
:1006B0007B68002B31D0FB681B681B7DFB74FB68DB
:1006C0005A7BFB7C1343DAB2FB685A73FB7C03F062
:1006D0002003002B1ED010237B617B680F2B01D8D9
:1006E0007B687B610023BB610CE0FB681B68B96819
:1006F000FA690A4412781A70FB690133FB61BB691D
:100700000133BB61BA697B699A42EED37A68BB69EF
:10071000D31A7B607B68002BCDD12437BD465DF8B2
:10072000047B7047F81D0020B81D002080B487B0FE
:1007300000AF7860396000237B617B68264A934272
:1007400004D07B68254A934200D000BE3B68002B52
:1007500000D100BE7B68204A934203D07B681F4AC9
:10076000934233D13B68002B30D03A687B69134405
:100770001B78FB7327E07B681B681B7DBB737B6862
:100780005A7BBB7B1343DAB27B685A73BB7B03F0A3
:100790002003002BEFD000233B610EE07B681B6839
:1007A000FA7B1A703B6901333B617B6901337B61E2
:1007B0003A687B6913441B78FB73FB7B002B02D0E8
:1007C0003B690F2BEAD9FB7B002BD4D11C37BD46EC
:1007D0005DF8047B704700BFF81D0020B81D0020A5
:1007E00080B487B000AFF860B9607A6000237B61A5
:1007F0000023FB74FB68284A934204D0FB68274A15
:10080000934200D000BEBB68002B00D100BE7B68C5
:10081000002B00D100BEFB681F4A934203D0FB6847
:100820001E4A934230D1BB68002B2DD07B68002B31
:100830002AD0FB681B681B7DFB74FB685A7BFB7C22
:100840001343DAB2FB685A7315E0BA687B69134444
:10085000FA6812681278D2B21A707B6901337B6130
:10086000FB681B681B7DFB74FB685A7BFB7C134396
:10087000DAB2FB685A73FB7C03F00103002B03D050
:100880007A697B689A42E0D37B6918461C37BD467B
:100890005DF8047B704700BFF81D0020B81D0020E4
:1008A000684620F007018D4689B500AF034800F087
:1008B000A7F9BD46BDE8894085467047F81D002070
:1008C000684620F007018D4689B500AF034800F067
:1008D00097F9BD46BDE8894085467047B81D0020A0
:1008E00080B588B000AF786039607B684A4A93422F
:1008F00004D07B68494A934200D000BE7B68464AD8
:10090000934204D07B68454A934240F082807B68E2
:100910003A689A6000F0A6FF7B683F4A934203D191
:100920003F4B1B68FB6102E03E4B1B68FB61FB69B0
:10093000DA003B68B2FBF3F3BB61BB695B087B6128
:100940007B699B093B613B699B017A69D31AFB6018
:100950003B69DB01BA69D21AFB685B00D31AFA68FB
:100960001344FB603B69B3F5803F00D300BE3B6995
:10097000B3F5803F4DD23B69012B2AD97B681B68B8
:100980000C3318460721FFF7E3FD7B681B683A69C3
:10099000120AD2B21A717B681B683A69D2B21A7015
:1009A0007B681B680C3318460721FFF7EDFD7B6859
:1009B0001B68303318460721FFF7CAFDFB68FF2B81
:1009C00000D900BE7B681B68FA68D2B283F83C206D
:1009D0001FE07B681B680C3318460721FFF7B8FD42
:1009E0007B681B683A69120AD2B21A717B681B686D
:1009F0003A69D2B21A707B681B680C33184607211B
:100A0000FFF7C2FD7B681B68303318460721FFF7EC
:100A1000BBFD2037BD4680BDF81D0020B81D00205D
:100A2000381D00203C1D002080B584B000AFF86068
:100A3000B9601346FB71FB686D4A934204D0FB68B2
:100A40006C4A934200D000BEFB68694A934216D1BB
:100A5000FB684FF080421A60FB680A221A71664AEE
:100A6000654B9B6C43F0800393640A20FFF756FDAF
:100A7000614A614B9B6C23F08003936414E0FB6834
:100A80005E4A1A60FB680B221A715B4A5A4B9B6CD8
:100A900043F4807393640B20FFF740FD564A564B96
:100AA0009B6C23F480739364FB681B6800221A71AB
:100AB000FB681B6800221A72FB681B680833184623
:100AC0000121FFF745FDFB681B680833184602212A
:100AD000FFF73EFDFB681B68083318460021FFF74F
:100AE00037FDFB681B68103318460421FFF74CFDE7
:100AF000FB681B68103318460521FFF745FDFB68AE
:100B00001B68343318460121FFF73EFDFB681B6864
:100B1000343318460021FFF737FDFB681B68383374
:100B200018460121FFF730FDFB681B68303318467B
:100B30000521FFF729FDFB681B68303318460621A5
:100B4000FFF722FDFB681B68303318460721FFF7CB
:100B50001BFDFB681B68383318460321FFF714FDA3
:100B6000FB681B68002283F84420FB681B68002296
:100B700083F84820FB681B68002283F84C20F86843
:100B8000B968FFF7ADFEFB681B68FA791A73FB685A
:100B9000BA689A60FB68FA791A73FB6800225A6196
:100BA000FB6800221A61FB6800229A61FB68002240
:100BB0001A62FB6800225A62FB680022DA61FB6855
:100BC00000229A62FB680022DA62FB6800221A6344
:100BD000FB6800225A63FB6800229A63FB680022CC
:100BE000DA63FB6800225A731037BD4680BD00BF30
:100BF000F81D0020B81D00200080034000000140C7
:100C000080B584B000AF78607B68774A934204D0A7
:100C10007B68764A934200D000BE7B68724A93425A
:100C200004D07B68714A934240F0DB807B681B688C
:100C30001B7ADBB203F00F03FB73FB7B0C2B00F280
:100C4000CE8001A252F823F07D0C0020DF0D0020A1
:100C50009B0C0020F50C0020B90C0020DF0D0020BB
:100C6000D70C0020DF0D0020DF0D0020DF0D00205D
:100C7000DF0D0020DF0D0020B90C00207B689B6A8F
:100C8000002B00D100BE7B689B6A002B04D07B68E0
:100C90009B6A78689847A4E0A3E07B685B6A002BB6
:100CA00000D100BE7B685B6A002B04D07B685B6A66
:100CB0007868984795E094E07B681B6A002B00D128
:100CC00000BE7B681B6A002B04D07B681B6A7868B7
:100CD000984786E085E07B68DB69002B00D100BE89
:100CE0007B68DB69002B04D07B68DB6978689847F8
:100CF00077E076E07B681B68283318460021FFF711
:100D00005FFC0346002B0CD07B68DB6A002B00D114
:100D100000BE7B68DB6A002B03D07B68DB6A7868E7
:100D200098477B681B68283318460121FFF748FC69
:100D30000346002B0CD07B681B6B002B00D100BE40
:100D40007B681B6B002B03D07B681B6B7868984714
:100D50007B681B68283318460221FFF731FC0346E5
:100D6000002B0CD07B685B6B002B00D100BE7B6836
:100D70005B6B002B03D07B685B6B786898477B6864
:100D80001B68283318460321FFF71AFC0346002B83
:100D90000CD07B689B6B002B00D100BE7B689B6BEB
:100DA000002B03D07B689B6B786898477B681B6837
:100DB000283318460421FFF703FC0346002B0DD00F
:100DC0007B68DB6B002B00D100BE7B68DB6B002BEC
:100DD00004D07B68DB6B7868984702E001E000BED6
:100DE00000BF1037BD4680BDF81D0020B81D002093
:100DF00080B586B000AF78607B68354A934204D0F6
:100E00007B68344A934200D000BE7B681B69002B8C
:100E100000D100BE7B685B69002B00D100BE7B68FF
:100E20002B4A934203D07B682A4A93424CD17B6879
:100E30001B69002B48D07B685B69002B44D07B6822
:100E40001B681B7DFB737B685A7BFB7B1343DAB209
:100E50007B685A73FB7B03F02003002B24D0102304
:100E60003B617B685A697B689B69D31ABB60BB682E
:100E70000F2B01D8BB683B6100237B6110E07B68CE
:100E80001B687A6811697A6892690A4412781A7044
:100E90007B689B695A1C7B689A617B6901337B6123
:100EA0007A693B699A42EAD37B689A697B685B6995
:100EB0009A4209D17B6800225A617B681B6804331F
:100EC00018460121FFF760FB1837BD4680BD00BF03
:100ED000F81D0020B81D002080B582B000AF0F4B78
:100EE0005B68FB710D4B9B68DAB2FB791340FB71B9
:100EF000FB7903F00203BB71BB79002B01D000F03A
:100F0000E7F8FB7903F001037B717B79002B01D0BB
:100F100000F006F80837BD4680BD00BF0060014004
:100F200080B584B000AF634B1B78022B3FD0052BFC
:100F30006BD0012B40F0AD805F4B1B889BB2002B28
:100F400030D05E4B1A685C4B1B889BB2104619462A
:100F500000F006FAF860584B1B889BB21A46FB68F3
:100F60009A420FD9544B1B889AB2FB689BB2D31A92
:100F70009AB2514B1A80514B1A68FB6813444F4A7E
:100F800013600EE04C4B00221A804D4B1B68002B67
:100F900003D0484B02221A7003E0464B03221A701A
:100FA00004E003E000BE00F0B5F97FE07EE0444BD2
:100FB0001B68002B24D0434B1A68414B1B6810461A
:100FC000194600F0CDF9B8603D4B1B68BA689A42EB
:100FD0000CD23B4B1A68BB68D31A394A1360394BA1
:100FE0001A68BB681344374A13600DE0364A364B23
:100FF0009B6823F0010393602E4B03221A7003E0D9
:1010000000BE00F087F951E050E02D4B1B68002B2B
:101010001BD12E4B1B68002B14D02C4B1B6829486E
:1010200098470246264B1A60254B1B68002B0CD1B3
:10103000254A254B9B6823F0010393601D4B032237
:101040001A7002E000BE00F065F91D4B1B68002B12
:1010500009D11D4A1C4B9B6823F001039360154B7B
:1010600003221A7022E0174B1A68154B1B681046B2
:10107000194600F075F97860114B1A687B68D31A2D
:101080000F4A13600F4B1A687B6813440D4A1360B4
:101090000CE00D4A0C4B9B6823F001039360002089
:1010A00000F018F9034B00221A7000BF1037BD463C
:1010B00080BD00BF911D0020741D0020701D002008
:1010C0007C1D0020781D0020006001408C1D002048
:1010D00080B584B000AF794B1B69FB81FB8923F499
:1010E000FF4323F07F03BB81FB89FB72744B1B78AA
:1010F000052B00F2D88001A252F823F01511002030
:1011000091120020911200206D110020BB110020CF
:1011100065120020BB89002B27D0FB7AF12B06D06B
:10112000FB7ABB72BB7A184600F04CF91DE0654BA8
:1011300000221A80644B1B68624A128892B21344E0
:10114000FA7A1A705F4B1B889BB201339AB25D4BDF
:101150001A805D4B1B685B4A128892B213440022CE
:101160001A70574B04221A70A4E0A3E0BB89002B2D
:1011700022D0FB7A7B72554B1B78DBB27A7A9A428B
:1011800015D1504B00221A804F4B1B684D4A1288D4
:1011900092B213447A7A1A704A4B1B889BB201337D
:1011A0009AB2484B1A80464B04221A7004E07B7AAC
:1011B000184600F007F97DE07CE0BB89002B06D0E3
:1011C000FB7A3B723B7A184600F0FCF849E03E4B54
:1011D0001A683C4B1B889BB2013B13441B78F12BD4
:1011E00016D1394B1B68374A128892B21344FA7AE7
:1011F0001A70354B1A68334B1B889BB2013B134462
:101200001B78184600F0DEF82D4B00221A7028E0FB
:101210002C4B1B889AB22E4B1B889A4210D2FB7A19
:10122000FB71294B1B68274A128892B21344FA7942
:101230001A70244B1B889BB201339AB2214B1A803F
:10124000204B1B889AB2224B1B889A4209D11D4B16
:101250001B889BB2184600F03DF8194B00221A700B
:1012600028E027E0BB89002B0BD1174B1B6801330B
:10127000FA7A1A70022000F02DF8114B00221A7031
:1012800018E0FB7ABB71BB79184600F09BF811E0BF
:10129000BB89002B06D0FB7A7B717B79184600F066
:1012A00091F807E006E0002000F014F8044B00225B
:1012B0001A7000BF1037BD4680BD00BF00600140FE
:1012C000911D0020861D0020801D00206C1D002027
:1012D000841D002080B582B000AF0346FB800A4B1E
:1012E0001B68002B0DD0084B1B68084A1168FA8850
:1012F000084611469847044B00221A60044B00220E
:101300001A700837BD4680BD881D0020801D002052
:10131000901D002080B582B000AF0E4B1B78DBB271
:10132000002B13D00C4B1B889BB21846FFF7D2FF43
:101330000A4A0A4B1B6843F001031360074B1B6802
:1013400003F001037B607B68002BF7D10837BD46B3
:1013500080BD00BF901D0020861D00200060014060
:1013600080B485B000AF78603960154A144B1B68B3
:1013700023F0040313600023FB60114B5B6803F050
:101380000103BB600DE00E497A68FB6813441B78CB
:101390000B61FB680133FB60094B5B6803F00103E1
:1013A000BB60BB68002B03D0FA683B689A42EAD363
:1013B000FB6818461437BD465DF8047B704700BFD4
:1013C0000060014080B582B000AF0346FB71064B60
:1013D0001B68002B04D0044B1B68FA791046984711
:1013E0000837BD4680BD00BF941D002090B484B076
:1013F00000AFF860B9607A60FB704B484B4B1A68DD
:10140000F97813469B001344DB01034403F5E073B2
:1014100059604749454B1A6813469B0013449B008B
:101420000B44FA685A604249404B1A6813469B00C5
:1014300013449B000B44BA689A603D483B4B1968C3
:101440003B4C3A4B1A6813469B0013449B002344C1
:1014500008335B681A0C12040B469B000B449B007C
:10146000034408335A607B68B3F5803F0FD97B682B
:10147000A3F580332F4A1361BB6803F580332D4AEF
:10148000D360FB6803F580332A4A936019E028484B
:10149000264B1A68264C254B19680B469B000B44BB
:1014A0009B00234408335B68796889B2194313466B
:1014B0009B0013449B000344083359601D4B0022DA
:1014C0001A611B48194B1A68194C184B19680B46BE
:1014D0009B000B449B00234408335B6843F4E0010A
:1014E00013469B0013449B000344083359600E4984
:1014F0000E4B1A6813469B001344DB010B4403F5A3
:10150000E07301221A600849084B1A6813469B00D1
:101510001344DB010B4403F5E47300225A601037D7
:10152000BD4690BC704700BF00002842B01D00209F
:1015300000400140981D0020684620F007018D46BC
:1015400091B500AF344A354B1B6803F52873012170
:1015500042F823103248314B1A68314C2F4B19682E
:101560000B469B000B449B00234408335B6823F429
:10157000E00113469B0013449B0003440833596069
:10158000264B1B680133254A1360244B1B68042B30
:1015900002D1224B00221A60224B1B69002B17D06C
:1015A000214B1B68042B03D11F4B00221A6004E05F
:1015B0001D4B1B6801331C4A13601A4B9868194B6A
:1015C000D968184B1A69174B1B7DFFF70FFF1EE0F8
:1015D0001349124B1A6813469B0013449B000B449B
:1015E00008335B6803F4E003002B10D10B4B00229F
:1015F0001A600D4B00221A600A4B01221A70094B27
:101600005B68002B03D0074B5B6801209847BD4601
:10161000BDE891408546704700002842B41D002077
:1016200000400140981D0020B01D0020684620F0B9
:1016300007018D4681B583B000AF384B1B683B6016
:101640003B6803F470633B603B68002B2FD0344948
:10165000344B1A6813469B001344DB010B4403F51B
:1016600002731B68002B0AD02F4B02221A702E4BDC
:101670005B68002B03D02C4B5B68022098472849FD
:10168000284B1A6813469B001344DB010B4403F5F7
:1016900002735B68002B0AD0234B03221A70224B83
:1016A0005B68002B03D0204B5B68032098471B4BE3
:1016B0001B683B603B6803F470433B603B68002B56
:1016C0000AD0194B04221A70174B5B68002B03D009
:1016D000154B5B680420984700237B6014E0104999
:1016E0007A6813469B001344DB010B4403F5E47353
:1016F00001221A600A4A7B6803F52873012142F827
:1017000023107B6801337B607B68032BE7D90C37A0
:10171000BD46BDE881408546704700BF004001409E
:1017200000002842B41D0020981D002080B483B022
:1017300000AF0346FB71094997F907305B09FA7955
:1017400002F01F02012000FA02F2203341F82320A8
:101750000C37BD465DF8047B704700BF00E100E038
:1017600080B483B000AF0346FB71094997F9073095
:101770005B09FA7902F01F02012000FA02F26033DD
:1017800041F823200C37BD465DF8047B704700BF4D
:1017900000E100E080B582B000AF1A4A194B9B6CA3
:1017A00043F480139364174A164B9B6C43F0F07319
:1017B000936400237B6012E0134A7B6813441B7818
:1017C0005BB21846FFF7B2FF0F4A7B6813441B78E1
:1017D0005BB21846FFF7C4FF7B6801337B607B6810
:1017E0001F2BE9D9074A074B9B6C23F0F0739364D6
:1017F000044A044B9B6C23F4801393640837BD4662
:1018000080BD00BF008003402C1C002080B485B048
:1018100000AF03463960FB71FB79FB60FB681F2B4F
:1018200000D900BEFB681F2B05D8054AFB6852F89B
:1018300023303A681A601437BD465DF8047B704760
:10184000AC1B002080B500AF00F0F6F8044A044B52
:101850005B6943F400735361FEF7ECFD80BD00BF8C
:1018600000ED00E080B588B000AF2F4BD3F8983082
:1018700003F08063FB61FB69002B4BD12A4BD3F84B
:10188000983003F48053BB61BB69002B15D1274B03
:10189000274A1A60274B264A1A60274B244A1A60A7
:1018A000264B274A1A60274B214A1A60264B204AAA
:1018B0001A60264B1E4A1A602BE0254A3B1D106811
:1018C000516803C3184BD3F89C309B0903F00703FE
:1018D0007B613A1D7B6913441B78FB74FB7C012BF5
:1018E0000AD0022B0DD0002B0FD100F035F8F86094
:1018F000F86800F04FF80CE04FF4004000F04AF8B0
:1019000007E0144800F046F803E0124800F042F8FF
:1019100000BF05E000F020F8F860F86800F03AF841
:101920002037BD4680BD00BF00800340341D00202D
:1019300000E1F505381D00203C1D0020401D002061
:1019400040787D01441D0020481D00204C1D0020D2
:101950004C1C002040420F0080B483B000AF0A4B03
:10196000D3F8503103F004033B603B68002B02D1F5
:10197000064B7B6001E0064B7B607B6818460C37AA
:10198000BD465DF8047B70470080034040787D01D0
:1019900080F0FA0280B483B000AF78600C4A7B68B4
:1019A00013600C4A7B6813600B4A7B6813600B4B17
:1019B0000B4A1A600B4A7B6813600B4A7B68136002
:1019C0000A4A7B6813600C37BD465DF8047B70479C
:1019D000341D0020381D00203C1D0020401D00202B
:1019E00040787D01441D0020481D00204C1D002032
:1019F00080B483B000AF0E4BD3F84C313B603B68F2
:101A00004FF60202934203D00A4A934203D005E004
:101A100001237B6005E002237B6002E000237B6002
:101A200000BF7B6818460C37BD465DF8047B7047E5
:101A30000080034002F8010080B582B000AFFFF7DC
:101A4000D7FF78607B68012B00D002E000F004F83B
:101A500000BF0837BD4680BD80B400AF094A094BBE
:101A6000D3F8983043F48073C2F89830054A054B98
:101A7000D3F8983023F08063C2F89830BD465DF803
:101A8000047B70470080034080B483B000AF78606F
:101A9000044A7B68C2F888300C37BD465DF8047B89
:101AA000704700BF0030014080B400AF034BD3F853
:101AB00088301846BD465DF8047B70470030014011
:101AC00080B584B000AFFFF765FE00200521FFF769
:101AD0009DFE15484FF4E1310322FEF78DFD1248BB
:101AE0001249FEF723FE10481149FEF71FFE00F0D1
:101AF00021F8FFF7D9FFF860FB68DB43FB60F8686B
:101B0000FFF7C2FF3B1D084819460122FEF768FE99
:101B1000B860BB68002B05D03B1D03481946012265
:101B2000FEF7A2FDE3E700BFF81D0020541C0020D3
:101B3000F81C002080B483B000AF084B1B68DB09A1
:101B40007B6002E07B68013B7B607B68002BF9D106
:101B50000C37BD465DF8047B704700BF341D002084
:101B60000E4B70B51E460E4C0025E41AA410A5427B
:101B700004D056F8253098470135F8E700F0C8F84A
:101B8000084B094C1E46E41AA4100025A54204D0B7
:101B900056F8253098470135F8E770BD281D00201C
:101BA000281D0020281D00202C1D00200030014091
:101BB00004300140083001400C3001401030014039
:101BC00014300140183001401C30014020300140E9
:101BD00024300140283001402C3001403030014099
:101BE00034300140383001403C3001404030014049
:101BF00044300140483001404C30014050300140F9
:101C000054300140583001405C30014060300140A8
:101C100064300140683001406C3001407030014058
:101C200074300140783001407C300140323334352B
:101C3000363738393A3B3C3D3E3F404142434445CC
:101C4000464748494A4B4C4D4E4F50510001000108
:101C5000020203030A0D202A2A2A2A2A2A2A2A2AC9
:101C60002A2A2A2A2A2A2A2A2A2A2A2A2A2A2A2AD4
:101C70002A2A2A2A2A2A2A2A2A2A2A2A2A2A2A2AC4
:101C80002A2A2A2A2A2A2A200A0D20202057656C6F
:101C9000636F6D6520746F20536D61727446757348
:101CA000696F6E3220616E6420536F6674436F6E8D
:101CB000736F6C652076342E30200A0D202A2A2A74
:101CC0002A2A2A2A2A2A2A2A2A2A2A2A2A2A2A2A74
:101CD0002A2A2A2A2A2A2A2A2A2A2A2A2A2A2A2A64
:101CE0002A2A2A2A2A2A2A2A2A2A2A2A2A200A0D9B
:101CF000200A0D20000000002048656C6C6F2C202D
:101D0000576F726C642121200A0D200A0D0000001B
:101D1000F8B500BFF8BC08BC9E467047F8B500BFD8
:101D2000F8BC08BC9E467047E5040020C1040020B2
:101D30000000000000E1F50500E1F50500E1F50512
:101D400040787D0100E1F50500E1F50500E1F505CC
:040000052000019145
:00000001FF
