:1000000000000120910100007F0300008103000037
:100010008303000085030000870300000000000048
:100020000000000000000000000000008903000044
:100030008B030000000000008D0300008F03000010
:100040009103000093030000950300009703000054
:10005000151500009B0300009D03000035150000EE
:10006000A1030000A3030000210A0000010A000010
:10007000A9030000AB030000AD030000AF030000C4
:10008000B1030000B3030000B5030000B703000094
:10009000B9030000BB030000BD030000BF03000064
:1000A000C1030000C3030000C5030000C703000034
:1000B000C9030000CB030000CD030000CF03000004
:1000C000D1030000D3030000D5030000D7030000D4
:1000D000D9030000DB030000DD030000DF030000A4
:1000E000E1030000E3030000E5030000E703000074
:1000F000E9030000EB030000ED030000EF03000044
:10010000F1030000F3030000F5030000F703000013
:10011000F9030000FB030000FD030000FF030000E3
:1001200001040000030400000504000007040000AF
:10013000090400000B0400000D0400000F0400007F
:10014000110400001304000015040000170400004F
:10015000190400001B0400001D0400001F0400001F
:1001600021040000230400002504000027040000EF
:10017000290400002B0400002D0400002F040000BF
:100180003104000033040000000000000000000003
:100190004FF0000BDFF8BE020068DFF8B612096806
:1001A00001F0030100F01C00142801D14BF0020BF8
:1001B000002901D04BF0010BBBF1000F05D0A7487F
:1001C000A749DFF8722200F09FF8A64880470BF09D
:1001D000020ABAF1000F0CD0DFF86E02DFF86E12DF
:1001E00002680B680FB44FF000024FF0FF0302608B
:1001F0000B609D489D4A9E4B022808D1DFF83E12B5
:100200000A60DFF842120A60DFF836120B6001283C
:1002100008D1DFF82E120A60DFF82A120A60DFF830
:100220001E120B609348002809D193489349944AC1
:1002300000F032F893489449944A00F02DF894481D
:100240009449954A00F028F894489549DFF8E6214A
:1002500000F05AF8BBF1000F12D092489249DFF833
:10026000DA2100F051F80BF0020ABAF1000F07D0C2
:100270000FBC02600B6000BFAFF30080AFF30080E3
:10028000DFF828020FF2030E00474FF000004FF096
:100290000001DFF81CF2FEE72DE9F841884225D085
:1002A000B2EB010200D5FEE740EA010313F00303BD
:1002B00002D000F01DF819E04FF000039046121133
:1002C000F7D09A421CBFF0C8F0C103F10103F8D186
:1002D00008F00F08B8F1000F08D004780C7000F196
:1002E000010001F10101B8F10108F6D1BDE8F88182
:1002F00008B54FF0000303780B7000F1010001F125
:100300000101013AF7D108BD884237D000F0030659
:10031000002E14D04FF00405A5EB06044FF008079B
:1003200007FB06F8914669FA08F9002C07D080F817
:10033000009069FA07F900F10100013CF5E74FF080
:1003400000060F46091A88460911914614461546BB
:10035000B14206D018BFA0E8340206F10106B1424E
:10036000F8D108F00F08B8F1000F07D002704FEA7B
:10037000322200F10100B8F10108F4E77047FEE70E
:10038000FEE7FEE7FEE7FEE7FEE7FEE7FEE7FEE745
:10039000FEE7FEE7FEE7FEE7FEE7FEE7FEE7FEE735
:1003A000FEE7FEE7FEE7FEE7FEE7FEE7FEE7FEE725
:1003B000FEE7FEE7FEE7FEE7FEE7FEE7FEE7FEE715
:1003C000FEE7FEE7FEE7FEE7FEE7FEE7FEE7FEE705
:1003D000FEE7FEE7FEE7FEE7FEE7FEE7FEE7FEE7F5
:1003E000FEE7FEE7FEE7FEE7FEE7FEE7FEE7FEE7E5
:1003F000FEE7FEE7FEE7FEE7FEE7FEE7FEE7FEE7D5
:10040000FEE7FEE7FEE7FEE7FEE7FEE7FEE7FEE7C4
:10041000FEE7FEE7FEE7FEE7FEE7FEE7FEE7FEE7B4
:10042000FEE7FEE7FEE7FEE7FEE7FEE7FEE7FEE7A4
:10043000FEE7FEE7704700000000A2A2A2A2008033
:100440000340088003401080034030800340348024
:1004500003403880034018080240000000F00020EC
:1004600000000120E517000000000000000000006F
:10047000010000000000000000000000000000007B
:1004800090010000C0040000C004000080190000BA
:100490008019000000000020300000203000002003
:1004A000E0010020E001002000F0002025180000FD
:1004B0007D060000AFF30080AFF30080AFF3008053
:1004C00040F23003C2F200031A780AB90120187012
:1004D000704700BF40F20000C2F2000008B5036898
:1004E0002BB140F20003C0F2000303B1984708BDEE
:1004F0002DE9F00F40F23403C2F200035C7B93F865
:100500000A9086B093F806C0D87993F800A093F8C3
:1005100001809F78DE781D79197A93F809B00394E9
:10052000CDF800905C7993F80B9040F260021B7B51
:10053000C2F200020293D378CDF8049092F80490AE
:10054000049340F24403C2F20003CDF814904FF03C
:100550000A0983F800904FF00D0983F8019083F8A1
:1005600008C0587283F802A083F803801F715E717F
:100570009D71DC7199720099DDF804C00298DDF874
:100580000C901973049983F80DC0987392F808C001
:10059000507983F80F901974DDF814909179D2791D
:1005A00083F80BB083F8119083F815C09874D97450
:1005B0001A7506B0BDE8F00F704700BF30B585B0C2
:1005C000BDF8205040F2F4048E469446C2F2000476
:1005D0000093014601952046724663460025029528
:1005E00000F092FC204640F6B83105B0BDE830403E
:1005F00000F0F4BC10B584B0002304A940F25C0400
:1006000001F8043D4FF00C0CC2F2000440F260030C
:1006100084F800C060460A24C2F20003012200945C
:10062000FFF7CCFF04B010BD30B540F2F4048C46A7
:10063000C2F2000483B013460146624620460025FC
:10064000009500F00BFC204640F6B83103B0BDE841
:10065000304000F0C3BC00BF00B540F25C0383B083
:10066000C2F200038DF804008DF80510187801A976
:100670000222FFF7D9FF03B000BD00BF2DE9F0450E
:1006800040F2B405C2F2000585B028464FF4E131CE
:10069000032200F0B3FB40F20401C2F2000140F279
:1006A000F4000A78C2F20000202140F25C0800F059
:1006B00051FFC2F2000802216824372088F8004068
:1006C000FFF7CAFF40F26C04C2F2000420700C2253
:1006D0000A20062188F80020FFF7BEFF40F231060D
:1006E0000023C2F2000640F2700733702B682070BE
:1006F000C2F2000793F814C01CF0010FFAD00022D8
:1007000093F800A02B6802F807A0187D40F2700152
:1007100040F2B40A013210F0010FC2F20001C2F23D
:10072000000AEDD1002AE5D091F800E0BEF1770F84
:1007300003D0002005B0BDE8F08540F24403C2F2CA
:1007400000034FF0790C01221946504683F800C08F
:1007500000F052F8DAF800200023107D10F0010FAD
:1007600034D1002BF8D03B78732B40D03278012A5B
:10077000DFD10DF10C0A68273B260E2540F2340329
:10078000C2F2000351460122682088F800708DF8FB
:100790000C600095FFF712FF2070FFF72BFF207011
:1007A000FFF7A6FE2378B3B940F2B40040F244014B
:1007B000C2F20000C2F20001162200F01DF842F25F
:1007C000BE73C0F20903023BD8D0FCE711782A6857
:1007D000D9550133C1E740F2B40041F64811C2F2E5
:1007E0000000C0F20001012200F006F8E7E7723BCA
:1007F00033700DF10C0ABEE740F2B403C2F20003FD
:1008000098422DE9F00508D040F2740CC2F2000CB9
:10081000604502D0BDE8F00570470B1E18BF0123EC
:10082000002A0CBF002303F00103002BF2D090F844
:100830000D80D0F800A000259AF814C048EA0C08F2
:100840001CF0200F80F80D8023D00F2A24D9102708
:100850004E5D0468012307F1FF3C26700CEA030695
:1008600005EB030C4D19BB4211D236B1EE5C0223ED
:10087000BB4226700CF1010C09D2EE5C01332670EC
:10088000EE5C0133BB4226700CF1020CF5D36546D9
:10089000D21A002AD0D1BDE70AB11746D8E71346CD
:1008A000D21AF6E740F2B403C2F20003984210B540
:1008B000044606D040F27400C2F20000844200D028
:1008C00010BD2268117A01F00F0CBCF10C0FF7D8A3
:1008D00001A151F82CF000BF29090000C108000057
:1008E000210900003109000019090000C1080000B9
:1008F0000D090000C1080000C1080000C108000087
:10090000C1080000C108000019090000E369002BBC
:10091000D6D02046984710BD236A002BF9D1CFE7E7
:10092000636A002BF5D1CBE7A36A002BF1D1C7E7AF
:10093000283222F07F4020F4700302F07041580109
:1009400001F1007C5CF8003013F0FF0F05D0E36A82
:100950001BB1204698472268283202F0704022F0EE
:100960007F4C00F100732CF47001181D49014358AD
:1009700013F0FF0F05D0236B1BB120469847226868
:10098000283202F0704322F07F4C03F100702CF407
:10099000700108304901435813F0FF0F05D0636B15
:1009A0001BB1204698472268283202F0704322F09B
:1009B0007F4C2CF4700003F100730C334101585844
:1009C00010F0FF0F05D0A36B1BB12046984722689B
:1009D000283222F07F4C02F0704101F100722CF4B9
:1009E000700310325801115811F0FF0F3FF468AF37
:1009F000E36B002B3FF464AF2046984760E700BFED
:100A0000684620F007018D4601B540F27400C2F23D
:100A10000000FFF747FFBDE801408546704700BF73
:100A2000684620F007018D4601B540F2B400C2F2DD
:100A30000000FFF737FFBDE801408546704700BF63
:100A400040F2B403C2F20003984270B407D040F2FF
:100A50007401C2F20001884201D070BC7047046981
:100A6000002CFAD04369002BF7D0016890F80DC034
:100A70000A7D42EA0C0C12F0200F80F80DC082694A
:100A800029D09D1A0F2D38D91025A41826786B1E51
:100A90000E7003F00106012301329D42826119D9D3
:100AA00046B194F801C0022301329D4281F800C092
:100AB00082610FD914F803C0013281F800C00133FC
:100AC000826114F803C0013301329D4281F800C0F5
:100AD0008261EFD843699A42BFD102680021131D99
:100AE00023F07F4C03F0704202F100732CF470028B
:100AF0000433520199504161AFE7002DC5D1EAE7B7
:100B00002DE9F04F40F2B4038FB0C2F200030B9214
:100B100048F200029842C4F2030204460D91906C20
:100B20004EF2001100F0298140F48077CEF20001EE
:100B30004FF400669764C1F88061956C40F2000143
:100B400025F48070C4F2010190640B2222712160AF
:100B500000220D460A7101F1100605F8082F01F177
:100B6000380A2AF07F4B01F1340925F07F4726F03F
:100B70007F4805F0704506F070460AF0704ACDF8DF
:100B800010A0069529F07F4006F1007503900195AD
:100B900009F07049049DCDF81C90DDF80C9005F12A
:100BA000007529F4700A0A952BF47009079DDDF889
:100BB00018B0CDF814900BF1007905F1007B049D7D
:100BC00001F1300C2CF07F4005F100750CF0704CF9
:100BD000CDF80CA004950CF100750CF1007AAC4630
:100BE000039DCDF824A06D010395059D28F47008A0
:100BF0006D010595069DCA4605F100750695019D96
:100C00004FEA481814350195079D27F4700705F140
:100C100000750795049D7F010435049565461435DC
:100C20000895099DCDF830801C3509950A9D4FF037
:100C300001080C350AF1080A09F104090A9506F1C0
:100C4000007649F807800C9D4AF80780DDF818A067
:100C500010364AF807807251DDF80CA0019E0BF1A6
:100C6000040B72514BF80A20DDF81CB0059D4BF8BF
:100C70000A20049EDDF820A020F4700040010CF151
:100C8000180C7251DDF824B04AF800204CF800200E
:100C9000DDF828C09C424BF800204CF8052081F874
:100CA000442081F8482081F84C2079D040F2740328
:100CB000C2F200039C4215D00B9D00200D7360739F
:100CC0000D9E6061A66025732061A0612062606254
:100CD000E061A062E06220636063A063E0630FB044
:100CE000BDE8F08F0D9FA76000F09EFC40F21C0154
:100CF000C2F200010A680D9ED700B7FBF6F2D309D5
:100D00005708B3F5803F28BF2168D5D2012B216851
:100D100050D901F10C0020F07F4C00F0704606F134
:100D200000702CF4700A4FEA4A1E0D465FFA83F8F1
:100D3000A7EB83171C300126C2F3C73A40F80E60B8
:100D4000A7EBC31381F804A005F8308B9A1825F09F
:100D50007F4305F0704523F47008A2EB470705F1C7
:100D600000751C354FEA4818FFB2002340F80E30DA
:100D700045F8086081F83C709EE740F08007CEF2AD
:100D800000014FF480669764C1F88061956C4FF064
:100D9000804125F0800090640A2222712160D7E60C
:100DA0000D9AA26000F040FC40F21801C2F200016E
:100DB0000A68A0E701F10C0C2CF07F4E0CF0704299
:100DC0002EF4700502F100724FEA451E0846002518
:100DD000DBB21C32012642F80E600D7100F8303B88
:100DE00020F07F4C00F0704000F100762CF470038E
:100DF0001C365B0142F80E50F5505DE7F8B504462D
:100E0000FFF77EFE22684FF6FF7302F1340002F115
:100E10003005C0F20F0305F07047383200F0704122
:100E200002EA030607F1007C1D4000EA030702F016
:100E3000704201F1007140F641207B010CF10C0C75
:100E400002F100776D01002208317601C0F2000046
:100E50004CF805206062CA50BA51F8BDF0B482B0B7
:100E60009DF81870EFF310864FF0010C8CF310888A
:100E7000047A0CB980F808C00124A14080F83C40F5
:100E800090F85CC00025A445436218BF83690774CD
:100E900080F8724018BF5C6190F8703008BF80F82D
:100EA00071C0012B026241608562C562427C11D033
:100EB00002F01F03012010FA03F152B252094EF260
:100EC0000013CEF2000343F8221086F3108802B01C
:100ED000F0BC704702F01F0113FA01F18469436905
:100EE0000020E060187952B28DF807009DF807C025
:100EF00052094EF20013CEF2000302F160008DF8A9
:100F000007C043F82010DAE72DE9F00582B0BDF8FC
:100F100024401D1E18BF0125002C0CBF002505F024
:100F200001059DF828C0002D3AD0EFF31088012666
:100F300086F31088057A0DB9032707720126B140A0
:100F400080F83C604FF0030A90F85C7080F872A063
:100F500002624362089B0025B742036318BF83699E
:100F600080F810C018BF5E6190F8703008BF80F83C
:100F70007170012B416044638563C5628562427C68
:100F800012D002F01F03012010FA03F152B25209ED
:100F90004EF20013CEF2000343F8221088F31088BB
:100FA00002B0BDE8F005704702F01F0113FA01F12D
:100FB000846943690020E060187952B28DF8070017
:100FC0009DF807C052094EF20013CEF2000302F161
:100FD00060008DF807C043F82010D9E7034601648C
:100FE00093F83C000128FBD0704700BF30B5416941
:100FF0000446087983B08DF807009DF80730083B58
:10100000D02B00F2CB81DFE813F0AA01C901C9019E
:10101000C901C901C901C901C901AA01C901C9019F
:10102000C901C901C901C901C901DD01C901C9015C
:10103000C901C901C901C901C901D100C901C90159
:10104000C901C901C901C901C901DD01C901C9013C
:10105000C901C901C901C901C901D100C901C90139
:10106000C901C901C901C901C9018901C901C90170
:10107000C901C901C901C901C901E600C901C90104
:10108000C901C901C901C901C901D100C901C90109
:10109000C901C901C901C901C9014101C901C90188
:1010A000C901C901C901C901C9015101C901C90168
:1010B000C901C901C901C901C901F100C901C901B9
:1010C000C901C901C901C901C901EE00C901C901AC
:1010D000C901C901C901C901C901F100C901C90199
:1010E000C901C901C901C901C901EE00C901C9018C
:1010F000C901C901C901C901C9016F01C901C901FA
:10110000C901C901C901C901C9010101C901C90157
:10111000C901C901C901C901C9016F01C901C901D9
:10112000C901C901C901C901C9010101C901C90137
:10113000C901C901C901C901C9010E01C901C9011A
:10114000C901C901C901C901C9012501C901C901F3
:10115000C901C901C901C901C9012501C901C901E3
:10116000C901C901C901C901C9012501C901C901D3
:10117000C901C901C901C901C9019C01C901C9014C
:10118000C901C901C901C901C9019C01C901C9013C
:10119000C901C901C901C901C901C901C901C901FF
:1011A000C901C901C901C901C9018D01A369012290
:1011B0001A614FF0020C94F8680084F83CC04FF0BC
:1011C000000C84F808C060B90020D8600B798DF855
:1011D000073003B030BD626B012A40F26981A36918
:1011E00001229A60F0E7012384F871300422A36998
:1011F000227258690022A265E26018B101205A618A
:1012000084F87100012284F85C20DDE7A3690120E5
:10121000986094F87150002284F85C202272002DAE
:10122000D2D05861D0E7227A042A00F0198194F8CC
:1012300068300020E064002B40F04781A36994F8F7
:101240007120002084F85C000AB101225A6100205C
:101250002072B9E79DF807C0BCF1A80F00F0188113
:10126000E36CA06C834280F0E480606C5A1C10F840
:1012700003C081F808C0E264A16C914200F2C3800F
:10128000A3690022E2649A6061699DE7A26B087A13
:10129000216B531C8854626BA363511E8B42C0F0B8
:1012A000B280A3690020986061698DE7097A226B9A
:1012B000A06B115494F810C00CF0010384F8703046
:1012C000002B40F0A380A36901221A6194F86810F2
:1012D00001B19A60002084F83C0020726169002A04
:1012E0003FF474AFA3696FE7226D002A00F0EB8032
:1012F000A36D606D83420DD291F808C0581C02F8AE
:1013000003C0E26861690CEB0223E360A065636DD2
:101310008342E7D8A3690020986055E7A3690120BC
:10132000586151E794F85CC00023BCF1010FE364FD
:10133000237200F0918094F86820002A7FF44FAF68
:10134000D0E7A3690120986094F87150002284F8D6
:101350005C20E264002D3FF47AAF586177E7A26920
:1013600094F804C00020506181F808C0A369E26AC3
:10137000C3F80021002A69D0012A08BFA06394F8AD
:10138000711011B1002084F8710094F872C0227AB3
:101390006169624518BF84F808C015E7A369002297
:1013A0005A6194F83CC0E264BCF1010F22724FD044
:1013B00094F85CC0BCF1010F7FF406AF022284F800
:1013C0005C2001E7A36A626A934237D394F808C0AD
:1013D000BCF1030F00F08E80207C002200F001039E
:1013E000227284F87030002B73D1A36901221A6134
:1013F00094F8680000B19A60002384F83C30002A19
:101400003FF4E4AE6EE7A3696169DDE694F811C0CC
:1014100001210CF01F0311FA03F04FFA8CF252096C
:101420004EF200132032CEF2000343F822000022D5
:1014300050E74FF0FF330B72E26C1DE7206A5A1C35
:10144000C35C0B72A369A2626169BDE6A26296E702
:10145000022084F83C00ABE7022084F85C006AE7D5
:10146000236EA26D9A4204BFE368E364636E002BAF
:101470002BD092B22046216D984700283FD194F896
:101480006810002942D1A36901229A606169D6E6F9
:1014900005250123A269257284F85C305569002076
:1014A000E060002D3FF4DCAE506184F87130D7E687
:1014B0003FF430AFA36901200022986018612272C6
:1014C00084F83C2080E6A06D21E7A36901229A60A0
:1014D000B5E694F811C001250CF01F0085404FFAC5
:1014E0008CF358094EF20013CEF20003203043F87B
:1014F000205081E7A36901225A61E26264E6A36990
:101500000021996084F86810616998E6A369012058
:101510009860B9E7684620F007018D4601B540F2B2
:10152000F400C2F20000FFF761FDBDE8014085460E
:10153000704700BF684620F007018D4601B540F2B4
:101540006810C2F20000FFF751FDBDE8014085467A
:10155000704700BF2DE9F04104460F461546EFF3F2
:101560001086012080F3108800217422204600F0AC
:1015700081F940F2F403C2F200039C4248F20003F6
:10158000C4F20303996C4EF2001232D041F4805041
:10159000CEF2000280219864C2F88011986C42F269
:1015A000000140F2000220F48050C4F22422C4F270
:1015B00001019864072363746161A2619046A36985
:1015C0007F00616905F00100C5F3800C5FFA87FEBA
:1015D000C5F340050122C3F81CC0C4F81C805D603F
:1015E0002760186081F80CE09A6186F31088BDE8E6
:1015F000F08141F40060CEF2000210219864C2F83C
:101600008011986C42F2000140F2000220F4006068
:10161000C4F20422C4F2000198640423637461617B
:10162000A2619046CBE700BF2DE9F00148F200032C
:10163000C4F20303D3F8982083B012F0806F19D15D
:10164000D3F8980010F4805F4AD041F64C1CC0F2E9
:10165000000C6A469CE8030082E80300D3F89C1063
:1016600002AFC1F38216BD1915F8084C012C00F029
:10167000968067D2D3F8504147F640024FF280037C
:10168000C0F27D1214F0040FC0F2FA2340F22006DB
:1016900040F2180540F21C0440F20C0C40F210001D
:1016A00040F2140140F2080708BF1346C2F20006D8
:1016B000C2F20005C2F20004C2F2000CC2F2000045
:1016C000C2F20001C2F20007CCF800203B60336098
:1016D0002B60236003600B6003B0BDE8F00170472E
:1016E00040F220054EF2001340F218044FF280023F
:1016F00040F21C0840F20C0747F6400C40F2100084
:1017000040F2140140F20806C0F2F553C0F2FA228A
:10171000C2F20005C2F20004C2F20008C2F20007E1
:10172000C0F27D1CC2F20000C2F20001C2F200064B
:10173000C8F80020C7F800C033602B602260036047
:101740000B60C9E740F2200544F2402340F2180440
:1017500040F21C0040F20C0747F6400C40F210012A
:1017600040F2140240F20806C0F20F03C2F2000574
:10177000C2F20004C2F20000C2F20007C0F27D1CF7
:10178000C2F20001C2F20002C2F20006C7F800C0B5
:1017900033602B60236003600B6013609CE740F2B2
:1017A000200540F2180440F21C0040F20C0747F6F6
:1017B000400C40F2100140F2140240F20806C2F25E
:1017C0000005C2F20004C2F20000C2F20007C0F23B
:1017D0007D1CC2F20001C2F20002C2F200064FF408
:1017E0000043D3E748F20003C4F20303D3F84C11DB
:1017F0004FF6020291420BD1D3F8980040F4807268
:10180000C3F89820D3F8981021F08060C3F89800AE
:101810004EF60053CEF200035A6942F4007159614A
:10182000FEF708BE70B541F66C1641F66C15C0F2B5
:101830000006C0F20005761BB61006D0002455F84D
:10184000243001349847A642F9D841F66C1541F688
:101850007016C0F20005C0F20006761B00F07AF8A0
:10186000B61006D0002455F8243001349847A6421B
:10187000F9D870BD032AC9B230B407D822B1002309
:10188000C15401339342FBD130BC704700EB020CD2
:10189000034601E003F8011C03F003041A46013378
:1018A000002CF7D14FF00133C2EB0C0403FB01F322
:1018B0001FE042F8403C42F83C3C42F8383C42F8D9
:1018C000343C42F8303C42F82C3C42F8283C42F888
:1018D000243C42F8203C42F81C3C42F8183C42F8B8
:1018E000143C42F8103C42F80C3C42F8083C42F8E8
:1018F000043C154640323F2CA4F14004D9DC2A4672
:10190000C5EB0C0407E042F8103C42F80C3C42F8EE
:10191000083C42F8043C154610320F2CA4F1100488
:10192000F1DC2A46C5EB0C0501E042F8043C144604
:101930000432032DA5F10405F7DC01E004F8011BD6
:101940006445FBD3A0E700BF460000000001000192
:1019500002020303F8B500BFF8BC08BC9E467047FE
:10196000F8B500BFF8BC08BC9E467047D50400001F
:10197000C1040000000000000000000000000000A2
:10198000000000000300000000E1F50540787D0143
:1019900000E1F50500E1F50580F0FA0280F0FA02B9
:1019A00000E1F5050000000000000000000000005C
:040000030000019167
:00000001FF
