S02300004D32533031305F4932435F554152545F4D53535F434D335F6170702E73726563D2
S3152000000000000120910100207F03002081030020B1
S3152000001083030020850300208703002000000000C2
S3152000002000000000000000000000000089030020FE
S315200000308B030020000000008D0300208F0300208A
S3152000004091030020930300209503002097030020AE
S31520000050492200209B0300209D0300206D220020C2
S31520000060A1030020A3030020D10C0020F50C0020C2
S31520000070A9030020AB030020AD030020AF0300201E
S31520000080B1030020B3030020B5030020B7030020EE
S31520000090B9030020BB030020BD030020BF030020BE
S315200000A0C1030020C3030020C5030020C70300208E
S315200000B0C9030020CB030020CD030020CF0300205E
S315200000C0D1030020D3030020D5030020D70300202E
S315200000D0D9030020DB030020DD030020DF030020FE
S315200000E0E1030020E3030020E5030020E7030020CE
S315200000F0E9030020EB030020ED030020EF0300209E
S31520000100F1030020F3030020F5030020F70300206D
S31520000110F9030020FB030020FD030020FF0300203D
S315200001200104002003040020050400200704002009
S31520000130090400200B0400200D0400200F040020D9
S3152000014011040020130400201504002017040020A9
S31520000150190400201B0400201D0400201F04002079
S315200001602104002023040020250400202704002049
S31520000170290400202B0400202D0400202F04002019
S31520000180310400203304002000000000000000009D
S315200001904FF0000BDFF8BE020068DFF8B6120968E0
S315200001A001F0030100F01C00142801D14BF0020BD2
S315200001B0002901D04BF0010BBBF1000F05D0A74859
S315200001C0A749DFF8722200F09FF8A64880470BF077
S315200001D0020ABAF1000F0CD0DFF86E02DFF86E12B9
S315200001E002680B680FB44FF000024FF0FF03026065
S315200001F00B609D489D4A9E4B022808D1DFF83E128F
S315200002000A60DFF842120A60DFF836120B60012816
S3152000021008D1DFF82E120A60DFF82A120A60DFF80A
S315200002201E120B609348002809D193489349944A9B
S3152000023000F032F893489449944A00F02DF89448F7
S315200002409449954A00F028F894489549DFF8E62124
S3152000025000F05AF8BBF1000F12D092489249DFF80D
S31520000260DA2100F051F80BF0020ABAF1000F07D09C
S315200002700FBC02600B6000BFAFF30080AFF30080BD
S31520000280DFF828020FF2030E00474FF000004FF070
S315200002900001DFF81CF2FEE72DE9F841884225D05F
S315200002A0B2EB010200D5FEE740EA010313F0030397
S315200002B002D000F01DF819E04FF00003904612110D
S315200002C0F7D09A421CBFF0C8F0C103F10103F8D160
S315200002D008F00F08B8F1000F08D004780C7000F170
S315200002E0010001F10101B8F10108F6D1BDE8F8815C
S315200002F008B54FF0000303780B7000F1010001F1FF
S315200003000101013AF7D108BD884237D000F0030633
S31520000310002E14D04FF00405A5EB06044FF0080775
S3152000032007FB06F8914669FA08F9002C07D080F8F1
S31520000330009069FA07F900F10100013CF5E74FF05A
S3152000034000060F46091A8846091191461446154695
S31520000350B14206D018BFA0E8340206F10106B14228
S31520000360F8D108F00F08B8F1000F07D002704FEA55
S31520000370322200F10100B8F10108F4E77047FEE7E8
S31520000380FEE7FEE7FEE7FEE7FEE7FEE7FEE7FEE71F
S31520000390FEE7FEE7FEE7FEE7FEE7FEE7FEE7FEE70F
S315200003A0FEE7FEE7FEE7FEE7FEE7FEE7FEE7FEE7FF
S315200003B0FEE7FEE7FEE7FEE7FEE7FEE7FEE7FEE7EF
S315200003C0FEE7FEE7FEE7FEE7FEE7FEE7FEE7FEE7DF
S315200003D0FEE7FEE7FEE7FEE7FEE7FEE7FEE7FEE7CF
S315200003E0FEE7FEE7FEE7FEE7FEE7FEE7FEE7FEE7BF
S315200003F0FEE7FEE7FEE7FEE7FEE7FEE7FEE7FEE7AF
S31520000400FEE7FEE7FEE7FEE7FEE7FEE7FEE7FEE79E
S31520000410FEE7FEE7FEE7FEE7FEE7FEE7FEE7FEE78E
S31520000420FEE7FEE7FEE7FEE7FEE7FEE7FEE7FEE77E
S31520000430FEE7FEE7704700000000A2A2A2A200800D
S3152000044003400880034010800340308003403480FE
S3152000045003403880034018080240000000F00020C6
S315200004600000012091220020000000000000000072
S315200004700100000000000000000000200000002015
S3152000048090010020C0040020C0040020C0260020C7
S31520000490C0260020C0260020F0260020F0260020BE
S315200004A0A0280020A028002000F000206925002098
S315200004B049050020AFF30080AFF30080AFF3008042
S315200004C042F2F063C2F200031A780AB901201870CA
S315200004D0704700BF42F2C060C2F2000008B5036850
S315200004E02BB140F20003C0F2000303B1984708BDC8
S315200004F080B487B000AFF860B9607A604FF000032F
S315200005007B6116E0BA687B691344FA681268127830
S31520000510D2B21A707B6903F101037B6100E000BF50
S31520000520FB681B681B7DDBB203F00103DBB2002BEB
S31520000530E8D17A697B689A42F1D37B69184607F13C
S315200005401C07BD4680BC704780B584B002AF42F21E
S315200005508C63C2F200031B6818464FF4E1314FF05A
S31520000560030200F001FB42F2C463C2F200031B78CF
S3152000057042F2B470C2F200004FF020011A4600F099
S31520000580C1FF42F21C73C2F200034FF068021A70D8
S315200005904FF037004FF0020100F030F903461A46BB
S315200005A042F22C73C2F200031A7042F21C73C2F29A
S315200005B000034FF00C021A704FF00A004FF00601AC
S315200005C000F01CF903461A4642F22C73C2F20003CD
S315200005D01A7042F2F163C2F200034FF000021A7061
S315200005E042F2F163C2F200031B78002B45D142F29E
S315200005F08C63C2F200031B68184642F23071C2F2C5
S3152000060000014FF00102FFF773FF42F23073C2F28E
S3152000061000031B78772B30D142F20473C2F2000319
S315200006204FF079021A7042F28C63C2F200031B6803
S31520000630184642F20471C2F200014FF0010200F0A6
S31520000640D5FA42F28C63C2F200031B68184642F2C6
S315200006503071C2F200014FF00102FFF749FF42F26A
S315200006603073C2F200031B78732B06D142F2F1637A
S31520000670C2F200034FF001021A7042F2F163C2F295
S3152000068000031B78012B61D142F21C73C2F20003D6
S315200006904FF068021A704FF03B033B7142F21C7315
S315200006A0C2F200031A7807F104034FF00E010091FD
S315200006B0104619464FF0010242F2F463C2F20003DB
S315200006C000F072F803461A4642F22C73C2F2000377
S315200006D01A7000F0B3F803461A4642F22C73C2F29F
S315200006E000031A7000F0D4F842F22C73C2F2000311
S315200006F01B78002B0ED142F28C63C2F200031B68DA
S31520000700184642F20471C2F200014FF0160200F0C0
S315200007106DFA0DE042F28C63C2F200031B681846A4
S3152000072042F29061C2F200014FF0010200F05EFA3F
S3152000073042F2C070C0F2090000F086F942F2F1637D
S31520000740C2F200034FF001021A709DE74FF000033A
S31520000750184607F10807BD4680BD00BF80B588B0A2
S3152000076002AFB96013460246FA73FB80FA7BFB8818
S315200007704FF00001009142F2B470C2F2000011461F
S31520000780BA6800F075FF42F2B470C2F2000040F67B
S31520000790B83101F081F80346FB75FB7D184607F159
S315200007A01807BD4680BD00BF80B58AB004AFB960CA
S315200007B03B600346FB731346FB80FA7BFB88396854
S315200007C00091398C01914FF00001029142F2B470F0
S315200007D0C2F200001146BA6800F0C4FF42F2B470BB
S315200007E0C2F2000040F6B83101F056F80346FB7518
S315200007F0FB7D184607F11807BD4680BD80B584B03D
S3152000080000AF02460B46FA71BB71FB793B73BB798D
S315200008107B7342F21C73C2F200031A7807F10C03B1
S31520000820104619464FF00202FFF798FF0346FB7366
S31520000830FB7B184607F11007BD4680BD80B584B006
S3152000084002AF42F21C73C2F200034FF00C021A7080
S315200008504FF000033B7142F21C73C2F200031A7878
S3152000086007F104034FF00A010091104619464FF094
S31520000870010242F22073C2F20003FFF795FF0346FE
S31520000880FB71FB79184607F10807BD4680BD00BFFE
S3152000089080B400AF42F20473C2F200034FF00A02A2
S315200008A01A7042F20473C2F200034FF00D025A701E
S315200008B042F2F463C2F200031A7842F20473C2F2DF
S315200008C000039A7042F2F463C2F200035A7842F2AD
S315200008D00473C2F20003DA7042F2F463C2F2000338
S315200008E09A7842F20473C2F200031A7142F2F46358
S315200008F0C2F20003DA7842F20473C2F200035A719C
S3152000090042F2F463C2F200031A7942F20473C2F28D
S3152000091000039A7142F2F463C2F200035A7942F25A
S315200009200473C2F20003DA7142F2F463C2F20003E6
S315200009309A7942F20473C2F200031A7242F2F46305
S31520000940C2F20003DA7942F20473C2F200035A7249
S3152000095042F2F463C2F200031A7A42F20473C2F23C
S3152000096000039A7242F2F463C2F200035A7A42F208
S315200009700473C2F20003DA7242F2F463C2F2000395
S315200009809A7A42F20473C2F200031A7342F2F463B3
S31520000990C2F20003DA7A42F20473C2F200035A73F7
S315200009A042F2F463C2F200031A7B42F20473C2F2EB
S315200009B000039A7342F2F463C2F200035A7B42F2B6
S315200009C00473C2F20003DA7342F22073C2F2000308
S315200009D0DA7842F20473C2F200031A7442F22073E8
S315200009E0C2F200031A7942F20473C2F200035A7467
S315200009F042F22073C2F200035A7942F20473C2F221
S31520000A0000039A7442F22073C2F200039A7942F2EA
S31520000A100473C2F20003DA7442F22073C2F20003B6
S31520000A20DA7942F20473C2F200031A7542F2207395
S31520000A30C2F200031A7A42F20473C2F200035A7514
S31520000A40BD4680BC704700BF80B483B000AF7860DD
S31520000A5003E07B6803F1FF337B607B68002BF8D1D2
S31520000A6007F10C07BD4680BC704700BF80B483B039
S31520000A7000AF0346FB714EF20013CEF2000397F946
S31520000A8007204FEA5212F97901F01F014FF00100B9
S31520000A9000FA01F102F1600243F8221007F10C0777
S31520000AA0BD4680BC704700BF80B483B000AF78607D
S31520000AB00B46FB707B6803F070427B6823F07F4314
S31520000AC023F470034FEA43131A44FB784FEA830357
S31520000AD0134403F100734FF001021A6007F10C076B
S31520000AE0BD4680BC704700BF80B483B000AF78603D
S31520000AF00B46FB707B6803F070427B6823F07F43D4
S31520000B0023F470034FEA43131A44FB784FEA830316
S31520000B10134403F100734FF000021A6007F10C072B
S31520000B20BD4680BC704700BF80B483B000AF7860FC
S31520000B300B46FB707B6803F070427B6823F07F4393
S31520000B4023F470034FEA43131A44FB784FEA8303D6
S31520000B50134403F100731B68DBB2184607F10C0738
S31520000B60BD4680BC704700BF80B584B000AFF8603A
S31520000B70B9601346FB71FA6842F27473C2F200033D
S31520000B809A4207D0FA6842F23473C2F200039A42BC
S31520000B9000D000BEFB79F868B9681A4600F088F9DB
S31520000BA0FB681B6803F1300318464FF00301FFF77B
S31520000BB09BFFFB681B6803F1340318464FF00201C4
S31520000BC0FFF792FFFB681B6803F1380318464FF0C6
S31520000BD00001FFF789FFFA6841F24933C2F20003A8
S31520000BE0536207F11007BD4680BD00BF80B489B0AF
S31520000BF000AFF860B9607A604FF000033B61FA6895
S31520000C0042F27473C2F200039A4207D0FA6842F2A3
S31520000C103473C2F200039A4200D000BEBB68002B98
S31520000C2000D100BE7B68002B00D100BEFA6842F2DC
S31520000C307473C2F200039A4206D0FA6842F2347301
S31520000C40C2F200039A423DD1BB68002B3AD07B68A2
S31520000C50002B37D0FB681B681B7DFB76FB685A7B15
S31520000C60FB7E42EA0303DAB2FB685A73FB7E03F08B
S31520000C702003002B23D04FF01003FB617B680F2B42
S31520000C8001D87B68FB614FF000037B610EE0FB68B7
S31520000C901B68B9683A690A4412781A703B6903F1ED
S31520000CA001033B617B6903F101037B617A69FB697F
S31520000CB09A42ECD37A687B69C3EB02037B607B683C
S31520000CC0002BC7D107F12407BD4680BC704700BF63
S31520000CD0684620F007018D4689B500AF42F2747050
S31520000CE0C2F2000000F01AFABD46BDE889408546EA
S31520000CF0704700BF684620F007018D4689B500AFD2
S31520000D0042F23470C2F2000000F008FABD46BDE897
S31520000D1089408546704700BF80B588B000AF7860AF
S31520000D2039607A6842F27473C2F200039A4207D09D
S31520000D307A6842F23473C2F200039A4200D000BEAF
S31520000D407A6842F27473C2F200039A4207D07A6834
S31520000D5042F23473C2F200039A4240F0A4807B68C8
S31520000D603A689A6001F0A8FA7A6842F27473C2F27D
S31520000D7000039A4206D142F2CC63C2F200031B68FA
S31520000D80FB6105E042F2D063C2F200031B68FB61FF
S31520000D90FB694FEAC3023B68B2FBF3F37B617B69D5
S31520000DA04FEA53033B613B694FEA9313FB60FB68B1
S31520000DB04FEA83133A69C3EB0203BB61FB684FEA30
S31520000DC0C3137A69C3EB0202BB694FEA4303C3EB41
S31520000DD00203BA691344BB61FA684FF6FF739A425D
S31520000DE000D900BEFA684FF6FF739A425BD8FB68BB
S31520000DF0012B31D97B681B6803F10C0318464FF091
S31520000E000701FFF751FE7B681B68FA684FEA12223A
S31520000E10D2B21A717B681B68FA68D2B21A707B68E4
S31520000E201B6803F10C0318464FF00701FFF75CFE21
S31520000E307B681B6803F1300318464FF00701FFF764
S31520000E4033FEBB69FF2B00D900BE7B681B68BA69DD
S31520000E50D2B283F83C2026E07B681B6803F10C03A2
S31520000E6018464FF00701FFF71FFE7B681B68FA68DC
S31520000E704FEA1222D2B21A717B681B68FA68D2B284
S31520000E801A707B681B6803F10C0318464FF00701A4
S31520000E90FFF72AFE7B681B6803F1300318464FF0E4
S31520000EA00701FFF721FE07F12007BD4680BD00BFE1
S31520000EB080B584B000AFF860B9601346FB71FA685C
S31520000EC042F27473C2F200039A4207D0FA6842F2E1
S31520000ED03473C2F200039A4200D000BEFA6842F28E
S31520000EE07473C2F200039A4224D1FB684FF0804209
S31520000EF01A60FB684FF00A021A7148F20003C4F226
S31520000F00030348F20002C4F20302926C42F080020C
S31520000F109A644FF00A00FFF7A9FD48F20003C4F2D5
S31520000F20030348F20002C4F20302926C22F080020C
S31520000F309A6425E0FA6840F20003C4F201031360C4
S31520000F40FB684FF00B021A7148F20003C4F2030348
S31520000F5048F20002C4F20302926C42F480729A6450
S31520000F604FF00B00FFF782FD48F20003C4F20303A3
S31520000F7048F20002C4F20302926C22F480729A6450
S31520000F80FB681B684FF000021A71FB681B684FF064
S31520000F9000021A72FB681B6803F1080318464FF01B
S31520000FA00101FFF781FDFB681B6803F10803184662
S31520000FB04FF00201FFF778FDFB681B6803F1080379
S31520000FC018464FF00001FFF76FFDFB681B6803F121
S31520000FD0100318464FF00401FFF786FDFB681B68D7
S31520000FE003F1100318464FF00501FFF77DFDFB685E
S31520000FF01B6803F1340318464FF00101FFF774FD17
S31520001000FB681B6803F1340318464FF00001FFF715
S315200010106BFDFB681B6803F1380318464FF001018E
S31520001020FFF762FDFB681B6803F1300318464FF09B
S315200010300501FFF759FDFB681B6803F130031846CD
S315200010404FF00601FFF750FDFB681B6803F13003E4
S3152000105018464FF00701FFF747FDFB681B6803F1B1
S31520001060380318464FF00301FFF73EFDFB681B6867
S315200010704FF0000283F84420FB681B684FF0000203
S3152000108083F84820FB681B684FF0000283F84C2049
S31520001090F868B968FFF740FEFB681B68FA791A738F
S315200010A0FB68BA689A60FB68FA791A73FB684FF096
S315200010B000025A61FB684FF000021A61FB684FF08C
S315200010C000029A61FB684FF000021A62FB684FF03B
S315200010D000025A62FB684FF00002DA61FB684FF0AB
S315200010E000029A62FB684FF00002DA62FB684FF05A
S315200010F000021A63FB684FF000025A63FB684FF048
S3152000110000029A63FB684FF00002DA63FB684FF037
S3152000111000025A7307F11007BD4680BD80B584B022
S3152000112000AF78607A6842F27473C2F200039A4282
S3152000113007D07A6842F23473C2F200039A4200D092
S3152000114000BE7A6842F27473C2F200039A4207D054
S315200011507A6842F23473C2F200039A4240F0EF807A
S315200011607B681B681B7ADBB203F00F03FB73FB7BE8
S315200011700C2B00F2D78001A252F823F0B1110020E7
S3152000118025130020CF11002029120020ED11002068
S31520001190251300200B1200202513002025130020E4
S315200011A0251300202513002025130020ED110020F3
S315200011B07B689B6A002B00D100BE7B689B6A002B54
S315200011C000F0B2807B689B6A78689847B7E07B68B6
S315200011D05B6A002B00D100BE7B685B6A002B00F0A7
S315200011E0A5807B685B6A78689847A8E07B681B6A5D
S315200011F0002B00D100BE7B681B6A002B00F0988074
S315200012007B681B6A7868984799E07B68DB69002BC6
S3152000121000D100BE7B68DB69002B00F08B807B68E9
S31520001220DB69786898478AE07B681B6803F12803A6
S3152000123018464FF00001FFF777FC0346002B0CD031
S315200012407B68DB6A002B00D100BE7B68DB6A002B43
S3152000125003D07B68DB6A786898477B681B6803F154
S31520001260280318464FF00101FFF75EFC0346002BCA
S315200012700CD07B681B6B002B00D100BE7B681B6BE0
S31520001280002B03D07B681B6B786898477B681B68AC
S3152000129003F1280318464FF00201FFF745FC0346E9
S315200012A0002B0CD07B685B6B002B00D100BE7B68CB
S315200012B05B6B002B03D07B685B6B786898477B68F9
S315200012C01B6803F1280318464FF00301FFF72CFC97
S315200012D00346002B0CD07B689B6B002B00D100BEF5
S315200012E07B689B6B002B03D07B689B6B7868984749
S315200012F07B681B6803F1280318464FF00401FFF7AB
S3152000130013FC0346002B17D07B68DB6B002B00D128
S3152000131000BE7B68DB6B002B10D07B68DB6B7868AC
S3152000132098470CE000BE0AE000BF08E000BF06E0D8
S3152000133000BF04E000BF02E000BF00E000BF07F1ED
S315200013401007BD4680BD00BF80B586B000AF78606F
S315200013507A6842F27473C2F200039A4207D07A681E
S3152000136042F23473C2F200039A4200D000BE7B6878
S315200013701B69002B00D100BE7B685B69002B00D166
S3152000138000BE7A6842F27473C2F200039A4206D013
S315200013907A6842F23473C2F200039A4255D17B68CE
S315200013A01B69002B51D07B685B69002B4DD07B6875
S315200013B01B681B7DFB727B685A7BFB7A42EA030320
S315200013C0DAB27B685A73FB7A03F02003002B29D00C
S315200013D04FF010033B617B685A697B689B69C3EBBE
S315200013E002037B617B690F2B01D87B693B614FF040
S315200013F00003FB6012E07B681B687A6811697A68D3
S3152000140092690A4412781A707B689B6903F101027B
S315200014107B689A61FB6803F10103FB60FA683B690C
S315200014209A42E8D37B689A697B685B699A420CD1B9
S315200014307B684FF000025A617B681B6803F1040346
S3152000144018464FF00101FFF74FFB07F11807BD467D
S3152000145080BD00BF80B483B000AF0346FB714EF25F
S315200014600013CEF2000397F907204FEA5212F979BA
S3152000147001F01F014FF0010000FA01F143F822109C
S3152000148007F10C07BD4680BC704700BF80B483B00F
S3152000149000AF0346FB714EF20013CEF2000397F91C
S315200014A007204FEA5212F97901F01F014FF001008F
S315200014B000FA01F102F1200243F8221007F10C078D
S315200014C0BD4680BC704700BF80B483B000AF0346E2
S315200014D0FB714EF20013CEF2000397F907204FEA74
S315200014E05212F97901F01F014FF0010000FA01F1C3
S315200014F002F1600243F8221007F10C07BD4680BCBA
S31520001500704700BF80B584B000AF786013460A46A6
S31520001510FA70BB70BB78FB607A6842F2B473C2F291
S3152000152000039A4207D07A6842F62803C2F20003E3
S315200015309A4200D000BE00F063FE0346BB60786886
S315200015404FF000014FF0740201F036F87A6842F24B
S31520001550B473C2F200039A422CD17B684FF0040286
S315200015605A747A6842F20003C4F2000353617A681F
S3152000157040F20003C4F20423936148F20003C4F24C
S31520001580030348F20002C4F20302926C42F40062A2
S315200015909A644FF00400FFF797FF48F20003C4F265
S315200015A0030348F20002C4F20302926C22F40062A2
S315200015B09A642BE07B684FF007025A747A6842F2ED
S315200015C00003C4F2010353617A6840F20003C4F2B7
S315200015D02423936148F20003C4F2030348F2000275
S315200015E0C4F20302926C42F480529A644FF00700D0
S315200015F0FFF76AFF48F20003C4F2030348F2000231
S31520001600C4F20302926C22F480529A647B689B692E
S315200016101A467B68DA61FB784FEA43027B681A60D8
S315200016207B689B69FA684FEA920202F00102DA614E
S315200016307B689B69FA684FEA520202F001025A60FF
S315200016407B689B69FA6802F001021A607B685B6915
S315200016507A681268D2B21A737B689B694FF00102CE
S315200016609A61B86800F0E2FD07F11007BD4680BD1B
S3152000167080B586B000AFF8607A600A46FA727B8041
S31520001680FA6842F2B473C2F200039A4207D0FA68AB
S3152000169042F62803C2F200039A4200D000BE00F0B0
S315200016A0AFFD03467B61FB681B7A002B03D1FB68E9
S315200016B04FF001021A72FB684FF0010283F8722084
S315200016C0FB7A4FEA4302FB685A60FB684FF0000240
S315200016D0DA62FB687A681A627A88FB685A62FB6863
S315200016E04FF000029A62FB684FF0010283F83C201B
S315200016F0FB6897F820201A74FB6893F85C30DBB2FD
S31520001700012B05D1FB684FF0010283F8712004E01C
S31520001710FB689B694FF001025A61FB6893F87030B1
S31520001720012B11D1FB689B694FF00002DA60FB6840
S315200017305B691B79FB74FB7CDBB2FB74FB685B7C0F
S315200017405BB21846FFF7C0FEFB685B7C5BB21846AF
S31520001750FFF780FE786900F069FD07F11807BD469E
S3152000176080BD00BF80B586B000AFF8607A600A46BB
S31520001770FA727B80FA6842F2B473C2F200039A428C
S3152000178007D0FA6842F62803C2F200039A4200D034
S3152000179000BE7B88002B00D100BE7B68002B00D1C9
S315200017A000BEBB8C002B00D100BE3B6A002B00D1B3
S315200017B000BEBB8C002B6AD07B88002B67D000F044
S315200017C01FFD03467B61FB681B7A002B03D1FB6858
S315200017D04FF003021A72FB684FF0030283F872205F
S315200017E0FB7A4FEA4302FB685A60FB684FF000021F
S315200017F0DA62FB687A681A627A88FB685A62FB6842
S315200018004FF000029A62FB683A6A1A63BA8CFB6848
S315200018105A63FB684FF000029A63FB684FF001029F
S3152000182083F83C20FB6897F828201A74FB6893F805
S315200018305C30DBB2012B05D1FB684FF0010283F847
S31520001840712004E0FB689B694FF001025A61FB6836
S3152000185093F87030012B11D1FB689B694FF0000281
S31520001860DA60FB685B691B79FB74FB7CDBB2FB747B
S31520001870FB685B7C5BB21846FFF726FEFB685B7C49
S315200018805BB21846FFF7E6FD786900F0CFFC07F15A
S315200018901807BD4680BD00BF80B485B000AF786014
S315200018A039607A6842F2B473C2F200039A4207D0D2
S315200018B07A6842F62803C2F200039A4200D000BE9C
S315200018C07B683A681A647B6893F83C30FB73FB7B31
S315200018D0012BF8D0FB7B184607F11407BD4680BCC8
S315200018E0704700BF80B483B000AF78607B6893F800
S315200018F06830002B04D07B689B694FF001029A6008
S3152000190007F10C07BD4680BC704700BF80B584B088
S3152000191000AF78604FF00103BB737A6842F2B4736C
S31520001920C2F200039A4207D07A6842F62803C2F22E
S3152000193000039A4200D000BE7B685B691B79FB726C
S31520001940FB7ADBB2A3F10803D02B00F21C8401A2A0
S3152000195052F823F0991C002087210020872100209F
S315200019608721002087210020872100208721002031
S3152000197087210020991C0020872100208721002014
S315200019808721002087210020872100208721002011
S31520001990872100203D1D002087210020872100204F
S315200019A087210020872100208721002087210020F1
S315200019B087210020191D0020872100208721002053
S315200019C087210020872100208721002087210020D1
S315200019D0872100203D1D002087210020872100200F
S315200019E087210020872100208721002087210020B1
S315200019F087210020D11D002087210020872100205B
S31520001A008721002087210020872100208721002090
S31520001A10872100200D1D00208721002087210020FE
S31520001A208721002087210020872100208721002070
S31520001A3087210020F51D00208721002087210020F6
S31520001A408721002087210020872100208721002050
S31520001A5087210020451E0020872100208721002085
S31520001A608721002087210020872100208721002030
S31520001A7087210020691E0020872100208721002041
S31520001A808721002087210020872100208721002010
S31520001A9087210020A31E00208721002087210020E7
S31520001AA087210020872100208721002087210020F0
S31520001AB087210020451F0020872100208721002024
S31520001AC087210020872100208721002087210020D0
S31520001AD0872100203B1F002087210020872100200E
S31520001AE087210020872100208721002087210020B0
S31520001AF087210020451F00208721002087210020E4
S31520001B00872100208721002087210020872100208F
S31520001B10872100203B1F00208721002087210020CD
S31520001B20872100208721002087210020872100206F
S31520001B3087210020871F0020872100208721002061
S31520001B40872100208721002087210020872100204F
S31520001B5087210020071F00208721002087210020C1
S31520001B60872100208721002087210020872100202F
S31520001B7087210020871F0020872100208721002021
S31520001B80872100208721002087210020872100200F
S31520001B9087210020071F0020872100208721002081
S31520001BA087210020872100208721002087210020EF
S31520001BB087210020E31F0020872100208721002085
S31520001BC087210020872100208721002087210020CF
S31520001BD087210020BB20002087210020872100208C
S31520001BE087210020872100208721002087210020AF
S31520001BF087210020BB20002087210020872100206C
S31520001C00872100208721002087210020872100208E
S31520001C1087210020BB20002087210020872100204B
S31520001C20872100208721002087210020872100206E
S31520001C30872100204D210020872100208721002098
S31520001C40872100208721002087210020872100204E
S31520001C50872100204D210020872100208721002078
S31520001C60872100208721002087210020872100202E
S31520001C70872100208721002087210020872100201E
S31520001C80872100208721002087210020872100200E
S31520001C90872100208D2000207B689B694FF0000261
S31520001CA05A617B685B697A685268D2B21A727B681D
S31520001CB09B697A68D26AC3F800217B68DB6A002BAD
S31520001CC004D17B684FF000029A6207E07B68DB6AEA
S31520001CD0012B03D17B684FF000029A637B6893F84F
S31520001CE07130002B04D07B684FF0000283F87120FE
S31520001CF07B681A7A7B6893F872309A4200F0678282
S31520001D007B6893F872207B681A7269E27B689B690C
S31520001D104FF001025A6163E27B689B694FF0010232
S31520001D201A617B684FF0020283F83C207B684FF0F3
S31520001D3000021A727868FFF7D5FD51E27B689A6A2D
S31520001D407B685B6A9A420DD27B685A697B68196AFE
S31520001D507B689B6A19440978117203F101027B683A
S31520001D609A623DE27B681B7A032B09D17B684FF090
S31520001D700102DA627B689B694FF001025A612FE209
S31520001D807B684FF000021A727B681B7C03F001030C
S31520001D907B737B687A7B83F870207B7B002B08D152
S31520001DA07B689B694FF001021A617868FFF79AFDFC
S31520001DB008E07B685B7C5BB21846FFF767FB4FF059
S31520001DC00003BB737B684FF0000283F83C2007E2D8
S31520001DD07B689B694FF001021A617B684FF0020213
S31520001DE083F83C207B684FF000021A727868FFF770
S31520001DF079FDF5E17B685B6B012B05D97B689B69D7
S31520001E004FF001029A60EBE17B685B6B012B05D1F9
S31520001E107B689B694FF000029A60E1E17B689B69D1
S31520001E204FF001029A607B689B694FF001021A61AC
S31520001E307B684FF0000283F83C207B684FF000025D
S31520001E401A72CDE17B689B694FF001021A617B68AB
S31520001E504FF0020283F83C207B684FF000021A7292
S31520001E607868FFF73FFDBBE17B681A6B7B689B6B4D
S31520001E701A4479684969097AC9B2117003F10102D5
S31520001E807B689A637B689A6B7B685B6B03F1FF3395
S31520001E909A42C0F09E817B689B694FF000029A604F
S31520001EA09EE17B681A6B7B689B6B13447A68526948
S31520001EB0127AD2B21A707B681B7C03F001037B7303
S31520001EC07B687A7B83F870207B7B002B08D17B682C
S31520001ED09B694FF001021A617868FFF703FD08E05D
S31520001EE07B685B7C5BB21846FFF7D0FA4FF00003A5
S31520001EF0BB737B684FF000021A727B684FF00002BA
S31520001F0083F83C206CE17B689B694FF001029A6064
S31520001F107B684FF000021A727B684FF0000283F84C
S31520001F205C207B6893F87130002B00F054817B682D
S31520001F309B694FF001025A6152E17B684FF0010222
S31520001F4083F871207B684FF004021A727B684FF089
S31520001F5000029A657B684FF00002DA607B689B6915
S31520001F605B69002B09D07B689B694FF000025A61A0
S31520001F707B684FF0010283F871207B684FF00102E5
S31520001F8083F85C202CE17B681B6D002B1CD07B68C2
S31520001F909A6D7B685B6D9A4216D27B685B691B7A69
S31520001FA03B737B681A6D7B689B6D1A44397B117075
S31520001FB003F101027B689A657B68DB684FEA03229E
S31520001FC03B7B1A447B68DA607B689A6D7B685B6D25
S31520001FD09A42C0F002817B689B694FF000029A60AA
S31520001FE0FEE07B681B7A042B35D17B689A6D7B6873
S31520001FF01B6E9A4203D17B68DA687B68DA647B6859
S315200020005B6E002B21D07B685B6E7A68116D7A68D7
S31520002010926D92B2786898470346FB73FB7B002B40
S3152000202008D17868FFF75EFC7B689B694FF0010258
S315200020309A6017E07B689B694FF000029A607B6884
S315200020404FF0000283F868200CE07B689B694FF014
S3152000205001029A6006E07B684FF00002DA64786835
S31520002060FFF740FC7B684FF0000283F85C207B681A
S3152000207093F87130002B04D07B689B694FF00102E6
S315200020805A617B684FF000021A72A9E07B684FF014
S3152000209000021A727B684FF00002DA647B6893F8BC
S315200020A05C30DBB2012B04D17B684FF0020283F84F
S315200020B05C207868FFF716FC92E0FB7ADBB2A82B4F
S315200020C01BD17B684FF005021A727B684FF0000225
S315200020D0DA607B684FF0010283F85C207B689B699D
S315200020E05B69002B09D07B689B694FF000025A611F
S315200020F07B684FF0010283F871207B68DA6C7B687D
S315200021009B6C9A4205D37B685B694FF0FF321A724B
S315200021100CE07B685A697B68596C7B68DB6C1944D8
S315200021200978117203F101027B68DA647B68DA6C44
S315200021307B689B6C9A4252D37B689B694FF0000266
S315200021409A607B684FF00002DA6449E07B684FF0C2
S315200021500002DA647B689B694FF001029A607B6813
S315200021604FF0000283F85C207B6893F87130002BD7
S3152000217004D07B689B694FF001025A617B684FF05F
S3152000218000021A722CE07B689B694FF000025A61AC
S315200021907B684FF000021A727B684FF00002DA6407
S315200021A07B6893F83C30DBB2012B04D17B684FF07F
S315200021B0020283F83C207B6893F85C30DBB2012B6B
S315200021C00ED17B684FF0020283F85C2008E000BF46
S315200021D006E000BF04E000BF02E000BF00E000BF51
S315200021E0BB7B002B04D07B689B694FF00002DA6032
S315200021F07B685B691B79FB7207F11007BD4680BDC2
S3152000220080B485B000AFEFF31083BB60BB687B6002
S315200022104FF00103FB60FB6883F310887B68184648
S3152000222007F11407BD4680BC704700BF80B485B057
S3152000223000AF78607B68FB60FB6883F3108807F14A
S315200022401407BD4680BC7047684620F007018D46BE
S3152000225089B500AF42F2B470C2F20000FFF756FB18
S31520002260BD46BDE889408546704700BF684620F0D8
S3152000227007018D4689B500AF42F62800C2F200005C
S31520002280FFF744FBBD46BDE889408546704700BF41
S3152000229080B500AF00F036F94EF60053CEF20003BB
S315200022A04EF60052CEF20002526942F400725A6192
S315200022B0FEF7C0F880BD00BF80B588B000AF48F2F9
S315200022C00003C4F20303D3F8983003F08063FB6065
S315200022D0FB68002B40F08B8048F20003C4F2030316
S315200022E0D3F8983003F480537B617B69002B3FD170
S315200022F042F2C863C2F200034EF2C062C0F2CE724E
S315200023001A6042F2CC63C2F2000347F26032C0F296
S31520002310E7321A6042F2D063C2F2000347F260321B
S31520002320C0F2E7321A6042F2D463C2F200034BF6DF
S31520002330B012C0F2F3121A6042F2D863C2F200035E
S315200023404EF2C062C0F2CE721A6042F2DC63C2F272
S3152000235000034EF2C062C0F2CE721A6042F2E0630F
S31520002360C2F200034EF2C062C0F2CE721A6045E09D
S3152000237042F29463C2F2000307F1040293E80300D9
S3152000238082E8030048F20003C4F20303D3F89C302A
S315200023904FEA931303F00703BB61BB6907F12002E1
S315200023A0134413F81C3CFB77FB7F012B0BD0022B2D
S315200023B00ED0002B14D100F025F803463B61386976
S315200023C000F042F81AE04FF4004000F03DF815E026
S315200023D044F24020C0F20F0000F036F800BF0DE0B6
S315200023E044F24020C0F20F0000F02EF806E000F084
S315200023F009F803463B61386900F026F807F1200703
S31520002400BD4680BD80B483B000AF48F20003C4F25D
S315200024100303D3F8503103F004033B603B68002BE1
S3152000242005D147F64003C0F27D137B6004E04FF2EE
S315200024308003C0F2FA237B607B68184607F10C07FD
S31520002440BD4680BC704700BF80B483B000AF7860C3
S3152000245042F2C863C2F200037A681A6042F2CC6381
S31520002460C2F200037A681A6042F2D063C2F2000315
S315200024707A681A6042F2D463C2F200034BF6B012B5
S31520002480C0F2F3121A6042F2D863C2F200037A68ED
S315200024901A6042F2DC63C2F200037A681A6042F2E2
S315200024A0E063C2F200037A681A6007F10C07BD46A2
S315200024B080BC704780B483B000AF48F20003C4F2FA
S315200024C00303D3F84C317B607A684FF602039A42B5
S315200024D006D04FF60203C0F201039A4204D007E069
S315200024E04FF001033B6006E04FF002033B6002E041
S315200024F04FF000033B603B68184607F10C07BD46CA
S3152000250080BC704780B582B000AFFFF7D3FF03468B
S315200025107B607B68012B01D100F004F807F10807E6
S31520002520BD4680BD80B400AF48F20003C4F2030369
S3152000253048F20002C4F20302D2F8982042F48072D4
S31520002540C3F8982048F20003C4F2030348F20002BD
S31520002550C4F20302D2F8982022F08062C3F89820B1
S31520002560BD4680BC704700BF70B542F2B46642F2E9
S31520002570B465C2F20006C2F20005761BB61006D07C
S31520002580002455F8243001349847A642F9D842F25F
S31520002590B46542F2B866C2F20005C2F20006761BA6
S315200025A000F07CF8B61006D0002455F8243001340B
S315200025B09847A642F9D870BD032AC9B230B407D8C5
S315200025C022B10023C15401339342FBD130BC704762
S315200025D000EB020C034601E003F8011C03F00304A0
S315200025E01A460133002CF7D14FF00133C2EB0C040D
S315200025F003FB01F31FE042F8403C42F83C3C42F822
S31520002600383C42F8343C42F8303C42F82C3C42F804
S31520002610283C42F8243C42F8203C42F81C3C42F834
S31520002620183C42F8143C42F8103C42F80C3C42F864
S31520002630083C42F8043C154640323F2CA4F14004A5
S31520002640D9DC2A46C5EB0C0407E042F8103C42F8D8
S315200026500C3C42F8083C42F8043C154610320F2C3C
S31520002660A4F11004F1DC2A46C5EB0C0501E042F882
S31520002670043C14460432032DA5F10405F7DC01E0E1
S3152000268004F8011B6445FBD3A0E700BF7427002094
S31520002690460000000001000102020303F8B500BF56
S315200026A0F8BC08BC9E467047F8B500BFF8BC08BC0D
S315200026B09E467047D5040020C1040020000000007B
S315200026C00000000003000000C0E6CE076073E703A9
S315200026D06073E703B0B9F301C0E6CE07C0E6CE07C4
S315200026E0C0E6CE0700000000000000000000000049
S7052000019148
