S01A00007573625F6465766963655F6364635F7663702E73726563C0
S113000000000120910100007F0300008103000033
S11300108303000085030000870300000000000044
S11300200000000000000000000000008903000040
S11300308B030000000000008D0300008F0300000C
S11300409103000093030000950300009703000050
S1130050990300009B0300009D0300009F03000020
S1130060A1030000A303000041510000215100003E
S1130070A9030000AB030000AD030000AF030000C0
S1130080B1030000B3030000B50300005D5B000092
S11300909D090000350D0000BD030000BF030000F2
S11300A0C1030000C3030000C5030000E98500008C
S11300B00D870000CB030000CD030000CF03000038
S11300C0D1030000D3030000D5030000D7030000D0
S11300D0D9030000DB030000DD030000DF030000A0
S11300E0E1030000E3030000E5030000E703000070
S11300F0E9030000EB030000ED030000EF03000040
S1130100F1030000F3030000F5030000F70300000F
S1130110F9030000FB030000FD030000FF030000DF
S113012001040000030400000504000007040000AB
S1130130090400000B0400000D0400000F0400007B
S1130140110400001304000015040000170400004B
S1130150190400001B0400001D0400001F0400001B
S113016021040000230400002504000027040000EB
S1130170290400002B0400002D0400002F040000BB
S113018031040000330400000000000000000000FF
S11301904FF0000BDFF8BE020068DFF8B612096802
S11301A001F0030100F01C00142801D14BF0020BF4
S11301B0002901D04BF0010BBBF1000F05D0A7487B
S11301C0A749DFF8722200F09FF8A64880470BF099
S11301D0020ABAF1000F0CD0DFF86E02DFF86E12DB
S11301E002680B680FB44FF000024FF0FF03026087
S11301F00B609D489D4A9E4B022808D1DFF83E12B1
S11302000A60DFF842120A60DFF836120B60012838
S113021008D1DFF82E120A60DFF82A120A60DFF82C
S11302201E120B609348002809D193489349944ABD
S113023000F032F893489449944A00F02DF8944819
S11302409449954A00F028F894489549DFF8E62146
S113025000F05AF8BBF1000F12D092489249DFF82F
S1130260DA2100F051F80BF0020ABAF1000F07D0BE
S11302700FBC02600B6000BFAFF30080AFF30080DF
S1130280DFF828020FF2030E00474FF000004FF092
S11302900001DFF81CF2FEE72DE9F841884225D081
S11302A0B2EB010200D5FEE740EA010313F00303B9
S11302B002D000F01DF819E04FF00003904612112F
S11302C0F7D09A421CBFF0C8F0C103F10103F8D182
S11302D008F00F08B8F1000F08D004780C7000F192
S11302E0010001F10101B8F10108F6D1BDE8F8817E
S11302F008B54FF0000303780B7000F1010001F121
S11303000101013AF7D108BD884237D000F0030655
S1130310002E14D04FF00405A5EB06044FF0080797
S113032007FB06F8914669FA08F9002C07D080F813
S1130330009069FA07F900F10100013CF5E74FF07C
S113034000060F46091A88460911914614461546B7
S1130350B14206D018BFA0E8340206F10106B1424A
S1130360F8D108F00F08B8F1000F07D002704FEA77
S1130370322200F10100B8F10108F4E77047FEE70A
S1130380FEE7FEE7FEE7FEE7FEE7FEE7FEE7FEE741
S1130390FEE7FEE7FEE7FEE7FEE7FEE7FEE7FEE731
S11303A0FEE7FEE7FEE7FEE7FEE7FEE7FEE7FEE721
S11303B0FEE7FEE7FEE7FEE7FEE7FEE7FEE7FEE711
S11303C0FEE7FEE7FEE7FEE7FEE7FEE7FEE7FEE701
S11303D0FEE7FEE7FEE7FEE7FEE7FEE7FEE7FEE7F1
S11303E0FEE7FEE7FEE7FEE7FEE7FEE7FEE7FEE7E1
S11303F0FEE7FEE7FEE7FEE7FEE7FEE7FEE7FEE7D1
S1130400FEE7FEE7FEE7FEE7FEE7FEE7FEE7FEE7C0
S1130410FEE7FEE7FEE7FEE7FEE7FEE7FEE7FEE7B0
S1130420FEE7FEE7FEE7FEE7FEE7FEE7FEE7FEE7A0
S1130430FEE7FEE7704700000000A2A2A2A200802F
S11304400340088003401080034030800340348020
S113045003403880034018080240000000F00020E8
S113046000000120658A0000000000000000000078
S11304700100000000000000000000000000000077
S113048090010000C0040000C0040000708F000050
S1130490708F000000000020D0050020D00500204F
S11304A0700C0020700C002000F00020998B0000DC
S11304B00D050000AFF30080AFF30080AFF30080C0
S11304C040F2D053C2F200031A780AB9012018701E
S11304D0704700BF40F20000C2F2000008B5036894
S11304E02BB140F20003C0F2000303B1984708BDEA
S11304F029B928B940F2D451C2F20001086070470A
S113050040F2D453C2F20003186070472DE9F04161
S113051000210A464FF4165082B0082300F0B0F9C7
S113052040F62440C2F200004FF4E131032205F00A
S1130530D3F800F0FFF80228FBD140F2D456C2F2FF
S1130540000640F2F142C0F200024FF40071301D87
S113055000F062F940F208007021C2F2000000F0DD
S11305607BF940F62440C2F20000264903F0F6FE6F
S113057001AC37464FF000080DE000F0D5F8012833
S11305801ED040F62440C2F200002146032203F0AC
S113059089FF054640BB3368002BEED039681A4802
S11305A000F05AF940F624403A68C2F200001649B5
S11305B003F07EFEC7F8008000F0B6F80128E0D111
S11305C040F2F142C0F200024FF400710E4800F014
S11305D023F940F62440C2F200002146032203F02E
S11305E061FF05460028D6D040F624402146C2F2D9
S11305F00000032203F05CFE2046294600F02CF99B
S1130600C9E700BF78000020D8050020122303604A
S113061040F2E800C2F20000704700BF18B10A229D
S113062003480A6070470A230B600248704700BF02
S113063008010020FC000020031E18BF012300292C
S11306400CBF002303F0010310B4BBB10278BAB1AC
S11306500B4604464FF0000C9A7083F803C014F85C
S1130660012F0233002AF7D1C0F1010213195800F7
S1130670C0B203224A70087010BC70470220FBE726
S11306800446F1E710B50C46052815D8DFE800F05C
S113069020252C333A0348F6B05040F65C31C0F2C2
S11306A00000C2F20001FFF7C7FF40F65C33C2F25C
S11306B000032060184610BD164A40F65C33C2F2AF
S11306C000030021002808BF13462160184610BD0E
S11306D004230B600F4B184610BD48F6785040F6C3
S11306E05C31C0F20000DCE748F6885040F65C312B
S11306F0C0F20000D5E748F6A05040F65C31C0F2E5
S11307000000CEE748F6A85040F65C31C0F2000085
S1130710C7E700BF1401002040F22410C2F2000019
S1130720037803B17047FEE740F22413C2F20003DA
S11307301878704740F2DC73C2F2000318787047EF
S113074040F2241340F2DC710122C2F20003C2F22F
S113075000010A705A701A70704700BF40F2DC73CF
S1130760C2F2000300221A70704700BF4378212BA5
S11307701CD0222B10D0202B01D0002070470E4813
S113078040F2DC73086007201060C2F2000359785D
S113079001200A185A707047B0F802C040F2DC72A7
S11307A0C2F2000282F802C0012070470248072307
S11307B0086013600120704728010020012805D833
S11307C040F22413C2F2000301221A700120704780
S11307D040F2241310B502460124C2F20003084675
S11307E05C701146DB689847204610BD01207047B5
S11307F040F2DC73C2F200035A78012A03D10021CB
S11308000220597018700120704700BF00230B604C
S113081003607047704700BF08B540F2DC73C2F252
S113082000031B7853B1B0F1000C18BF4FF0010C5A
S1130830002A0CBF00230CF001030BB9002008BDF3
S113084040F22413C2F20003DA6000225A7002F06C
S1130850ABF9012008BD00BF40F2DC72C2F2000215
S113086008B5137853B148B140F22413C2F200031F
S113087000221A7002F04CF9012008BD002008BDC6
S11308802DE9F04748F200050024C4F20305EC66A4
S11308901E4615460F46804607F096FF2046052162
S11308A007F0DEFF2146204607F0E6FF40F2241A57
S11308B040F21810C2F2000AC2F20000CAF8048022
S11308C08AF808708AF809508AF80A6000F0ECFD8A
S11308D00AF11000214602F06DF92046BDE8F04708
S11308E002F040B8704700BF704700BF704700BFB8
S11308F0704700BF704700BF704700BFEFF3108020
S113090072B6704780F310887047016070470068C2
S113091070470EB503FA01F303EA020301686FEAB4
S1130920020201EA020141EA030101600EBD00680E
S113093000EA020020FA01F0704701807047008845
S113094070470EB503FA01F303EA020301886FEA64
S1130950020201EA020141EA030101800EBD00889E
S113096000EA020020FA01F0704701707047007835
S113097070470EB503FA01F303EA020301786FEA44
S1130980020201EA020141EA030101700EBD00788E
S113099000EA020020FA01F0704700006B4623F0E1
S11309A007018D462DE9F84543F20003C4F2040320
S11309B0987A82B08DF807005A881FFA82FCADF845
S11309C004C0998888B2ADF802009DF8072012F09F
S11309D0200F0AD093F86000C2098DF806209DF814
S11309E006C0BCF1010F00F0528143F20000C4F2D2
S11309F0040090F860C01CF0040F11D19DF807307A
S1130A0013F0020F40F005819DF807C01CF0010FA0
S1130A1040F00B819DF8072012F0040F40F0118183
S1130A20BDF8043013F0010F40F0D580BDF804C0C8
S1130A302CF001031904080C00285DD0BDF8043023
S1130A4023F001010804020CADF80420BDF80440B1
S1130A50A4B2002C50D0012543F2000640F2601AE3
S1130A60C4F20406C2F2000AA8463FE008FA05F7F9
S1130A70F188BFB288B220EA0702F28096F860C01B
S1130A801CF0040F2AD105F110031A0102F1804C65
S1130A900CF58622B2F802E01EF0040107D0B2F889
S1130AA002E001212EF004000004000C50801A0121
S1130AB002F1804303F58623B3F802C01CF0200F33
S1130AC008D0B3F802E041F002012EF02000020445
S1130AD0100C5880DAF8043028469847B6F806C057
S1130AE01FFA8CF10F43F7800135EDB2640814F05E
S1130AF0010FBBD1002CF7D1BDF8021021F0010386
S1130B001804020C002A61D0BDF80240A4B2002CE3
S1130B105CD0012543F2000640F2601AC4F20406D8
S1130B20C2F2000AA8464BE008FA05F73389BFB2BF
S1130B3098B220EA0702328196F860C01CF0040FD4
S1130B4036D105F11002100100F1804101F5862330
S1130B50B3F806E01EF0040107D0B3F806C0012183
S1130B602CF004000004000CD880100100F1804334
S1130B7003F58623B3F806E01EF0400F08D0B3F85F
S1130B8006C041F002012CF040000004000CD880A3
S1130B90130103F1804000F58623B3F806E0DAF888
S1130BA000201EF0080F18BF41F0040128469047AA
S1130BB0B6F808C01FFA8CF10F4337810135EDB246
S1130BC0640814F0010FAFD1002CF7D102B0BDE8D6
S1130BD0F1458546704743F20003C4F20403002242
S1130BE09A7393F8600010F0040F7FF41FAF598AD2
S1130BF05A8A11F0040F56D022F0040211040A0C90
S1130C0040F260105A82C2F20000836802209847C2
S1130C100CE740F26011C2F200010A6A90479DF8A5
S1130C2007C01CF0010F3FF4F5AE40F26013C2F2AE
S1130C300003D86980479DF8072012F0040F3FF4A1
S1130C40EFAE43F20003C4F2040300229A7393F854
S1130C500BC040F6AC314CF0210EC2F2000183F817
S1130C600BE00A709A725A8A40F2601190B240F016
S1130C70800CA3F812C0B3F812E0C2F200012EF007
S1130C8004021004020C5A8288698047C8E6D97AA3
S1130C9040F2601241F0040E83F80BE0C2F200024D
S1130CA0536A9847A1E612F0100011D0588A40F216
S1130CB060121FFA80FC4CF0800EA3F812E0598AEF
S1130CC0C2F20002C843936800F001009847ADE601
S1130CD040F6AC32C2F2000211788C46A9B192F807
S1130CE000C0BCF1010F1DD0117802297FF49EAE23
S1130CF0B3F812C01CF0010F3FF498AE40F260123A
S1130D00C2F20002D368984790E65B8A13F0010FA1
S1130D103FF48CAE40F26011C2F200018A68604672
S1130D20904783E640F26012C2F2000213699847CA
S1130D307CE600BF684620F007018D462DE9F145A9
S1130D4043F20003C4F20403D3F8004282B0E4B2D5
S1130D50002C40D0002640F260189A46C2F20008E7
S1130D60354609E05A6846F0400622F4807159601D
S1130D70640830D00135EDB214F0010FF8D043F21D
S1130D8000232801C4F20403C3185A6822F00101A5
S1130D905960586800F0F00C8DF807C09DF8070002
S1130DA059685A6812F4807FDCD12A0102F1804C20
S1130DB00CF58623C1F340010009D3F8083279B950
S1130DC09AF8602012F0040FD2D1D8F82870324675
S1130DD0B8476408CED102B0BDE8F14585467047F6
S1130DE043F200124FEA001CC4F204026244B2F857
S1130DF002C01CF4805F1FBFB2F802C02CF4805CF8
S1130E004FEA0C4C4FEA1C4C18BFA2F802C0D7E7BB
S1130E1010B4012A029C9DF804C001D010BC704794
S1130E201A0102F1804202F58622BCF1020FC2F8D7
S1130E30081218D043F200130001C4F20403C118CD
S1130E40CA885004420CCA80B1F806C02CF4006071
S1130E500204100CC880B1F806C02CF4005210042F
S1130E60020CCA80DAE743F200110001C4F2040163
S1130E704118C8881FFA80FC4CF40060C880B1F89F
S1130E8006C01FFA8CF040F4004CA1F806C0C888D4
S1130E901FFA80FC4CF40050C880C2F80C42002CAD
S1130EA0BCD043F200201B01C4F204001A1851689C
S1130EB041F001035360B1E770B4041E18BF01246C
S1130EC000290CBF002404F00104059D9DF80CC00A
S1130ED0002C5CD0012A5CD0C5F38F040CB30E68DF
S1130EE043F20002631EC4F2040200F1080C42F84B
S1130EF02C6003F0010601239C4212D92EB14E68E6
S1130F0002239C4242F82C600BD951F82360013330
S1130F1042F82C6051F8236001339C4242F82C6063
S1130F20F3D825F003039D4225D9C918DA4343F2C7
S1130F30000411F8016B01335219C4F2040400F1E6
S1130F40080C9D4204F82C6002F0010213D932B15E
S1130F5011F8012B01339D4204F82C200BD90A46C9
S1130F6012F8016B023304F82C604E78511C9D4238
S1130F7004F82C60F3D843F200130001C4F2040314
S1130F80C1184A8890B240F0010CA1F802C070BCAC
S1130F9070471A0102F1804404F58624BCF1020F63
S1130FA0C4F8081243F2001217D00101C4F204027B
S1130FB08A18B2F802C02CF480500104080C508046
S1130FC0C4F80C5243F200211B01C4F204015A1864
S1130FD0506840F001035360D9E70101C4F20402F0
S1130FE08A1850881FFA80FC04984CF48051518070
S1130FF0C4F80C02E6E700BF70B443F2000CC4F27C
S1131000040C9DF80C6000F120040CEB0414350171
S1131010666805F0FF053543656065685B0245EA6F
S113102041016160616803F4C06341EA8202626065
S113103062680CEB001113436360049AC1F8082240
S1131040606840F00803636070BC704770B4447813
S113105045880178012C14BF0123022395FBF3F387
S11310600D1E18BF0125072B94BF002205F00102B5
S1131070002A54D043F20002C4F20402DB08917344
S113108013F0010240F0D1805B08013213F0010F2C
S1131090D2B2F9D042EA041243F200035FFA82FCAE
S11310A0C4F2040383F862C0828843F20003C4F2EA
S11310B00403D208012C9973A3F8642034D0002CC3
S11310C040D00289037D5DB112F0070F14BF0024E4
S11310D00124002B0CBF002404F00104002C41D196
S11310E001F110031A0102F1804303F58623B3F8DA
S11310F002C01FFA8CF242F0400CA3F802C08279BD
S1131100012A4FD0012313FA01F043F20003C4F281
S11311100403DA88104381B2D98070BC7047828896
S1131120002DC2D1012CCAD18C4043F20003C4F279
S11311300403B3F842231FFA82FC2CEA0404A3F844
S11311404243BEE7012313FA01F243F20003C4F25F
S11311500403B3F842C342EA0C021FFA82FCA3F868
S113116042C3AEE71F2BBBD85E1E43F2000C01F155
S11311701003C4F2040C1C01B5B24FF0000624F8AD
S11311800C6024F80C5034F80C50ED0205F478454A
S113119024F80C5034F80C50ADB245EA020224F89D
S11311A00C209FE7047B5A88022C32D022F48064FE
S11311B02204150C5D805C884FF0000C24F48052EE
S11311C015042C0C5C80C27943F200251401C4F28E
S11311D0040563195D680C0104F0FF042C435C6092
S11311E05C68120144F002045C605C6880694CEA4B
S11311F004045C605C6802F1804202F5862244F4D7
S1131200C0645C60C2F808025A6842F00800586082
S113121078E792B242F480655D805C884FF0040CFC
S1131220A2B242F480555D80CDE7002232E700BFD0
S113123030B4447845880178012C14BF012302237B
S113124095FBF3F30D1E18BF0125072B94BF002255
S113125005F00102002A56D043F20002C4F204024F
S1131260DB08917313F0010240F0D2805B08013275
S113127013F0010FD2B2F9D042EA041243F2000390
S11312805FFA82FCC4F2040383F863C0828843F2E9
S11312900003C4F20403D208012C9973A3F8662056
S11312A036D0002C42D0028990F814C0002A0CBF1A
S11312B0002505F0010515B112F0070546D001F12E
S11312C010031A0102F1804303F58623DA881FFA1A
S11312D082FC4CF08002DA80B3F806C02CF00102E4
S11312E01204120CDA808279012A50D0012313FAF5
S11312F001F043F20003C4F204031A89104381B2DB
S1131300198130BC70478288002DC0D1012CC8D10E
S11313108C4043F20003C4F20403B3F840231FFAE1
S113132082FC2CEA0404A3F84043BCE7012313FA2B
S113133001F243F20003C4F20403B3F840C342EAE7
S11313400C021FFA82FCA3F840C3ACE7BCF11F0FE8
S1131350B5D801F110031C0104F180440CF1FF3CE9
S113136004F586241FFA8CFCA580A4F804C0B4F804
S113137004C04FEACC2C0CF4784CA4F804C0B4F8A4
S113138004C01FFA8CFC4CEA0202A28099E7057B98
S1131390DA88022D30D022F400652A04140CDC8093
S11313A0DD884FF0000C25F400521404250CDD8078
S11313B0C27943F200251401C4F2040563195D687F
S11313C00C0104F0FF042C435C605C6812015C6057
S11313D05C6880694CEA04045C605C6802F18042E9
S11313E002F5862244F4C0645C60C2F808025A68BC
S11313F042F00800586079E792B242F40064DC805D
S1131400DD884FF0040CAAB242F40054DC80CFE72C
S1131410002231E730B448F6C05C8EB0C0F2000C54
S11314206D46BCE80F000FC5BCE80F002C460FC486
S1131430BCE80F0025460FC59CE803002860217511
S1131440009843F20003C4F204031862019A1A627A
S11314500299196203981862049A1A62059919622A
S113146006981862079A1A6208991962099818620C
S11314700A9A1A620B99082219620C9818629DF84C
S113148034C083F820C0DA73598A88B240F002026B
S11314905A82B3F806C02CF001010804020CDA8069
S11314A00EB030BC704700BF40F6A033C2F2000358
S11314B01860704740F69C33C2F20003186070470E
S11314C040F2E07C2C22C2F2000C02FB00C343F287
S11314D0001200010121C4F2040299728218518899
S11314E088B240F010035380704700BF43F20013EA
S11314F00201C4F20403D318B3F802C02CF01001A3
S11315000804020C5A80598888B240F040025A807C
S1131510704700BF43F200120001C4F204028318B2
S1131520598888B240F008025A80704740F2E07C43
S11315302C22C2F2000C02FB00C343F20012000191
S11315400121C4F2040283F8E6108218D18888B21B
S113155040F02003D380704743F200130201C4F229
S11315600403D318B3F806C02CF020010804020CBD
S1131570DA80D98888B240F08002DA80704700BFF0
S113158043F200120001C4F204028318D98888B21D
S113159040F01002DA80704743F20003C4F20403FF
S11315A0598A88B240F480725A82704743F2000329
S11315B0C4F204031878704743F20003C4F204032E
S11315C0587840F080025A70704700BF43F200031D
S11315D0C4F20403587800F07F025A70704700BFC9
S11315E043F200110201C4F2040153185888C0F3F5
S11315F04000704743F200110201C4F20401531881
S1131600D888C0F340007047012212FA00F343F275
S11316100002C4F20402D08881B221EA0303D38019
S1131620704700BF012212FA00F343F20002C4F231
S11316300402108981B221EA03031381704700BFB9
S1131640012212FA00F343F20002C4F20402D18828
S11316500B439BB2D3807047012212FA00F343F28A
S11316600002C4F2040211890B439BB21381704738
S113167043F20003C4F20403D98888B240F00102A3
S1131680DA80704743F20002C4F20402B2F806C0E2
S11316902CF001010804030CD3807047704700BF8D
S11316A043F20002C4F2040292F80BC040F2E07369
S11316B04CF00200D072C2F2000393F8BB21062161
S11316C083F8BB1183F8BC21704700BF40F2E0737C
S11316D0C2F2000393F8BC2183F8BB21704700BF1A
S11316E043F20002C4F204024FF0000C40F69C31B5
S11316F0A2F808C0C2F200010B6810B5D48840F209
S1131700E070C2F200004EF2001104F001045B68C4
S1131710D480CEF2000180F8BBC14FF480124FF4A4
S11317200010C1F88001C1F880210BB1FF20984757
S113173010BD00BF402AF8B52CD001292BD049BBDD
S1131740374C4FF02C0C0CFB00410C6914BBCC69DA
S113175004B3B1F808C0B4FBFCF50CFB1544CCB9D8
S113176043F200154FEA001CC4F2040565448C6979
S1131770B5F806C01C1B1CF4006F0C6247D040F681
S11317809C33C2F2000319684B691BB1114622460F
S11317909847F8BDF8BD00F1100C4FEA0C1404F1A1
S11317A0804101F58621CC8814F4006F23D040F2E7
S11317B0E074C2F200042C2505FB00452C69D4B961
S11317C0EC69C4B12E89B4FBF6F706FB174494B94F
S11317D0B1F802C01CF0010FFAD140F69C31C2F2FC
S11317E000010C68A96924695B1A2B62002CD1D012
S11317F01146A047F8BD4FEA0C1202F1804C0CF5DB
S11318008623598888B240F001025A80F8BDB5F8A1
S113181006C02CF0010319040B0CEB80AFE700BFEA
S1131820BC08002010B440F2E073C2F200031A892D
S1131830002498618A4294BF5A62596218469C6295
S1131840D9611C6210BC01F0D9BA00BF2DE9F04582
S113185011F0020F85B0804614D14FF02C0C0CFB14
S113186000FC40F2E073C2F2000303EB0C00827947
S1131870012A13D0466A076A047BF719022C866290
S113188007621FD040F69C32C2F20002106803695E
S11318900BB14046984705B0BDE8F085C37982692D
S11318A01B0103F1804C0CF58623D3F808329B1AF4
S11318B040F69C32C2F20002036210680369002BF6
S11318C0E7D1E8E7C569AF4200D326D0B0F808A055
S11318D0E91B56464FF0000E5145C0F828E028BFDA
S11318E0466217D313F80CC043F20011C4F204018A
S11318F04FEA0C135918B1F802E01EF0020FFAD1A6
S11319008169C37979186046009401950296FFF7BE
S1131910D3FAC0E741620E46E4E7D0F810A0BAF16A
S1131920010FAFD1002EADD0B0F808A05645CFD0EE
S1131930CED2A7E7F0B5031E18BF012300290CBFC0
S1131940002303F0010385B0144623B32C2202FBC9
S113195000FC40F2E07EC2F2000E0EEB0C02567860
S1131960157B0027012E14BF01260226022D0EF836
S11319700C0097629161D461176215D0032D0CD0CD
S1131980012D18BF566A08D0D37992790095019435
S11319900296FFF791FA05B0F0BD138903FB06F632
S11319A0B44204D35662EFE75688B442FAD854627C
S11319B02646E9E72C222DE9F04F02FB00F2B14B59
S11319C089B09C1811F00F0F0BD040F69C33C2F273
S11319D000031A6853690BB1226A984709B0BDE83D
S11319E0F08F00F1100B4FEA0B1505F1804606F558
S11319F08626B6F806C01CF0010F16D1E569266AE2
S1131A00B4F808C0277BA169985C8919AE1BB4455A
S1131A1094BFC4F824C066620026E379A279A66262
S1131A2000970195FFF7F4F9D8E7050105F1804C1B
S1131A300CF5862594F806C0B5F80851BCF1010FE1
S1131A40ADB200F09380002D76D0A769266ABE1946
S1131A505FEA9509059634D043F20006C4F2040601
S1131A60039600F1080A56F82A704FF0010C059EFF
S1131A7009F1FF38CC45376008EA0C0821D2B8F1E7
S1131A80000F09D0039F4FF0020C57F82A80059EDF
S1131A90CC45C6F8048014D2059E039F0795A04642
S1131AA057F82A500CF1010446F82C5057F82A50E4
S1131AB004F1010CCC4546F82450F1D3079D05965A
S1131AC0444625F0030C654532D96FEA0C0743F20E
S1131AD000087E19C4F20408059F00F1080A18F8EA
S1131AE02A90079607EB0C0606F8019B0CF1010CF3
S1131AF0DDF81C90654509F0010719D93FB118F8C4
S1131B002A700CF1010C654506F8017B10D9A14639
S1131B10474617F82A80344604F8018B17F82A80C0
S1131B200CF1020C86F80180661C6545F1D84C4620
S1131B30266AA56275192562277B022F00F0A4800E
S1131B40B4F808C0A56A654540F28D80266AE56947
S1131B504FEA0B1B0BF1804000F58620B0F806E03D
S1131B602EF001010904090CC1804CE7F38813F439
S1131B70006F00F09580E27943F200231701C4F26C
S1131B800403FB18D3F8048028F001025A60F28899
S1131B9007F180435204520CF28003F58622D2F8F6
S1131BA00832A2699B1A2362002D5CD09B185FEA5D
S1131BB0950826D043F20002C4F2040200F108079B
S1131BC052F8276008F1FF3AC4451E600AF0010686
S1131BD017D236B152F827604FF0020CC4455E604C
S1131BE00FD28A4652F827100CF1010643F82C1044
S1131BF052F8271006F1010CC44543F82610F1D31E
S1131C00514625F0030C65452AD943F20006C4F277
S1131C10040600F108076FEA0C02634416F82780F3
S1131C200CF1010C5219654503F8018B02F0010215
S1131C3016D93AB116F827200CF1010C654503F8C2
S1131C40012B0DD916F827801A4602F8018B16F8D5
S1131C5027800CF1020C83F80180531C6545F1D8F0
S1131C60236A5D1925624FEA0B1B0BF1804202F5D2
S1131C708622B2F806C02CF001031B041B0CD3808F
S1131C80A3E600BFBC0800202669E569012E266A88
S1131C9020D0AE4218BFB4F808C07FF459AFE2E7D1
S1131CA0E37943F20020190101F1804C0CF58622FE
S1131CB01901C4F20400C2F80C520B18596841F01F
S1131CC001005860B6F806C02CF001021104080C9B
S1131CD0F08083E6AE42DDD2B4F808C0D4F82880A0
S1131CE0E045C0D334E700BF2C2330B503FB00F339
S1131CF00D481446C518002283B0AA62A961EC619C
S1131D002A6234B1B5F808C0A44594BFC5F824C00C
S1131D106C62C05CAA79EB792D7B01940095FFF786
S1131D2077F803B030BD00BFBC08002000F098BFB6
S1131D302DE9F00F40F2E07484B0C2F2000484464E
S1131D4094F8BE419DF83800DDF840909DF830804D
S1131D509DF8347001909DF83C507CB9681EC0B267
S1131D60022842D900204FF400749C4238BF00205E
S1131D7093420DD904B0BDE8F00F7047012C3ED05A
S1131D804FF4007401209C4238BF00209342F1D8E4
S1131D900128EFD12C2404FB0CF4204E03943419B5
S1131DA0B2EB430F38BF00206070DDF80CB01B4E5F
S1131DB084F81480A77106F80BC0DDF804B04FF066
S1131DC0000A2046A1806280238184F807B025732D
S1131DD0C4F818A0C4F8109084F80AA084F80BA0E2
S1131DE004B0BDE8F00F01F0EFB848F6F85AC0F2BD
S1131DF0000A0AEB4004A4881AF80000C3E7681E2E
S1131E00C0B20228AED848F6F85AC0F2000A0AEB6B
S1131E1040045044007B248AB5E700BFBC0800207E
S1131E202DE9F00F40F2E07484B0C2F2000484465D
S1131E3094F8BE519DF83400DDF840B09DF8308030
S1131E4001909DF838909DF83C607DB9751EE8B20C
S1131E50022843D900204FF400759D4238BF00206A
S1131E6093420DD904B0BDE8F00F7047012D40D066
S1131E704FF4007501209D4238BF00209342F1D8F1
S1131E800128EFD12C2707FB0CF50395039F40F2A3
S1131E90E075E419B2EB430FB8BF00206070039FF4
S1131EA084F814802381019B4FF0000AC2F20005DC
S1131EB0204605F807C0A1806280A37184F80790CA
S1131EC02673C4F818A0C4F810B084F80AA084F8E3
S1131ED00BA004B0BDE8F00F01F0DAB848F6F855ED
S1131EE0C0F2000505EB400A4019007EBAF81C5008
S1131EF0C1E7701EC0B20228ACD848F6F855C0F24B
S1131F00000505EB400A401990F82400BAF828505F
S1131F10B1E700BF10B440F2E073C2F200031A89C3
S1131F20002498618A4294BF5A62596218469C629E
S1131F30D9611C6210BC00F0D5BE00BF10F00303D1
S1131F4070B51DD040F69C31C2F2000140F2E0743D
S1131F50C2F2000400230A6884F8C83184F8C93145
S1131F609269A4F8CE31A4F8CA31A4F8CC3102B1F4
S1131F709047254804230821E372BDE87040C9E76F
S1131F8040F2E074C2F2000494F80BC0BCF1060FF6
S1131F9000D070BD226AE1698A4211D2A06AA569A3
S1131FA0B4F808C08A1A2D18944594BFC4F824C004
S1131FB062622046A561A362BDE8704000F01EBFC6
S1131FC040F69C33C2F2000319688B6903B1984749
S1131FD0042043F200020021E072C4F204020A4821
S1131FE0A4F8CE11A1622162E161616284F8C81192
S1131FF084F8C911A4F8CA11A4F8CC11917308216A
S1132000BDE8704086E700BFA809002070B510F055
S1132010030506461DD040F69C31C2F2000140F291
S1132020E074C2F2000400230A6884F8C83184F81A
S1132030C931D269A4F8CE31A4F8CA31A4F8CC319C
S113204002B19047304804230821E372BDE8704090
S113205060E740F2E074C2F20004204600F044FF5E
S1132060E07A072800D070BD226AE1698A4226D04E
S113207043F20003C4F2040310D24FF0400EA3F85D
S113208012E02389891AA0698B4228BF0B46801865
S11320901946A5626362BDE870403BE704224FF035
S11320A0600CE272A4F8CE5184F8C85184F8C95186
S11320B0A4F8CA51A4F8CC51A3F812C0D3E740F64F
S11320C09C31C2F200010A68D3690BB130469847CB
S11320D043F200000023C4F2040004224FF0480C31
S11320E08373E272A4F8CE3184F8C83184F8C9311C
S11320F0A4F8CA31A4F8CC31A0F812C002480821CF
S1132100BDE8704006E700BFA809002030B50023F1
S113211085B010F0030F039302931FD140F2E074D3
S1132120C2F20004204600F0DFFE636A082B2DD0C3
S113213043F200000023C4F2040004224FF06001C3
S1132140A4F8CE31E27284F8C83184F8C931A4F815
S1132150CA31A4F8CC31418205B030BD40F2E072FE
S1132160C2F200024FF0040C02F5E470082182F878
S11321700BC0A2F8CE3182F8C83182F8C931A2F876
S1132180CA31A2F8CC31FFF7C5FEE5E794F8C821BF
S1132190052012F06003E07263D0202B01D0402BA5
S11321A0C6D140F69C32C2F200021368DB68002BF1
S11321B0BED004F5E47003A902AA98470128B7D158
S11321C0B4F8CE1143F20003C4F204030020987360
S11321D039BB4FF0480C0191A3F812C094F8C921FF
S11321E0042040F2E073052AE072C2F2000300F01A
S11321F01382032A05D1B3F8CAC1BCF1020F00F05F
S113220020820022C4480821A4F8CE2184F8C821E1
S113221084F8C921A4F8CA21A4F8CC21FFF77AFED6
S11322209AE74FF0400CA3F812C094F9C8E140F2C9
S1132230E073BEF1000FC2F200030BDA029A06202B
S11322409142D87228BF1146039838BF0291FFF714
S1132250E9FA81E7072203980299DA72FFF75AFE36
S11322607AE794F8C9E1BEF10B0F3FF661AF01A123
S113227051F82EF045240000BD2300003121000058
S1132280452300003121000017230000F123000042
S1132290C1210000ED220000C1220000B322000091
S11322A0A5220000B4F8CAE1B4F8CE1184F8C0E164
S11322B088E79A48012102910390B4F8CE1181E78E
S11322C094F8BB3140F2E075032BC2F20005B4F878
S11322D0CA0108D0C0B2042B85F8BF0100F00B82FC
S11322E0052B00F0E280B5F8CE116BE7B4F8CA0113
S11322F040F2E073C2F2000308BBB3F8CC11F1B9A9
S1132300B3F8CE1101297FF45DAF03F5DE73DA1C57
S11323100392029156E794F8CAE194F8BB210EF0B7
S11323207F0140F2E073052A84F8B811C2F2000379
S113233005D0032A00F0F481042A00F0AD80B3F83C
S1132340CE113FE7B4F8CE1140F2E073C2F20003BD
S113235000297FF4EDAEB3F8CA01012800F0F6813C
S113236080F0BB8102F01F0CBCF1020F7FF4E0AEE1
S1132370B3F8CC21D0B200283FF4DAAE93F8BBC155
S1132380BCF1050F7FF4D4AE12F0800F40F07A82D6
S11323902C2202FB003343F200124FF0010E000125
S11323A0C4F2040283F8E6E08218B2F806C01FFA09
S11323B08CF343F0200EA2F806E003E7B4F8CE0154
S11323C040F2E073C2F2000300287FF4B1AE93F848
S11323D0BBC1BCF1030F7FF6ABAEB3F8CA11002941
S11323E040F0A78102F01F02022A71D00021E9E621
S11323F094F8BB1140F2E0730229C2F200037FF6A5
S113240097AE12F0800F3FF493AE12F01F0040F02D
S1132410AB81B3F8CA01020A531E062B3FF688AEFD
S113242001A252F823F000BFAB250000852500006F
S1132430692500003121000031210000D72500006A
S11324402125000094F8BB1140F2E0730429C2F284
S1132450000300F0258105297FF471AFB3F8CA01A8
S113246000287FF46CAFB3F8CE1102297FF4AAAE32
S113247002F01F02012A00F0DD8180F0AF8193F8A1
S1132480C40103F5E972400040F0010CA3F8D2C185
S113249003920223029395E600297FF450AF0321AF
S11324A083F8BB11B3F8CE118CE6002840F0788194
S11324B040F69C31C2F200010B6804225B6885F887
S11324C0BB21002B3FF40FAF9847B5F8CE1179E646
S11324D0B3F8CC21D0B2002888D012F0800F40F09D
S11324E0B6812C2202FB003343F200120001C4F235
S11324F0040283F8E6108218B2F806C02CF020001B
S11325000304180CD080D3881FFA83FE4EF0800C8D
S1132510A2F806C056E600BFA8090020A0090020C2
S113252094F8D01140F2E073C2F2000300297FF462
S1132530FFAD10F0FF0F7FF4FBADB3F8CC01002822
S11325407FF4F6AD40F69C31C2F200010A68D2F87D
S113255008C0BCF1000F3FF4EBAD93F8BE31072186
S113256002AAE04703902BE640F6A031C2F2000134
S11325700A689368002B3FF4DBADC0B202A9984708
S113258003901DE640F69C30C2F200000268D2F8C7
S113259008C0BCF1000F3FF4CBAD0020022102AA19
S11325A094F8BE31E04703900AE610F0FF0F7FF481
S11325B0BFADB4F8CC0100287FF4BAAD40F6A03327
S11325C0C2F2000319680B68002B3FF4B1AD02A8F6
S11325D098470390F4E594F8D03140F2E072C2F2E7
S11325E00002002B7FF4A4AD10F0FF0F7FF4A0AD28
S11325F0B2F8CC0100287FF49BAD40F6A033C2F2C0
S1132600000319684B68002B3FF492AD92F8BE01A9
S113261002A998470390D3E50191019941F28732C9
S1132620914205D80199481C0190019B9342F9D924
S113263094F8B8E143F20002C4F2040282F800E024
S1132640DFE50191019B41F28732934205D8019B5A
S1132650591C019101989042F9D9B4F8CC11080A97
S1132660421E032A3FF678ADDFE802F0130C0502A0
S1132670FEF7D0FE70E543F20003C4F20403012226
S1132680DA7369E543F20001C4F204010420C8735B
S113269062E543F20003C4F204030222DA735BE549
S11326A0B3F8CA0100287FF44AAEB3F8CC0100287D
S11326B07FF445AEB3F8CE1102297FF483AD02F066
S11326C01F02012A00F0BD8079D203F5E9724FF0B0
S11326D0010C0392A3F8D2C1DBE602287FF428ADF3
S11326E012F01F0F7FF424AD93F8CC1100297FF46E
S11326F01FAD002166E500283FF4F5AD40F69C319E
S1132700C2F200010B6805221B6885F8BB21002B6F
S11327103FF4E9AD95F8BE119847B5F8CE1151E5EF
S113272000293FF40CAE042083F8BB01B3F8CE11AA
S113273048E501297FF4FCAC12F01F0E04BF83F8B6
S1132740C4E171463FF43EAD00213BE512F01F02A7
S11327507FF4EEAC93F8BB11032984BF83F8C40162
S113276011463FF62FADE3E401284FD002287FF451
S1132770DFACB3F8CAC15FEA1C213FF4D9AC40F620
S11327809C32C2F200021268D2F808C0BCF1000FF9
S11327903FF4CEAC93F8BE3102AAE04703900FE5B4
S11327A040F69C33C2F200031A681368002B3FF40E
S11327B09AAD95F8BE119847B5F8CE1102E5022AF4
S11327C07FF4FEAC987A03F5E972B0F1000E18BFFD
S11327D04FF0010EA3F8D2E103925AE6022A7FF4E5
S11327E0EFACB3F8CC2112F0800F61D12C2000FBA8
S11327F0023292F8E6E003F5E972BEF1000C18BF6C
S11328004FF0010CA3F8D2C1039242E640F69C318A
S1132810C2F200010A68D2F808C0BCF1000F3FF40C
S113282087ACB3F8CA2193F8BE31110A02AAE04773
S11328300390C5E4B3F8CC2193F8B9E172453FF6AF
S1132840C1AC03F5E972A3F8D201039221E600F0CA
S11328507F002C2202FB003343F200120001C4F279
S1132860040299728218B2F802E02EF010031804E0
S1132870030C5380B2F802C01FFA8CF040F04003FE
S113288053809FE400F07F002C2202FB003343F2CC
S113289000120001C4F20402ACF1040C821883F8A3
S11328A00AC0538898B240F0100EA2F802E089E4FE
S11328B02C2002F07F0E00FB0E32907A03F5E972B1
S11328C0B0F1000C18BF4FF0010CA3F8D2C1039271
S11328D0DFE500BF40F2E073C2F2000308210022EA
S11328E059620421D9729A6118811A709A721A7302
S11328F000F0EAB910B540F2E073C2F2000303201D
S1132900002283F8BB0143F200010420D87283F84B
S1132910B82183F8B92183F8BA2183F8C421C4F219
S11329200401497811F0100F15D083F8BE2100225C
S11329304020A3F8CE2183F8C82183F8C921A3F845
S1132940CA21A3F8CC21FFF7C5FF05480821BDE83B
S11329501040FFF7DFBA012183F8BE11E7E700BF9B
S1132960A809002010B540F2E074C2F2000400236C
S1132970042284F8BB3184F8BE01E27284F8B831D1
S113298084F8B93184F8BA3184F8D00100F022F91E
S113299043F20000C4F204004178022341F04002F3
S11329A0427084F8BB3110BD40F6B413C2F2000388
S11329B01878704758B9022907D140F28C10C2F236
S11329C000004B234170136070470729F5D00020A5
S11329D0704700BF43F20003C4F20403B3F806C017
S11329E010B52CF00404210400220C0CDC80A3F8A4
S11329F02221C3F80422B3F808C040F6A8342CF00E
S1132A0002010904090C1981A3F81621C3F8242230
S1132A10B3F806C0C2F2000424682CF002010904D1
S1132A206468090CD980A3F81221C3F8142204B1F4
S1132A30A04740F6B4120020C2F200021070012038
S1132A4010BD00BF08B540F6A833C2F200031B68EE
S1132A509B682BB19847012814BF0020012008BDB2
S1132A60184608BD012810B5044601D0002010BD49
S1132A7040F6A830C2F2000003681B6923B108467F
S1132A8011469847204610BD204610BD40F6A83197
S1132A90C2F2000108B50B689B6903B19847012095
S1132AA008BD00BF40F6A831C2F2000108B50B68AA
S1132AB0DB6903B19847012008BD00BF10B50228A7
S1132AC082B004460FD0012802D0002002B010BD0D
S1132AD040F6A833C2F200031A68D368ABB10846C3
S1132AE098472046F2E740F6A830C2F20000036897
S1132AF05B6913B101A869469847019929B102207D
S1132B00009AFEF717FF0120E0E70120DEE700BF8F
S1132B100A4601460120FEF70DBF00BF70B54022F2
S1132B2088B0012413460220502100260325029672
S1132B300395009401940494FFF772F9402202264D
S1132B40134620464FF48071009401940294039636
S1132B50049440F6A835FFF763F9402213464FF476
S1132B608061C2F200052046039600940194029607
S1132B700494FFF7DDF82A6840F6B4131168C2F232
S1132B8000031C7009B188472A68536913B107A868
S1132B9006A99847079919B10220069AFEF7CAFEBA
S1132BA0012008B070BD00BF0A4601460120FFF7AE
S1132BB09BB800BF40F6A832C2F20002106040F693
S1132BC0A4330348C2F200031970FEF773BC00BFBC
S1132BD0D801002010B443F2000340F6AC34C4F230
S1132BE00403C2F2000400210322217083B083F89D
S1132BF07F2093F87FC043F200028DF807C09DF850
S1132C000710C4F204028C460029F2D14EF20013DC
S1132C10CEF200034FF400114FF4801482F80AC07E
S1132C20C3F880411C60C3F880111960A2F808C081
S1132C30B2F806C001280CF00101D18008BF517818
S1132C4043F2000308BF01F0DF01C4F204034FF0B4
S1132C50010008BF5170A3F8480303B010BC7047CB
S1132C6043F20001C4F2040100228A7391F878301F
S1132C7003F00F0C80F800C091F87820130943701A
S1132C8091F8792002F00F0C80F803C091F87930A4
S1132C901A09827091F87A301A09027191F87A301F
S1132CA003F00F0C80F805C091F87B20827191F835
S1132CB07C30C37191F87DC080F808C091F87E2003
S1132CC04272CB7F8372704743F20003C4F2040361
S1132CD000229A735A82D98888B240F00102DA80BD
S1132CE0704700BFC37A042B10D0052B14BF0021FA
S1132CF00121072B14BF084641F0010028B140F61A
S1132D00AC33C2F2000302221A70704740F6AC33AF
S1132D10C2F2000300221A70704700BF30B48379F6
S1132D20012B0DD00378012111FA03F243F20003C1
S1132D30C4F204031889024391B2198130BC70476C
S1132D4090F807C0047B4FEA0C1101F180428569B9
S1132D5002F5862243F20001022CC2F80852C4F2A2
S1132D6004011ED0007843F200128340C4F204022E
S1132D7000018218D0884004400CD080B2F806C00C
S1132D802CF400600004000CD080B2F806C02CF4CF
S1132D9000500004000CD0800A89134398B20881C3
S1132DA0CCE7057843F20014AB40C4F204042D01CF
S1132DB02C19E588C069ADB245F40065E580E58865
S1132DC0ADB245F40045E580E588ADB245F4005563
S1132DD0E580C2F80C020A8913439BB20B810028D8
S1132DE0ACD043F200234FEA0C1CC4F204030CEBF6
S1132DF00300426842F0010141609FE7037870B428
S1132E00002B6FD1816900295BD0027B002A58D145
S1132E10456AC5F38F04E4B10E68012343F200024E
S1132E20C4F2040204F1FF3CA34216620CEA030656
S1132E300FD226B14E680223A342166209D251F87A
S1132E4023600133166251F823600133A3421662F2
S1132E50F5D325F00302954224D98B1843F20004DC
S1132E60D14313F801CB01324919C4F20404954249
S1132E7084F820C001F0010114D931B113F801CB59
S1132E800132954284F820C00CD9194611F801CBBF
S1132E90023284F820C093F801C04B1C954284F898
S1132EA020C0F2D8036A426AC17AD318062985621F
S1132EB003620AD140F6AC32C2F200020121117061
S1132EC003E0C17A036A0629F4D0C16943F2000021
S1132ED08B42C4F2040037BF418A0A2189B241F00F
S1132EE00201418270BC704770B443F200034FF09A
S1132EF0000183B0C4F20403ADF80610997302789C
S1132F00002A5DD1816900295AD0B3F818C00CF0A9
S1132F107F06ADF80660BDF80650ADB2AE081AD013
S1132F201C6A012206F1FF3CB2420C600CEA020466
S1132F3011D224B11C6A0222B2424C600BD21C6A28
S1132F4002F1010C41F822401C6A0CF10102B24268
S1132F5041F82C40F3D325F00302954225D943F2DE
S1132F600004D343C4F2040403EB050C94F820607A
S1132F708B180132954203F8016B0CF0010114D94E
S1132F8031B194F820C00132954203F801CB0CD939
S1132F9094F820C0194601F801CB94F820C00232FD
S1132FA083F801C04B1C9542F2D8BDF80620016A93
S1132FB0BDF806C093B2CB181FFA8CF2826203628A
S1132FC003B070BC704700BF017843F200130A01DC
S1132FD0C4F20403D3184FF00001D980B3F806C03B
S1132FE0017B2CF004021204120CDA80B3F806C040
S1132FF02CF040021204120CDA80B3F806C02CF054
S113300020021204120C0229DA802AD0032916D0D5
S1133010012901D0FEF70CB9DA8851044A0CDA8090
S1133020B3F806C01FFA8CF141F48042DA80B3F899
S113303006C01FFA8CF141F48052DA80EAE7B3F853
S113304006C02CF480410A04110CD980DA8891B2AC
S113305041F4805CA3F806C0DA8851044A0CDA8093
S1133060D8E7B3F806C02CF480410A04110CD980C7
S1133070B3F806C02CF4805211040A0CDA80B3F8B9
S113308006C01FFA8CF141F40042DA80C2E700BFA7
S1133090017843F200130A01C4F20403D3184FF079
S11330A000015980B3F802C0017B2CF00402120421
S11330B0120C5A80B3F802C02CF010021204120C45
S11330C05A80B3F802C02CF020021204120C022918
S11330D05A8016D003290DD0012901D0FDF7B6BFBF
S11330E059888AB242F480425A805A8851044A0C60
S11330F05A80F3E7B3F802C02CF480410A04120C9E
S1133100F2E7B3F802C02CF480410A04110C598090
S11331108279012AE2D1B3F802C01FFA8CF141F49A
S113312000425A80DAE700BF40F2F813C2F200030B
S11331301878704770B9022908D140F2F810C2F229
S11331400000222341711360043070470729F4D032
S1133150002070470228FBD00128F9D1222903D18D
S113316034211160034870472129F1D109201060EE
S113317001487047200200200E02002040F6B513DB
S1133180C2F2000300221A70012070470020704729
S113319001207047012070470120704711F0030F90
S11331A008B507D140F2F813C2F2000301221A60F5
S11331B0012008BD0120FEF7ADF9012008BD00BFC4
S11331C070B540F2F81501244022C2F200052C60CB
S11331D086B00026204613464FF40071032503955C
S11331E00496009401940296FEF71AFE40F6B51375
S11331F0C2F200031C70204606B070BD38B540F61C
S1133200B513C2F200031C780A46012C01D0002039
S113321038BD40F2F813C2F20003002501461D60D8
S11332202046FEF787FB204638BD00BF40F6AD338D
S1133230C2F2000318700148FEF73CB954020020A2
S113324040F6B813C2F200031878704770B440F621
S1133250B434C2F2000424780546012C21D0C4B948
S1133260002B2AD0012B14D140F27426C2F200069E
S1133270202302240720747086F821001C4630465F
S113328006EB030C5DB9022908BF146023D170BC9E
S1133290704700231C469C461846002DF3D000209E
S11332A0F5E740F274204FF0020CC2F20000002354
S11332B080F801C020249C46E4E740F27420C2F266
S11332C000000224202380F821400724447084460F
S11332D01C46C018D6E7072904BF13606046D6D041
S11332E00020D4E738B543F20003C4F20403B3F872
S11332F006C000222CF002010D042C0CDC8040F6E8
S1133300B031A3F81221C3F81422B3F808C0C2F2F2
S113331000010C682CF002052904656A40F6B81413
S1133320C2F20004090C19812270A3F81621C3F813
S1133330042205B1A847012038BD00BF10B440F6EF
S1133340B814C2F200044FF0010C0A4640F6D83318
S11333506168C2F20003604683F800C010BCFEF747
S1133360C3BC00BFF0B5838883B033B9438823B9A5
S11333704378FE2B40D0FF2B02D0002003B0F0BDD9
S1133380C388002BF9D140F6B83540F27427C2F255
S113339000050124C2F2000740F6B81640F6D83CF6
S11333A0C2F20006C2F2000C204629461F2287F80A
S11333B04C40BB647B6473723361B3722B608CF8D2
S11333C000306B60AB602B736B73AB73EB732B745C
S11333D06B74AB74EB742B756B75AB75EB752B76EB
S11333E06B76AB76EB762B776B77AB777360F360AA
S11333F0FEF77AFC2046C1E740F6B033C2F2000380
S11334001868C36953B101910092984740F6B81205
S1133410C2F20002411E1172009A0199024B01206E
S11334200B601060AAE700BFC009002040F6D83343
S1133430C2F20003032201201A70FEF777B800BF1E
S113344040F6D8330A46C2F2000301464FF0020C9C
S1133450012083F800C0FEF76DBA00BF40F6D833F0
S11334600549C2F200034FF0030C01200D2283F83A
S113347000C0FEF75FBA00BFB402002040F6D833A4
S1133480C2F20003032201201A70FEF719B800BF2C
S113349040F6D833C2F200030422012010B51A709A
S11334A0FEF70EF80120BDE81040FEF73FB800BF5C
S11334B02DE9F04540F6D83240F6B81540F27420B4
S11334C040F6B8330027C2F20003C2F20005C2F28C
S11334D00000C2F20002012401296F7287B0AF72AA
S11334E080F84C409F778764177047641F605F6063
S11334F09F601F735F739F73DF731F745F749F7488
S1133500DF741F755F759F75DF751F765F769F7615
S1133510DF761F775F776F60EF602F6145D00029FA
S113352034D0BA463B463A46012400264FF00208FE
S11335304FF480712046009401940296CDF80C80DB
S11335400496FEF7F5FB40F6B8312046C2F20001BE
S11335501F22FEF7C9FB52463B4620464FF44071FA
S1133560CDF80C800094019402940496FEF758FC64
S113357040F6B032C2F2000210682C7003680BB13E
S113358030469847012007B0BDE8F08590F8373001
S113359090F83DE090F836C090F83E804CEA032A5B
S11335A04EEA082257461346BEE7477F90F817A015
S11335B0817D867F41EA0A2A47EA06221346574656
S11335C0B2E700BF40F6B032C2F20002106040F62B
S11335D0B4330348C2F200031970FDF76BBF00BF98
S11335E0C40200202DE9F04F40F6D833C2F20003A4
S11335F01A7887B0042A0BD8DFE812F014002800E8
S11336007E00CC000500042400201C70FFF740FF5E
S113361040F6B814C2F2000400236372A37207B028
S1133620BDE8F08F40F6B814C2F20004A37A022B6E
S1133630F2D11F2900F0E08040F27421C2F20001AF
S1133640002081F84C30FFF723FFE5E740F6B8147B
S1133650C2F2000494F80AC0BCF1020F18BF94F837
S11336600AC0D9D140F27425C2F2000595F84C3055
S1133670032B00F00F81002B40F0B480AA6CE368A8
S11336809A4201D3D61AAE6440F6B036C2F20006AE
S113369030688369002B00F0068140F6B837C2F227
S11336A000072169E268787B9847A96C40F6B81254
S11336B040F27423C2F20002C2F20003002900F0B7
S11336C02E8133681169D0685B69411811611BB19F
S11336D0787B03AA984703460399AA6C4FF0000E1F
S11336E0914238BF0A461846114685F84CE0E2601C
S11336F06360FFF723FE8FE740F6B814C2F20004BC
S113370094F809C0BCF1010F18BF94F809C083D123
S113371040F27425C2F2000595F84C30032B00F0FA
S1133720B980002B54D1AB6CE268934201D39B1A4D
S1133730AB64002B00F0EB8040F6B036C2F200061A
S113374030680669002E00F0F2802269E06840F6D5
S1133750B8338218C2F200032261587B05A9AB6C0E
S1133760B047A96C40F6B81340F27422884206466A
S1133770C2F20003C2F200023FF64EAF059D4FF0C5
S1133780000E014682F84CE02846DE605D60FFF7DB
S113379057FE41E740F6B814C2F2000494F809C099
S11337A0BCF1010F49D094F809C0BCF1030F7FF4B8
S11337B033AF10F0020F3FF42FAF40F27423C2F284
S11337C0000393F84C20032A31D0FFF747FE23E788
S11337D0012B7FF421AF002323616360E360FFF7D3
S11337E04DFE19E7012B7FF417AF002020616060C4
S11337F0E060FFF733FE0FE740F6B835C2F200058C
S113380045F25533286840F274266A68C4F242339C
S1133810C2F2000698427264E97B4BD0AB68B36491
S11338200222002086F84C20FFF732FEF4E6002145
S113383083F84C10FFF712FEEEE640F6B83640F27D
S113384074270025C2F20006C2F200076046314622
S11338501F221D7087F84CC035607560B5603573E4
S11338607573B573F57335747574B574F57435750E
S11338707575B575F57535767576B576F5763577EE
S11338807577B577BD647D646560E5602561FEF795
S11338902BFAC1E6002285F84C206260E2602261C6
S11338A0FFF7ECFDB8E60222184685F84C20FFF736
S11338B0EFFDB1E6687B94F808C08445AED3AB7BDA
S11338C0002BABD0102BA9D8232900F0CD8135D8FB
S11338D0032900F0268100F24E81002934D1AB681F
S11338E0E16021756160002B62D1B364227D002107
S11338F040F6B813022A86F84C10C2F2000300F016
S1133900B080012A43D0002A7FF486AE5DE785F8B3
S11339104C306360E3602361FFF7A0FD7CE683F82D
S11339204C1011615160D160FFF798FD74E60221DB
S1133930304685F84C10FFF7ABFD6DE6282900F002
S1133940958029D825296FD00122111DAB6800204C
S113395086F872101F312275E06086F87C10B3641B
S11339606060A86840F6B833012186F84C10C2F2B2
S1133970000300283FF433AF93F90CC0BCF1000FEF
S1133980FFF62DAFFFF752FDFFF778FD44E6D96847
S11339905868FFF755FD3FE62A2900F09D812F293D
S11339A0D2D1AB680022E26022756260002B9CD009
S11339B0B364237D40F6B812022BC2F2000215D084
S11339C0012B25D095F90CE0012240F27423BEF1BD
S11339D0000F86F84C20C2F20003FFF600AF02216C
S11339E0002083F84C10FFF753FD15E6D16849B168
S11339F0A868814207D80123506886F84C30FFF745
S1133A009DFC09E6013B86F84C30FFF70FFD03E609
S1133A10D1680029F7D0A86881421CD8506886F87C
S1133A204C30FFF70DFDF7E595F90CC0002301229A
S1133A3040F6B81840F6B8379C45E36022756360D9
S1133A40C2F20008C2F20007C0F2AE810833C8F81F
S1133A500C30A968B164022386F84C30FFF70EFDE0
S1133A60DAE5D9685868FFF769FCD5E50C2101FB54
S1133A70004795F8169095F817A0396A4AEA09287C
S1133A8095F90CC040F6B033002201FB08F7C2F2EE
S1133A90000305920132BCF1000FD3F800C0AB68FB
S1133AA0DCF810C02275A4BFE760052295F811A0C8
S1133AB095F81290E87C95F814809F4218BF042270
S1133AC0BCF1000F00F06781012A00F0B5810023EA
S1133AD023616360E360AB68501EB36409283FF65A
S1133AE09FAE0FF2080C5CF820F000BFED38000028
S1133AF06339000021380000B3390000573A000050
S1133B00A93B00004D3B000021380000173B00009A
S1133B1021380000B764012386F84C30FFF7AEFC6F
S1133B207AE52B7CEA7C13F0010F18BFAF68F1D162
S1133B309A4840F6B813012121756060C2F200036F
S1133B40002A40F01B81DA60AA68B264227D032057
S1133B5040F6B813022A86F84C00C2F200032ED0B5
S1133B60012A7FF459ADD96800293FF438AE58686A
S1133B70FFF766FC50E512292ED01A297FF4E4AE33
S1133B8095F813C00420864A012140F6B8338445D1
S1133B9021756260E060C2F20003D5D808BF9B685B
S1133BA03FF4A3AEA868B064237D40F6B812022B9C
S1133BB0C2F200020BD0012B7FF42EADACE7D96822
S1133BC000293FF40CAE5868FFF7B8FB24E5D2682F
S1133BD0002A3FF421AD16E7AF7C95F813C095F9A0
S1133BE00C00002140F6B81340F6B8324FF0010E35
S1133BF04CEA0727C2F200038842E16084F814E02B
S1133C006160C2F20002A8BFDF60BFF622AF936812
S1133C109F427FF4CDAE137C13F0010F02D1002B31
S1133C207FF478AF40F6B033C2F200031A68136A27
S1133C30002B00F0AE80687B04A9984740F6B833A7
S1133C400246C2F20003002800F0A280049840F665
S1133C50B8118742C2F2000162609ABFCF609B68CC
S1133C60C8603FF671AF40E640F6B033C2F20003DD
S1133C701F6895F816807B68EF7D13B104A903AA29
S1133C809847039A049B100C110A84F851000C20E5
S1133C9047EA082784F8521084F85320C11F414A88
S1133CA04FEA136A4FEA13484FEA132C84F84F3053
S1133CB086F8721001231B310C2F84F84CA084F871
S1133CC04D8084F84EC023756260E06086F87C10F5
S1133CD07FF43AAFAB6808E695F80DC00C2101FB00
S1133CE00C42002395F816A0EF7D2361E36095F95B
S1133CF00C90116A47EA0A28022040F6B812994546
S1133D00207501FB08F703936360C2F2000295F883
S1133D10118095F812A0E87C95F814C035DB0122D7
S1133D2040F6B033C2F200031B68D5F808905B6913
S1133D304F4518BF0422002B2DD0012A7FF4C7AEB3
S1133D404FEA0A4A4AEA086848EA0C0242EA002EA4
S1133D5001FB0EF8687B414603AA98470346D0B19D
S1133D6040F6B8110398C2F200016360B84294BFF0
S1133D70C860CF60C4F81080AB68B6E5122ADA6078
S1133D8098BFAB687FF6B1AD0CE7D7600522C7E7F3
S1133D909F68B76444E5032299E600BFE40200206B
S1133DA0F8020020000A002097F817E01EF0010F27
S1133DB018BFBF687FF4AEAE40F6B030C2F2000068
S1133DC003685B68002B56D003A904AA787B984744
S1133DD097F80DB00C2202FB0BF90398049A08F132
S1133DE0180A411E0AEB090509EB0800019500F1C8
S1133DF018034FEA124C4FEA11694FEA114A0D0AAF
S1133E004FEA126BCDF800C0DA7180F8189083F88D
S1133E1001A09D70D97083F804B000994FEA122C68
S1133E20597183F806C0019902620822C8F80C206F
S1133E30C8F80410BB6858E54FEA094949EA0A6A18
S1133E404AEA080343EA002E01FB0EF8687B424667
S1133E5005A93B46E047059A002A9CD040F6B811D4
S1133E60C2F20001B84294BFC860CF606260C4F877
S1133E701080AB6839E5BF688BE700BF08B511F067
S1133E800F0F40F6B8130846C2F2000306D1022110
S1133E9099721146FFF7A6FB012008BD042199720F
S1133EA01146FFF79FFB012008BD00BF08B511F0C4
S1133EB0020F40F6B813C2F2000307D10120587272
S1133EC008460021FFF78EFB012008BD03220846A7
S1133ED05A720021FFF786FB012008BD40F6DC334F
S1133EE0C2F200031860704740F60C23C2F20003CC
S1133EF01878704740F6DC31C2F2000108B50B684F
S1133F005B6803B1984740F60C20C2F2000000221F
S1133F100270012008BD00BF10B540F6DC34C2F2C7
S1133F2000042468A4680CB1A04710BD204610BD4D
S1133F3008B540F6DC33C2F200031B68DB680BB142
S1133F40984708BD184608BD08B511F0030F40F6A0
S1133F500C23C2F200030BD003225A7040F6DC3269
S1133F60C2F2000213681B6903B19847012008BD1F
S1133F7001225A70F2E700BF11F00F0F08B540F6A6
S1133F800C23C2F2000314BF4FF0040C4FF0020CD8
S1133F9083F801C040F6DC33C2F200031B685B699E
S1133FA003B19847012008BD40F6DC31C2F200019C
S1133FB008B50B689B690BB1984708BD184608BD46
S1133FC040F6DC31C2F2000108B50B68DB690BB1C5
S1133FD0984708BD184608BD2DE9F04740F2FC2477
S1133FE0C2F2000494F81EC0627FA67D94F8178084
S1133FF042EA0C22012440F60C2586B046EA082841
S113400013460026C2F2000502278246894620464E
S11340104FF480716E702E70009401940296039791
S11340200496FDF785FE2046434642464FF4007150
S113403003970496009401940294FDF7F1FE40F670
S1134040DC30C2F2000003681B6813B150464946D5
S113405098470120287006B0BDE8F0870A4601465B
S11340600120FDF741BE00BF0A4601460120FDF7CD
S113407061BC00BF0148FDF71DBA00BF1C0300204E
S113408070B440F6E034C2F2000424780546012CF2
S113409020D0BCB9002B29D0012B13D140F25C33C2
S11340A0C2F20003022407202E265C7083F831003C
S11340B03446184630335DB9022908BF146024D150
S11340C070BC7047002318461E461C46002DF3D0D2
S11340D00020F5E740F25C30C2F2000000234FF00C
S11340E0020C80F801C01E462E24E4E740F25C3046
S11340F0C2F2000007242E264FF0020C447003463F
S113410080F831C034463030D5E7072904BF166043
S11341101846D5D00020D3E7C3886BB190F90000CE
S11341200028ADBF40F610201360044BC2F200001B
S1134130B2BF0B600860136001207047BC0300200D
S1134140012070470120704711F00F0F08B503D10B
S1134150012809D0022801D0012008BD05494022C8
S1134160FDF7E8FB012008BD03494022FDF7E2FB0F
S1134170F2E700BF3C040020FC03002011F0030F11
S113418008B503D1012809D0022801D0012008BDB7
S113419005494022FDF7A8FD012008BD034940223E
S11341A0FDF7A2FDF2E700BF900A0020500A0020AC
S11341B02DE9F04F012987B05BD0002953D140F29B
S11341C05C37C2F2000797F84D4097F8475097F8CC
S11341D0466097F84E0046EA052944EA002AC84694
S11341E0D3460124402200261346032720464FF4D9
S11341F0807100940194029603970496FDF798FD4C
S1134200204640222349FDF76FFD40220225134634
S113421020464FF4A07100940194029403970496ED
S1134220FDF7FEFD5B46524628464FF4C0710094EC
S11342300194029503950496FDF77AFD28464022E1
S11342401549FDF751FD28464A4643464FF460712F
S113425002970496009401940395FDF7E1FD20462E
S113426007B0BDE8F08F4FF00008C146C346C24610
S1134270B7E740F25C33C2F200035A7F93F8179019
S1134280997D93F81EA041EA092942EA0A2AC84600
S1134290D346A6E7500A0020900A002040F6E033F7
S11342A0C2F2000318700148FDF704B97C04002031
S11342B040F62443C2F2000398422DE9F00508D0E9
S11342C040F6E43CC2F2000C604502D0BDE8F005C3
S11342D070470B1E18BF0123002A0CBF002303F0F4
S11342E00103002BF2D090F80D80D0F800A0002537
S11342F09AF814C048EA0C081CF0200F80F80D80CE
S113430023D00F2A24D910274E5D0468012307F116
S1134310FF3C26700CEA030605EB030C4D19BB4267
S113432011D236B1EE5C0223BB4226700CF1010CB3
S113433009D2EE5C01332670EE5C0133BB42267079
S11343400CF1020CF5D36546D21A002AD0D1BDE790
S11343500AB11746D8E71346D21AF6E740F62443C3
S1134360C2F2000398422DE9F00508D040F6E43289
S1134370C2F20002904202D0BDE8F0057047002965
S1134380FAD00D78002DF7D0427B04684FF0000C72
S1134390237D1A4313F0200FFAD0427325B96346E4
S11343A0002DE9D09C46F3E7D0F800A0002601EBED
S11343B00C0801368AF8005018F8065006EB0C0376
S11343C02F1E18BF01270F2E8CBF002707F00107EF
S11343D0002FE5D0EDE700BF0B1E18BF0123002A14
S11343E00CBF002303F001032DE9F0055BB140F697
S11343F0244CC2F2000C604508D040F6E433C2F20B
S11344000003984202D0BDE8F005704790F804A07C
S11344104FF001080AF01F0708FA07F705684FFA7A
S11344208AF605F1040C2CF07F440CF0704303F180
S1134430007A760924F470054EF2001345F26114F3
S11344404261CEF200030AF1040CC0F200046D01D3
S113445006F1600A00228261016143F82A70446215
S11344604CF8058043F82670CDE700BF40F624439E
S1134470C2F20003984207D040F6E431C2F20001D0
S1134480884201D0002070470368417B1B7D42694C
S113449043EA010C80F80DC0002AF3D1C3F3801065
S11344A0704700BF40F62443C2F20003984270B440
S11344B009D040F6E43CC2F2000C604503D000236E
S11344C0184670BC70470B1E18BF0123002A0CBF8E
S11344D0002303F00103002BF1D0046890F80DC011
S11344E0237D43EA0C0C13F0010F80F80DC0E6D0D5
S11344F000232578CD540468467B94F814C0013316
S11345004CEA06069A4294BF00250CF00105467356
S1134510002DEED1D4E700BF40F62443C2F20003DD
S1134520984230B407D040F6E432C2F2000290421E
S113453001D030BC70474FF6FF7C6145F9D090F84C
S113454004C001240CF01F0294404FFA8CF34FEA8C
S1134550531C4EF200130268CEF200030CF1600506
S113456043F82540157901F00F0045EA0000107169
S113457092F8240040EA1111C9B282F8241043F8D9
S11345802C40D6E740F62443C2F20003984210B40C
S113459007D040F6E432C2F20002904201D010BCCF
S11345A07047036801F00F041A7981F47F4C22EA02
S11345B004021A7193F8242042EA1C2283F824206E
S11345C002794FF0010C02F01F000CFA00F052B215
S11345D052094EF20013CEF2000302F1600C0F29CF
S11345E043F82C00DBD1203243F82200D7E700BF88
S11345F040F62443C2F20003984230B407D040F698
S1134600E43CC2F2000C604501D030BC70470B1E84
S113461018BF0123C02A8CBF002303F00103002B21
S1134620F3D00568016295F808C001240CF03F033B
S11346301A432A72027905F1040C02F01F0014FADD
S113464000F02CF07F4351B223F4700549094EF277
S113465000130CF0704CCEF200036A010CF1007CE4
S113466001F1600543F825004CF8024043F82100AD
S1134670CBE700BF40F62443C2F2000398420CD0BB
S113468040F6E43CC2F2000C604514BF0022012253
S1134690052998BF42F0010262B105290AD8DFE872
S11346A001F00A19282E2803036893F810C04CF06F
S11346B04000187470470368103323F07F4C03F0F4
S11346C0704101F100732CF4700210335001002189
S11346D0195070470268103222F07F4C02F0704388
S11346E02CF4700003F10071420110310120885054
S11346F070470368187C00F0F90119747047016869
S11347000A7C42F0200C81F810C0704740F6244324
S1134710C2F200039842F0B407D040F6E432C2F289
S11347200002904201D0F0BC70470029FBD090F801
S113473004C001260CF01F0516FA05F503684FFAAC
S11347408CF41F1D27F07F4307F07042640923F4A3
S1134750700702F100724EF20013CEF200034FEA2A
S1134760471C083204F1600743F82750C16142F83E
S11347700C6043F82450D6E740F62443C2F2000309
S113478098422DE9F00108D040F6E432C2F200026A
S1134790904202D0BDE8F00170470029FAD090F8A9
S11347A004C001270CF01F0617FA06F602684FFA38
S11347B08CF5141D04F0704324F07F4828F4700431
S11347C06D0903F100724EF20013CEF200034FEABA
S11347D0441C0432002405F160084461416243F83A
S11347E02860046142F80C7043F82560D2E700BFEA
S11347F040F62443C2F200039842F0B407D040F6D6
S1134800E432C2F20002904201D0F0BC70470029A9
S1134810FBD090F804C001260CF01F0516FA05F52C
S113482003684FFA8CF41F1D27F07F4307F0704292
S1134830640923F4700702F100724EF20013CEF201
S113484000034FEA471C0C3204F1600743F8275079
S1134850816242F80C6043F82450D6E740F62443C2
S1134860C2F20003984210B408D040F6E43CC2F20D
S1134870000C604502D0002010BC70470B1E18BF0E
S11348800123002A0CBF002303F00103002BF2D004
S11348900368447B93F814C04CEA04041CF0200F12
S11348A04473E8D00F2A88BF1022501E91F800C02C
S11348B000F001040120824283F800C0DCD934B145
S11348C091F801C00220824283F800C0D4D911F8C3
S11348D000C0013083F800C011F800C001308242EA
S11348E083F800C0F3D8C7E740F62443C2F20003BC
S11348F0984207D040F6E431C2F20001884201D068
S1134900FF2070470268437B117D002241EA030CBB
S113491042730CF09E00704740F62443C2F2000339
S1134920984207D040F6E431C2F20001884201D037
S1134930FF2070470268107E704700BF40F6244392
S1134940C2F20003984207D040F6E431C2F20001FB
S1134950884201D0002070470368417B93F814C05B
S11349604CEA010242730CF06000704740F62443A5
S1134970C2F20003984206D040F6E431C2F20001CC
S1134980884200D0704702680C3202F0704022F076
S11349907F4C00F100732CF4700118334A0101209C
S11349A09850704740F62443C2F20003984206D060
S11349B040F6E431C2F20001884200D07047026838
S11349C00C3202F0704022F07F4C00F100732CF4A2
S11349D0700118334A0100209850704740F6244370
S11349E0C2F200039842F0B407D040F6E432C2F2B7
S11349F00002904201D0F0BC70470029FBD090F82F
S1134A0004C001260CF01F0516FA05F507684FFAD5
S1134A108CF4243727F07F4307F07042640923F4B1
S1134A20700702F100724EF20013CEF200034FEA57
S1134A30471C083204F1600743F82750416342F8E9
S1134A400C6043F82450D6E740F62443C2F2000336
S1134A509842F0B407D040F6E432C2F20002904229
S1134A6001D0F0BC70470029FBD090F804C00126A7
S1134A700CF01F0516FA05F507684FFA8CF4243775
S1134A8027F07F4307F07042640923F4700702F1B2
S1134A9000724EF20013CEF200034FEA471C0C32B0
S1134AA004F1600743F82750816342F80C6043F82F
S1134AB02450D6E740F62443C2F200039842F0B4EF
S1134AC007D040F6E432C2F20002904201D0F0BCBA
S1134AD070470029FBD090F804C001260CF01F0594
S1134AE016FA05F507684FFA8CF4243727F07F434C
S1134AF007F07042640923F4700702F100724EF269
S1134B000013CEF200034FEA471C103204F1600791
S1134B1043F82750C16342F80C6043F82450D6E7A9
S1134B2040F62443C2F200039842F0B407D040F6A2
S1134B30E432C2F20002904201D0F0BC7047002976
S1134B40FBD00279012602F01F0516FA05F5076865
S1134B5054B2243707F0704C27F07F4323F47007D6
S1134B6064090CF100724EF20013CEF200034FEA16
S1134B70471C043204F1600743F82750016342F8EC
S1134B800C6043F82450D8E740F62443C2F20003F3
S1134B909842F0B407D040F6E432C2F200029042E8
S1134BA001D0F0BC70470029FBD00279012502F046
S1134BB01F0415FA04F406684FFA82FC243626F022
S1134BC07F4323F470074FEA5C1C4EF2001306F097
S1134BD07046CEF200037A0106F100760CF160070C
S1134BE043F82740C162B55043F82C40D9E700BFD1
S1134BF040F62443C2F20003984206D040F6E43162
S1134C00C2F20001884200D070470268383202F0D4
S1134C10704022F07F4C00F100732CF470010C33CF
S1134C204A0101209850704740F62443C2F2000321
S1134C30984206D040F6E431C2F20001884200D026
S1134C4070470268383202F0704022F07F4C00F165
S1134C5000732CF470010C334A0100209850704703
S1134C6040F62443C2F20003984206D040F6E432F0
S1134C70C2F20002904200D070470129FCD871B101
S1134C800168343121F07F4C2CF4700001F0704243
S1134C9002F1007C430101214CF80310ECE70268A7
S1134CA0343222F07F4020F4700302F0704C0CF197
S1134CB000705B01C150704740F62443C2F2000308
S1134CC0984206D040F6E432C2F20002904200D08C
S1134CD070470129FCD871B10368343303F0704084
S1134CE023F07F4C00F100712CF470020B1D500175
S1134CF001211950ECE70268343202F0704322F0CB
S1134D007F4C03F100702CF47002031D5001195004
S1134D10704700BF40F62443C2F20003984206D015
S1134D2040F6E433C2F20003984200D070470729EA
S1134D309CBF036883F84410704700BF40F62443C7
S1134D40C2F20003984206D040F6E431C2F20001F8
S1134D50884200D070470368383303F0704223F070
S1134D607F4C02F100702CF47001031D4A010120F4
S1134D709850704740F62443C2F20003984206D08C
S1134D8040F6E431C2F20001884200D07047036863
S1134D90383303F0704223F07F4C02F100702CF49E
S1134DA07001031D4A0100209850704740F62443C7
S1134DB0C2F20003984206D040F6E431C2F2000188
S1134DC0884200D070470268383202F0704022F006
S1134DD07F4C00F100732CF4700108334A01012068
S1134DE09850704740F62443C2F20003984206D01C
S1134DF040F6E431C2F20001884200D070470268F4
S1134E00383202F0704022F07F4C00F100732CF431
S1134E10700108334A0100209850704740F624433B
S1134E20C2F20003984206D040F6E432C2F2000215
S1134E30904200D07047006800F1300202F07043E5
S1134E4022F07F4C03F100732CF4700280F84C10B4
S1134E501833520101219950704700BF40F6244392
S1134E60C2F20003984206D040F6E431C2F20001D7
S1134E70884200D070470268303202F0704022F05D
S1134E807F4C00F100732CF4700118334A010020A8
S1134E909850704740F62443C2F20003984206D06B
S1134EA040F6E432C2F20002904200D0704700683B
S1134EB000F1300202F0704322F07F4C03F10073E2
S1134EC02CF4700280F848101433520101219950D7
S1134ED0704700BF40F62443C2F20003984206D054
S1134EE040F6E431C2F20001884200D07047026803
S1134EF0303202F0704022F07F4C00F100732CF449
S1134F00700114334A0100209850704740F624433E
S1134F10C2F20003984206D040F6E432C2F2000224
S1134F20904200D07047036883F85010704700BF68
S1134F3040F62443C2F20003984206D040F6E4321D
S1134F40C2F20002904200D070470129FCD871B12E
S1134F500268083222F07F4C02F070432CF4700196
S1134F6003F100704A010C3001218150ECE7036821
S1134F70083323F07F4C03F0704000F100732CF4ED
S1134F8070020C3350011950704700BF40F624439F
S1134F90C2F20003984206D040F6E432C2F20002A4
S1134FA0904200D070470429FCD8036893F830205D
S1134FB002F0F80C83F830C093F83000014383F812
S1134FC03010704740F62443C2F20003984210B5F3
S1134FD0044606D040F6E430C2F20000844200D019
S1134FE010BD2268117A01F00F0CBCF10C0FF7D838
S1134FF001A151F82CF000BF49500000E14F00001E
S1135000415000005150000039500000E14F0000B1
S11350102D500000E14F0000E14F0000E14F00007F
S1135020E14F0000E14F000039500000E369002B1C
S1135030D6D02046984710BD236A002BF9D1CFE77C
S1135040636A002BF5D1CBE7A36A002BF1D1C7E744
S1135050283222F07F4020F4700302F0704158019E
S113506001F1007C5CF8003013F0FF0F05D0E36A17
S11350701BB1204698472268283202F0704022F083
S11350807F4C00F100732CF47001181D4901435842
S113509013F0FF0F05D0236B1BB1204698472268FD
S11350A0283202F0704322F07F4C03F100702CF49C
S11350B0700108304901435813F0FF0F05D0636BAA
S11350C01BB1204698472268283202F0704322F030
S11350D07F4C2CF4700003F100730C3341015858D9
S11350E010F0FF0F05D0A36B1BB120469847226830
S11350F0283222F07F4C02F0704101F100722CF44E
S1135100700310325801115811F0FF0F3FF468AFCB
S1135110E36B002B3FF464AF2046984760E700BF81
S1135120684620F007018D4601B540F6E430C2F22E
S11351300000FFF747FFBDE801408546704700BF08
S1135140684620F007018D4601B540F62440C2F2BE
S11351500000FFF737FFBDE801408546704700BFF8
S113516040F62443C2F20003984270B407D040F6DC
S1135170E431C2F20001884201D070BC7047046976
S1135180002CFAD04369002BF7D0016890F80DC0C9
S11351900A7D42EA0C0C12F0200F80F80DC08269DF
S11351A029D09D1A0F2D38D91025A41826786B1EE6
S11351B00E7003F00106012301329D42826119D968
S11351C046B194F801C0022301329D4281F800C027
S11351D082610FD914F803C0013281F800C0013391
S11351E0826114F803C0013301329D4281F800C08A
S11351F08261EFD843699A42BFD102680021131D2E
S113520023F07F4C03F0704202F100732CF470021F
S11352100433520199504161AFE7002DC5D1EAE74B
S11352202DE9F04F40F624438FB0C2F200030B92F5
S113523048F200029842C4F2030204460D91906CB5
S11352404EF2001100F0298140F48077CEF2000183
S11352504FF400669764C1F88061956C40F20001D8
S113526025F48070C4F2010190640B222271216044
S113527000220D460A7101F1100605F8082F01F10C
S1135280380A2AF07F4B01F1340925F07F4726F0D4
S11352907F4805F0704506F070460AF0704ACDF874
S11352A010A0069529F07F4006F100750390019542
S11352B009F07049049DCDF81C90DDF80C9005F1BF
S11352C0007529F4700A0A952BF47009079DDDF81E
S11352D018B0CDF814900BF1007905F1007B049D12
S11352E001F1300C2CF07F4005F100750CF0704C8E
S11352F0CDF80CA004950CF100750CF1007AAC46C5
S1135300039DCDF824A06D010395059D28F4700834
S11353106D010595069DCA4605F100750695019D2A
S11353204FEA481814350195079D27F4700705F1D5
S113533000750795049D7F01043504956546143571
S11353400895099DCDF830801C3509950A9D4FF0CC
S113535001080C350AF1080A09F104090A9506F155
S1135360007649F807800C9D4AF80780DDF818A0FC
S113537010364AF807807251DDF80CA0019E0BF13B
S1135380040B72514BF80A20DDF81CB0059D4BF854
S11353900A20049EDDF820A020F4700040010CF1E6
S11353A0180C7251DDF824B04AF800204CF80020A3
S11353B0DDF828C09C424BF800204CF8052081F809
S11353C0442081F8482081F84C2079D040F6E43319
S11353D0C2F200039C4215D00B9D00200D73607334
S11353E00D9E6061A66025732061A06120626062E9
S11353F0E061A062E06220636063A063E0630FB0D9
S1135400BDE8F08F0D9FA76003F0CAFA40F2C441D3
S1135410C2F200010A680D9ED700B7FBF6F2D30969
S11354205708B3F5803F28BF2168D5D2012B2168E6
S113543050D901F10C0020F07F4C00F0704606F1C9
S113544000702CF4700A4FEA4A1E0D465FFA83F886
S1135450A7EB83171C300126C2F3C73A40F80E604D
S1135460A7EBC31381F804A005F8308B9A1825F034
S11354707F4305F0704523F47008A2EB470705F15C
S113548000751C354FEA4818FFB2002340F80E306F
S113549045F8086081F83C709EE740F08007CEF242
S11354A000014FF480669764C1F88061956C4FF0F9
S11354B0804125F0800090640A2222712160D7E6A1
S11354C00D9AA26003F06CFA40F2C041C2F20001EE
S11354D00A68A0E701F10C0C2CF07F4E0CF070422E
S11354E02EF4700502F100724FEA451E08460025AD
S11354F0DBB21C32012642F80E600D7100F8303B1D
S113550020F07F4C00F0704000F100762CF4700322
S11355101C365B0142F80E50F5505DE770B5054648
S11355201446FFF77DFE2D6804F0070405F13000F2
S113553005F1340320F07F4623F07F4C00F07042E5
S113554003F0704126F4700001F100732CF470062E
S113555002F1007271010C32002640010833072C5D
S113556016505E500FD1383525F07F4C05F0704E43
S11355702CF470000EF10073420101210C330EF182
S11355800075A950995070BD2DE9F04704461E4698
S11355909DF820509DF82470FFF742FE226802F126
S11355A0300802F1340328F07F4A08F0704123F0F8
S11355B07F4903F0704801F100702AF4700429F463
S11355C0700C08F100714FEA441A0C3008314FEAAC
S11355D04C1C01244FF0000940F80A9041F80C409B
S11355E0002E46D108F1007E0EF10C0848F80C603C
S11355F02DBB03F0704E23F07F4C0EF100712CF4A0
S11356007000103140010D503FB323F07F4C03F084
S1135610704E2CF470000EF100734101143301201C
S11356205850383222F07F4E2EF4700002F0704C45
S11356300CF1007243010021D150BDE8F08703F062
S1135640704E23F07F4C2CF470040EF10071600155
S1135650103101240C50002FD7D123F07F4C03F0DC
S1135660704E0EF100732CF47001143348011F5076
S1135670D7E708F1007000F10C0848F80C40B7E7D0
S1135680F8B50746FFF7CCFD3D684FF6FF7305F10B
S1135690300405F1340CC0F20F0305F1380004F0B6
S11356A070410CF0704200EA030500F070471C40A2
S11356B00CEA030601F1007102F10072730100208B
S11356C007F100760C31640108326D0101270F5196
S11356D0D0507051F8BD00BFF8B50446FFF7A0FDE7
S11356E022684FF6FF7302F1340002F13005C0F274
S11356F00F0305F07047383200F0704102EA0306E8
S113570007F1007C1D4000EA030702F0704201F13A
S1135710007145F261107B010CF10C0C02F1007771
S11357206D01002208317601C0F200004CF805201A
S11357306062CA50BA51F8BD70B440F6D0234EF23C
S1135740001546F20004C2F200030022C4F2010470
S1135750CEF200054FF40026C5F88060A260C5F8BB
S11357608061186083F824201A715A719A815A61F1
S1135770DA832068996120F02001216020681A6290
S113578040F010012160A0689A6020F00101A1603E
S1135790A0681A6140F00201A1609A832E6070BC77
S11357A0704700BF10B540F6D024C2F20004236A4B
S11357B02BB10146A069984700232371236210BDD1
S11357C008B540F6D023C2F200031A7902B908BD25
S11357D0B3F81EC01FFA8CF0FFF7E4FF46F2000393
S11357E0C4F2010318681A4640F0010119601168F7
S11357F011F0010FFBD108BD2DE9F8454EF200165A
S113580046F200050024C4F20105CEF200064FF46E
S11358100027C6F88070AC60C6F8807198460646CA
S113582017468A46FFF7CCFF40F6D022C2F20002A8
S113583001211171567194815461D48351792B687B
S1135840089823F004039761A2F81C809462106204
S11358502B60946014616C6846F2000314F0010F2D
S1135860C4F20103F7D0996119681C4641F00400A1
S11358701860606846F2000310F0010FC4F20103DF
S1135880F7D0C3F814A0196821F0040003211860AC
S113589082F8241098684EF2001240F002019960D8
S11358A0CEF200024FF400231360BDE8F88500BF78
S11358B02DE9F0454EF2001646F200040025C4F22C
S11358C00104CEF200064FF40027C6F8807083B0BE
S11358D0A560C6F88071904606460F469A46FFF7C3
S11358E06FFF40F6D021C2F2000101230B7196F83C
S11358F000C0C1F8188081F805C08F814D61CD8347
S113590048792268A1F81CA022F004030A9A2360B3
S11359108A620B9A8E600A620D61626846F2000325
S113592012F0010FC4F20103F7D09861186820F057
S113593004021A60586800F00102019201980028DC
S113594056D0B7F1010C53D070781A4618615B68D1
S11359500CF1FF3E03F00104019401980EF00104E0
S11359600123E8B1BCF1010F1AD924B1B0780223A4
S11359700EE09C4514D9F418607801331061506826
S1135980F41800F001000190019848B160780133E7
S11359901061506800F00100019001980028E8D1DE
S11359A001339F4218D805224FF0000E81F82420BD
S11359B0A1F80CE046F20003C4F2010399684EF228
S11359C0001041F00302CEF200004FF400219A606F
S11359D0016003B0BDE8F0858889F618C31A1FFA80
S11359E083FC012281F82420A1F80CC08E60E1E739
S11359F00123D6E72DE9F0474EF2001646F20004E3
S1135A00C4F20104CEF2000600254FF40027C6F8C4
S1135A10807082B0A560C6F88071904606460F4635
S1135A209946BDF82CA0FFF7CBFE40F6D021C2F278
S1135A30000101230B7130780A9A48718F81C1F8F3
S1135A401490CD83A3688A6143F00200A060487972
S1135A5023680C9A23F00403C1F81080A1F81CA059
S1135A608D620A6223608E60626846F2000312F05F
S1135A70010FC4F20103F7D09861186820F0040202
S1135A801A60586800F0010201920198002858D069
S1135A90B7F1010C55D070781A4618615B680CF1A7
S1135AA0FF3E03F00104019401980EF00104012368
S1135AB0E8B1BCF1010F1AD924B1B07802230EE089
S1135AC09C4514D9F4186078013310615068F418B7
S1135AD000F001000190019848B160780133106131
S1135AE0506800F00100019001980028E8D10133CA
S1135AF09F421AD84FF0000EA1F80CE04A6940F614
S1135B00D023C2F2000362B9032083F824004EF2CA
S1135B100013CEF200034FF400221A6002B0BDE875
S1135B20F087022183F82410F1E78889F618C31A54
S1135B301FFA83FC012281F82420A1F80CC08E6096
S1135B40E5E70123D4E700BF08B540F6D023C2F24D
S1135B5000031A680AB11B68984708BD46F200039F
S1135B60C4F20103F0B55C689A68E4B2144014F01E
S1135B70020F83B020D114F0010F01D103B0F0BDA6
S1135B8040F6D024C2F2000494F82410022977D0FD
S1135B90052927D0012900F0C88046F20003C4F289
S1135BA001039A68002022F001019960FFF7FAFDD1
S1135BB0002084F82400E1E740F6D0251969C2F2F8
S1135BC0000595F824008EB2F3B206F400460528C9
S1135BD000F29481DFE810F01E011701170176012D
S1135BE03A016C016269002A00F0F580616940F6AF
S1135BF0D023C2F20003002900F0988146F200028B
S1135C00C4F201025D691068196920F0040313608D
S1135C10536803F001000190019B002B00F099816F
S1135C20002D00F096810B78136150686B1E00F014
S1135C3001060196019803F001060123D0B1012D5C
S1135C4018D926B1487802230CE09D4212D9C85CC9
S1135C5001331061506800F001000190019848B1CF
S1135C60C85C01331061506800F001000190019894
S1135C700028EAD16269C918D31A216163617DE7FA
S1135C806269002A00F04E8146F20002C4F2010269
S1135C9065691368206923F004031360536803F0F3
S1135CA001030193019B002B00F05181002D00F0B2
S1135CB04E810378136157686B1E07F00106019645
S1135CC0019E03F001070123DEB1012D19D92FB183
S1135CD046780B4616610DE09D4212D9C15C013332
S1135CE01161516801F001010191019949B1C15C4F
