:1000000000000120910100007F0300008103000037
:100010008303000085030000870300000000000048
:100020000000000000000000000000008903000044
:100030008B030000000000008D0300008F03000010
:100040009103000093030000950300009703000054
:10005000990300009B0300009D0300009F03000024
:10006000A1030000A3030000E9090000050A000045
:10007000A9030000AB030000AD030000AF030000C4
:10008000B1030000B3030000B5030000C90A00007B
:10009000B9030000BB030000BD030000BF03000064
:1000A000C1030000C3030000C5030000910D000060
:1000B000290E0000CB030000CD030000CF03000099
:1000C000D1030000D3030000D5030000D7030000D4
:1000D000D9030000DB030000DD030000DF030000A4
:1000E000E1030000E3030000E5030000E703000074
:1000F000E9030000EB030000ED030000EF03000044
:10010000F1030000F3030000F5030000F703000013
:10011000F9030000FB030000FD030000FF030000E3
:1001200001040000030400000504000007040000AF
:10013000090400000B0400000D0400000F0400007F
:10014000110400001304000015040000170400004F
:10015000190400001B0400001D0400001F0400001F
:1001600021040000230400002504000027040000EF
:10017000290400002B0400002D0400002F040000BF
:100180003104000033040000000000000000000003
:100190004FF0000BDFF8BE020068DFF8B612096806
:1001A00001F0030100F01C00142801D14BF0020BF8
:1001B000002901D04BF0010BBBF1000F05D0A7487F
:1001C000A749DFF8722200F09FF8A64880470BF09D
:1001D000020ABAF1000F0CD0DFF86E02DFF86E12DF
:1001E00002680B680FB44FF000024FF0FF0302608B
:1001F0000B609D489D4A9E4B022808D1DFF83E12B5
:100200000A60DFF842120A60DFF836120B6001283C
:1002100008D1DFF82E120A60DFF82A120A60DFF830
:100220001E120B609348002809D193489349944AC1
:1002300000F032F893489449944A00F02DF894481D
:100240009449954A00F028F894489549DFF8E6214A
:1002500000F05AF8BBF1000F12D092489249DFF833
:10026000DA2100F051F80BF0020ABAF1000F07D0C2
:100270000FBC02600B6000BFAFF30080AFF30080E3
:10028000DFF828020FF2030E00474FF000004FF096
:100290000001DFF81CF2FEE72DE9F841884225D085
:1002A000B2EB010200D5FEE740EA010313F00303BD
:1002B00002D000F01DF819E04FF000039046121133
:1002C000F7D09A421CBFF0C8F0C103F10103F8D186
:1002D00008F00F08B8F1000F08D004780C7000F196
:1002E000010001F10101B8F10108F6D1BDE8F88182
:1002F00008B54FF0000303780B7000F1010001F125
:100300000101013AF7D108BD884237D000F0030659
:10031000002E14D04FF00405A5EB06044FF008079B
:1003200007FB06F8914669FA08F9002C07D080F817
:10033000009069FA07F900F10100013CF5E74FF080
:1003400000060F46091A88460911914614461546BB
:10035000B14206D018BFA0E8340206F10106B1424E
:10036000F8D108F00F08B8F1000F07D002704FEA7B
:10037000322200F10100B8F10108F4E77047FEE70E
:10038000FEE7FEE7FEE7FEE7FEE7FEE7FEE7FEE745
:10039000FEE7FEE7FEE7FEE7FEE7FEE7FEE7FEE735
:1003A000FEE7FEE7FEE7FEE7FEE7FEE7FEE7FEE725
:1003B000FEE7FEE7FEE7FEE7FEE7FEE7FEE7FEE715
:1003C000FEE7FEE7FEE7FEE7FEE7FEE7FEE7FEE705
:1003D000FEE7FEE7FEE7FEE7FEE7FEE7FEE7FEE7F5
:1003E000FEE7FEE7FEE7FEE7FEE7FEE7FEE7FEE7E5
:1003F000FEE7FEE7FEE7FEE7FEE7FEE7FEE7FEE7D5
:10040000FEE7FEE7FEE7FEE7FEE7FEE7FEE7FEE7C4
:10041000FEE7FEE7FEE7FEE7FEE7FEE7FEE7FEE7B4
:10042000FEE7FEE7FEE7FEE7FEE7FEE7FEE7FEE7A4
:10043000FEE7FEE7704700000000A2A2A2A2008033
:100440000340088003401080034030800340348024
:1004500003403880034018080240000000F00020EC
:1004600000000120910F00000000000000000000CB
:10047000010000000000000000000000000000007B
:1004800090010000C0040000C0040000C012000081
:10049000C0120000000000202000002020000020EA
:1004A000100100201001002000F00020F5100000D5
:1004B0007D100000000000000000000000000000AF
:1004C00010B5054C237833B9044B13B10448AFF38E
:1004D00000800123237010BD2000002000000000D8
:1004E000A0120000084B10B51BB108480849AFF333
:1004F00000800848036803B910BD074B002BFBD0F0
:10050000BDE81040184700BF00000000A012000026
:1005100024000020000000200000000000F07043D4
:1005200003EB8101C0F3130001F1007140010123CD
:100530000B50704700F0704303EB8101C0F31300D0
:1005400001F10071400100230B50704700F070432F
:1005500003EB8101C0F3130001F100714001085861
:10056000C0B270471E4B30B598421A4603D01D4B9F
:10057000984200D000BE016901B900BE436903B9C9
:1005800000BE904202D0174A904228D139B333B30B
:100590000268417B127DD2B21143920641730CD4A2
:1005A000826943699A421AD1BDE830400023436111
:1005B000006801210430FFF7BDBF82699B1A102B30
:1005C00028BF102300229A42EAD084690569016895
:1005D0002C5D01320C70816901318161F3E730BD1E
:1005E000CC0000208C00002010B504460068037A7F
:1005F00003F00F030C2B4BD8DFE803F0074A090F79
:100600000B4A0D4A4A4A4A4A0B00A36A3BE0636A16
:1006100039E0236A37E0E36935E028300021FFF74D
:1006200095FF28B1E36A0BB900BE01E02046984768
:10063000206801212830FFF789FF28B1236B0BB90F
:1006400000BE01E020469847206802212830FFF7CD
:100650007DFF28B1636B0BB900BE01E020469847CF
:10066000206803212830FFF771FF28B1A36B0BB975
:1006700000BE01E020469847206804212830FFF79B
:1006800065FF30B1E36B1BB12046BDE81040184751
:1006900000BE10BD2DE9F843714B044698429846C0
:1006A0000E4617466F4B04D06F4A904213D000BEDF
:1006B00011E04FF0804202600A2202719A6C4FF4FE
:1006C000806142F080029A64684AC2F880119A6C94
:1006D00022F080020FE0664A4FF4006122600B2294
:1006E00022719A6C42F480729A64604AC2F8801156
:1006F0009A6C22F480729A64236800251D71236825
:1007000001211D7220680830FFF708FF20680221D0
:100710000830FFF703FF206829460830FFF7FEFE88
:10072000206804211030FFF705FF206805211030F4
:10073000FFF700FF206801213430FFF7FBFE20683F
:1007400029463430FFF7F6FE206801213830FFF7E4
:10075000F1FE206805213030FFF7ECFE206806210D
:100760003030FFF7E7FE206807213030FFF7E2FE68
:10077000206803213830FFF7DDFE2368444583F805
:100780004450236883F84850236883F84C5002D0C3
:10079000354B9C4211D1A66000F01AFC44450CBFB9
:1007A000344B354B1B68DB00B3FBF6F94FEAD9132A
:1007B000B3F5803F4FEA590501D300BE3CE0012B61
:1007C00020685FFA83F823D9A5EB8315A5EBC31343
:1007D0004B440C300721A3EB4505FFF79FFE226831
:1007E000C9F3C73313712368072183F80080206899
:1007F0000C30FFF79FFE206807213030FFF78EFE98
:10080000FF2D00D900BE2368EDB283F83C5013E001
:100810000C300721FFF782FE236800221A7123683B
:10082000072183F8008020680C30FFF783FE2068E2
:1008300007213030FFF77EFE23681F7300232773E4
:100840006373A66063612361A36123626362E361F2
:10085000A362E36223636363A363E363BDE8F88396
:10086000CC000020008003408C00002000E100E06C
:100870000000014014000020180000200E4B10B5AD
:100880009842044603D00D4B984200D000BE20464B
:10089000FFF700FF206803213030FFF74BFE206890
:1008A00002213430FFF746FE206800213830FFF780
:1008B00041FE034B636210BDCC0000208C00002081
:1008C00065050000174BF0B5984203D0164CA042C6
:1008D00000D000BE01B900BE02B900BE984202D0ED
:1008E000114B98421DD1E1B1DAB100240368457B78
:1008F0001B7DDBB21D4345739D06F7D50F2A01EB27
:10090000040698BF1346354688BF1023076815F8BC
:1009100001EB87F800E0AF1B9F42F7D3D21A1C44CB
:10092000E4D1F0BDCC0000208C000020114B70B54C
:10093000984205D0104B984202D000BEC1B900E0E9
:1009400009B900BE70BD0A7800238AB10668347DFB
:10095000457BE4B22543A4064573F8D503F11004A2
:10096000056801332A70CA5C12B1A342F8D1ECE7E2
:1009700070BD00BFCC0000208C000020034618484A
:1009800030B5834203D0174CA34200D000BE01B95A
:1009900000BE02B900BE834202D01248834217D182
:1009A000C1B1D2B11868047D587BE4B220435873BA
:1009B0000020E40710D590420FD01C6824780C5416
:1009C0001C685D7B247D0130E4B225435D73F0E754
:1009D000002202E00A4600E00246104630BD00BF99
:1009E000CC0000208C000020684620F007018D46D6
:1009F00001B50348FFF7F8FDBDE8014085467047A3
:100A0000CC000020684620F007018D4601B5034860
:100A1000FFF7EAFDBDE80140854670478C000020E5
:100A200010B5064C0146236833B1054A1068984753
:100A3000044A00232360137010BD00BF580000203B
:100A400064000020480000200E4B13B51A6822F005
:100A500004021A605B6803F0010301930023019A0A
:100A60000AB919460AE08B4208D0C45C054A013332
:100A70001461526802F001020192F0E7084602B0E8
:100A800010BD00BF00600140024B1A680AB11B682C
:100A9000184770474C00002008B5084B1B7863B11D
:100AA000074B188880B2FFF7BBFF064B1A6842F06D
:100AB00001021A601A68D207FCD408BD4800002061
:100AC0005C00002000600140F8B57E4B5E68F2B229
:100AD0009E681640B20776D518697B4D20F4FF4416
:100AE0002B7824F07F04A4B2C0B2052B66D8DFE8CF
:100AF00003F0036161172B58002C64D0F1285AD100
:100B0000724B0024724A1C8011681A8892B2885471
:100B10001A88013292B21A801B889BB2CC5411E021
:100B2000002C50D06B4B1B78984244D1674A00236D
:100B300013806749138809689BB2C854138801332E
:100B40009BB2138004233DE0002C34D15F4F604BF7
:100B50003A88196892B20A4412F8013CF12B3B46DC
:100B60000AD13B889BB2C8543B889BB20B4413F814
:100B7000010CFFF789FF1BE0574C3A88248892B29A
:100B8000A24206D23A8892B288543A88013292B28E
:100B90003A801B889BB2A34215D14C4B188880B277
:100BA0000DE044B94A4B1B6858700220FFF738FF2C
:100BB0002C7008E03CB1FFF767FF04E00020FFF76E
:100BC0002FFF00232B70F3077AD53F4C237826465E
:100BD000022B20D0052B3CD0012B67D13F4D2B8819
:100BE0009BB2002B30D03E4E2988376889B23846F8
:100BF000FFF72AFF2B889BB2984205D22B881B1A3D
:100C00009BB22B80384416E000232B80354B1B68A9
:100C1000C3B1022353E0334D2B68ABB1324E296888
:100C20003068FFF711FF2B68984206D22B681B1A19
:100C30002B60336818443060F8BD224A936823F073
:100C40000103936003233AE000BEBDE8F840FFF7DC
:100C500023BF244C236893B9244B1B6863B12248FB
:100C600098472060236853B9164A936823F001031C
:100C700093600323337002E000BEFFF70DFF23688B
:100C8000184D3BB90F4A936823F001039360032387
:100C90003370F8BD144C29682068FFF7D5FE2B6827
:100CA0001B1A2B60236818442060F8BD054A0020F9
:100CB000936823F001039360FFF7B2FE00232370D3
:100CC000F8BD00BF00600140680000205C0000200B
:100CD00064000020690000203C000020500000203B
:100CE000440000206000002054000020400000204C
:100CF00070B5234C4FF420752668224C7543635120
:100D00001423734303F1402404F580346060A16030
:100D10001D4CB2F5803F1C44656898BF92B24FEA03
:100D200015454FEA0545656098BF6168174B9BBF45
:100D30000A436260A2F5803200228CBF1A611A61F8
:100D40004FF0140202FB06F281BF01F5803100F57D
:100D50008030D96098600C4B13445A6842F4E0022A
:100D60005A604FF42073734303F1844303F5201357
:100D70000122C3F8C0210022C3F8CC2170BD00BFFE
:100D800088000020C4012842084001406C00002077
:100D9000684620F007018D4619B51D4B1D491A689C
:100DA000012402F5287041F82040142050431A49CC
:100DB000224401444868042A20F4E00048601749AE
:100DC00008BF00221A600A690C4662B11449A06883
:100DD0000B68042B0CBF002301330B60E168237DFB
:100DE000FFF786FF10E01A6814235A430D4B9B58F7
:100DF00013F4E00308D1064A01201360084A087082
:100E000013604B6803B19847BDE8194085467047A9
:100E10008400002000002842084001406C000020AF
:100E2000880000200C400140684620F007018D46F4
:100E300019B5234B1B6813F4706F1FD0214A4FF470
:100E40002073116814464B4303F1844303F52013C8
:100E5000D3F808322BB11C4B022018705B6803B129
:100E6000984722684FF420735A43184B9B582BB174
:100E7000154B032018705B6803B19847104B1B6833
:100E800013F4704F05D0104B042018705B6803B149
:100E900098470F4A0F490123C2F8C831C2F8803A77
:100EA000C2F84834C1F8803AC2F8C836C1F8843A6A
:100EB000C2F84839C1F8883ABDE8194085467047FC
:100EC00000400140840000206C0000200C022842F9
:100ED0000000284204002842154B9A6C42F480120C
:100EE0009A649A6C42F0F0729A640022114B0121CC
:100EF000D35C013203F01F0043F3C40323F06043CB
:100F000023F0030303F16043814003F56143202A8A
:100F1000C3F88010C3F88011E8D1054B9A6C22F019
:100F2000F0729A649A6C22F480129A64704700BF3F
:100F300000800340401100001F2801D900BE704707
:100F4000024B53F820301960704700BF6011000059
:100F5000074B084A1860084B1860084B1860084B8C
:100F60001A60084B1860084B1860084B18607047EF
:100F70001C00002040787D01140000201800002093
:100F8000080000200C0000201000002004000020B9
:100F90004FF602020C4BD3F84C11914206D00B4A8B
:100FA000536943F400735361FFF744BAD3F89820B0
:100FB00042F48072C3F89820D3F8982022F080621F
:100FC000C3F89820EBE700BF0080034000ED00E08D
:100FD0001D4B82B0D3F8982051012AD4D3F8982021
:100FE000D20411D4194B1A4A1A4913601A4A1360D1
:100FF0001A4A13601A4A11601A4A13601A4A136097
:101000001A4A136002B070476A461949086849686D
:1010100003C2D3F89C2002A9C2F382120A4412F838
:10102000082C012A02D004D312480AE04FF40040F1
:1010300007E0D3F85031074813F0040F0E4B18BFE8
:10104000184602B0FFF784BF0080034000E1F505B9
:101050001C00002040787D011400002018000020B2
:10106000080000200C0000201000002004000020D8
:10107000E011000040420F0080F0FA0207B5FFF7D0
:101080002BFF00200521FFF757FF15484FF41641AD
:101090000322FFF7F3FB12481249FFF747FC104801
:1010A0001149FFF743FC114B1B68DB090193019BBE
:1010B00013B1019B013BF9E70D4A0948D2F888308A
:1010C0006946DB43C2F888300122FFF757FC00284D
:1010D000E9D0034869460122FFF7F4FBE3E700BFCC
:1010E000CC000020E8110000891200001C00002044
:1010F000003001400E4B70B51E460E4C0025E41A20
:10110000A410A54204D056F8253098470135F8E7D9
:1011100000F0C6F8084B094C1E46E41AA41000253E
:10112000A54204D056F8253098470135F8E770BD40
:10113000B8120000B8120000B8120000BC12000083
:1011400032333435363738393A3B3C3D3E3F404107
:1011500042434445464748494A4B4C4D4E4F5051F7
:101160000030014004300140083001400C300140A3
:101170001030014014300140183001401C30014053
:101180002030014024300140283001402C30014003
:101190003030014034300140383001403C300140B3
:1011A0004030014044300140483001404C30014063
:1011B0005030014054300140583001405C30014013
:1011C0006030014064300140683001406C300140C3
:1011D0007030014074300140783001407C30014073
:1011E00000010001020203030A0D202A2A2A2A2AEA
:1011F0002A2A2A2A2A2A2A2A2A2A2A2A2A2A2A2A4F
:101200002A2A2A2A2A2A2A2A2A2A2A2A2A2A2A2A3E
:101210002A2A2A2A2A2A2A2A2A2A2A200A0D202089
:101220002057656C636F6D6520746F20536D61721C
:1012300074467573696F6E3220616E6420536F66F9
:1012400074436F6E736F6C652076342E30200A0DF8
:10125000202A2A2A2A2A2A2A2A2A2A2A2A2A2A2AF8
:101260002A2A2A2A2A2A2A2A2A2A2A2A2A2A2A2ADE
:101270002A2A2A2A2A2A2A2A2A2A2A2A2A2A2A2ACE
:101280002A200A0D200A0D20002048656C6C6F2C66
:1012900020576F726C642121200A0D200A0D000076
:1012A000F8B500BFF8BC08BC9E467047F8B500BF53
:1012B000F8BC08BC9E467047E5040000C10400006D
:1012C0000000000000E1F50540787D0100E1F50532
:1012D00000E1F50500E1F50500E1F50500E1F505A2
:040000030000019167
:00000001FF
