S02200004D79466972737450726F6A6563745F4D53535F434D335F6170702E7372656349
S3152000000000000120910100207F03002081030020B1
S3152000001083030020850300208703002000000000C2
S3152000002000000000000000000000000089030020FE
S315200000308B030020000000008D0300208F0300208A
S3152000004091030020930300209503002097030020AE
S31520000050990300209B0300209D0300209F0300207E
S31520000060A1030020A30300200D0A0020310A00204E
S31520000070A9030020AB030020AD030020AF0300201E
S31520000080B1030020B3030020B5030020B7030020EE
S31520000090B9030020BB030020BD030020BF030020BE
S315200000A0C1030020C3030020C5030020C70300208E
S315200000B0C9030020CB030020CD030020CF0300205E
S315200000C0D1030020D3030020D5030020D70300202E
S315200000D0D9030020DB030020DD030020DF030020FE
S315200000E0E1030020E3030020E5030020E7030020CE
S315200000F0E9030020EB030020ED030020EF0300209E
S31520000100F1030020F3030020F5030020F70300206D
S31520000110F9030020FB030020FD030020FF0300203D
S315200001200104002003040020050400200704002009
S31520000130090400200B0400200D0400200F040020D9
S3152000014011040020130400201504002017040020A9
S31520000150190400201B0400201D0400201F04002079
S315200001602104002023040020250400202704002049
S31520000170290400202B0400202D0400202F04002019
S31520000180310400203304002000000000000000009D
S315200001904FF0000BDFF8BE020068DFF8B6120968E0
S315200001A001F0030100F01C00142801D14BF0020BD2
S315200001B0002901D04BF0010BBBF1000F05D0A74859
S315200001C0A749DFF8722200F09FF8A64880470BF077
S315200001D0020ABAF1000F0CD0DFF86E02DFF86E12B9
S315200001E002680B680FB44FF000024FF0FF03026065
S315200001F00B609D489D4A9E4B022808D1DFF83E128F
S315200002000A60DFF842120A60DFF836120B60012816
S3152000021008D1DFF82E120A60DFF82A120A60DFF80A
S315200002201E120B609348002809D193489349944A9B
S3152000023000F032F893489449944A00F02DF89448F7
S315200002409449954A00F028F894489549DFF8E62124
S3152000025000F05AF8BBF1000F12D092489249DFF80D
S31520000260DA2100F051F80BF0020ABAF1000F07D09C
S315200002700FBC02600B6000BFAFF30080AFF30080BD
S31520000280DFF828020FF2030E00474FF000004FF070
S315200002900001DFF81CF2FEE72DE9F841884225D05F
S315200002A0B2EB010200D5FEE740EA010313F0030397
S315200002B002D000F01DF819E04FF00003904612110D
S315200002C0F7D09A421CBFF0C8F0C103F10103F8D160
S315200002D008F00F08B8F1000F08D004780C7000F170
S315200002E0010001F10101B8F10108F6D1BDE8F8815C
S315200002F008B54FF0000303780B7000F1010001F1FF
S315200003000101013AF7D108BD884237D000F0030633
S31520000310002E14D04FF00405A5EB06044FF0080775
S3152000032007FB06F8914669FA08F9002C07D080F8F1
S31520000330009069FA07F900F10100013CF5E74FF05A
S3152000034000060F46091A8846091191461446154695
S31520000350B14206D018BFA0E8340206F10106B14228
S31520000360F8D108F00F08B8F1000F07D002704FEA55
S31520000370322200F10100B8F10108F4E77047FEE7E8
S31520000380FEE7FEE7FEE7FEE7FEE7FEE7FEE7FEE71F
S31520000390FEE7FEE7FEE7FEE7FEE7FEE7FEE7FEE70F
S315200003A0FEE7FEE7FEE7FEE7FEE7FEE7FEE7FEE7FF
S315200003B0FEE7FEE7FEE7FEE7FEE7FEE7FEE7FEE7EF
S315200003C0FEE7FEE7FEE7FEE7FEE7FEE7FEE7FEE7DF
S315200003D0FEE7FEE7FEE7FEE7FEE7FEE7FEE7FEE7CF
S315200003E0FEE7FEE7FEE7FEE7FEE7FEE7FEE7FEE7BF
S315200003F0FEE7FEE7FEE7FEE7FEE7FEE7FEE7FEE7AF
S31520000400FEE7FEE7FEE7FEE7FEE7FEE7FEE7FEE79E
S31520000410FEE7FEE7FEE7FEE7FEE7FEE7FEE7FEE78E
S31520000420FEE7FEE7FEE7FEE7FEE7FEE7FEE7FEE77E
S31520000430FEE7FEE7704700000000A2A2A2A200800D
S3152000044003400880034010800340308003403480FE
S3152000045003403880034018080240000000F00020C6
S3152000046000000120F1120020000000000000000022
S315200004700100000000000000000000200000002015
S3152000048090010020C0040020C00400209017002006
S315200004909017002090170020B0170020B0170020DA
S315200004A0401800204018002000F00020C915002028
S315200004B029050020AFF30080AFF30080AFF3008062
S315200004C041F2B073C2F200031A780AB901201870FB
S315200004D0704700BF41F29070C2F2000008B5036871
S315200004E02BB140F20003C0F2000303B1984708BDC8
S315200004F080B483B000AF786043F20003C4F20103F6
S315200005007A68C3F8882007F10C07BD4680BC70477F
S3152000051080B400AF43F20003C4F20103D3F888305D
S315200005201846BD4680BC704780B584B000AF00F049
S315200005306BFE4FF000004FF0050100F0BBFE41F2CC
S31520000540F470C2F200004FF4E1314FF0030200F0E4
S31520000550D5F841F2F470C2F2000041F21861C2F2FD
S31520000560000100F07FF941F2F470C2F2000041F27E
S31520000570AC61C2F2000100F075F900E000BF00F0A6
S3152000058027F8FFF7C5FF0346FB60FB686FEA030306
S31520000590FB60F868FFF7ACFF07F1040341F2F47043
S315200005A0C2F2000019464FF0010200F0C1F90346DD
S315200005B0BB60BB68002BE1D007F1040341F2F47065
S315200005C0C2F2000019464FF0010200F0D9F8D6E732
S315200005D080B483B000AF41F29473C2F200031B686B
S315200005E04FEAD3137B6003E07B6803F1FF337B6024
S315200005F07B68002BF8D107F10C07BD4680BC7047FD
S3152000060080B483B000AF0346FB714EF20013CEF2E6
S31520000610000397F907204FEA5212F97901F01F01DA
S315200006204FF0010000FA01F102F1600243F82210B6
S3152000063007F10C07BD4680BC704700BF80B483B06D
S3152000064000AF78600B46FB707B6803F070427B68D6
S3152000065023F07F4323F470034FEA43131A44FB78B5
S315200006604FEA8303134403F100734FF001021A602B
S3152000067007F10C07BD4680BC704700BF80B483B02D
S3152000068000AF78600B46FB707B6803F070427B6896
S3152000069023F07F4323F470034FEA43131A44FB7875
S315200006A04FEA8303134403F100734FF000021A60EC
S315200006B007F10C07BD4680BC704700BF80B483B0ED
S315200006C000AF78600B46FB707B6803F070427B6856
S315200006D023F07F4323F470034FEA43131A44FB7835
S315200006E04FEA8303134403F100731B68DBB21846F9
S315200006F007F10C07BD4680BC704700BF80B584B0AB
S3152000070000AFF860B9601346FB71FA6841F2F473E2
S31520000710C2F200039A4207D0FA6841F2B473C2F2D9
S3152000072000039A4200D000BEFB79F868B9681A46E1
S3152000073000F05CFAFB681B6803F1300318464FF0A3
S315200007400301FFF79BFFFB681B6803F13403184680
S315200007504FF00201FFF792FFFB681B6803F1380395
S3152000076018464FF00001FFF789FFFA6841F285032A
S31520000770C2F20003536207F11007BD4680BD00BFD9
S3152000078080B489B000AFF860B9607A604FF000039A
S315200007903B61FA6841F2F473C2F200039A4207D031
S315200007A0FA6841F2B473C2F200039A4200D000BE46
S315200007B0BB68002B00D100BE7B68002B00D100BE99
S315200007C0FA6841F2F473C2F200039A4206D0FA683C
S315200007D041F2B473C2F200039A423DD1BB68002BAA
S315200007E03AD07B68002B37D0FB681B681B7DFB76D5
S315200007F0FB685A7BFB7E42EA0303DAB2FB685A7334
S31520000800FB7E03F02003002B23D04FF01003FB6167
S315200008107B680F2B01D87B68FB614FF000037B615F
S315200008200EE0FB681B68B9683A690A4412781A70A8
S315200008303B6903F101033B617B6903F101037B61A2
S315200008407A69FB699A42ECD37A687B69C3EB020327
S315200008507B607B68002BC7D107F12407BD4680BC8F
S31520000860704700BF80B487B000AF786039604FF022
S315200008700003FB607A6841F2F473C2F200039A42E5
S3152000088007D07A6841F2B473C2F200039A4200D0CC
S3152000089000BE3B68002B00D100BE7A6841F2F4739B
S315200008A0C2F200039A4206D07A6841F2B473C2F2C9
S315200008B000039A4237D13B68002B34D03A68FB6854
S315200008C013441B78BB752BE07B681B681B7DFB756F
S315200008D07B685A7BFB7D42EA0303DAB27B685A7354
S315200008E0FB7D03F02003002BEED04FF000033B618D
S315200008F010E07B681B68BA7D1A703B6903F101031F
S315200009003B61FB6803F10103FB603A68FB68134413
S315200009101B78BB75BB7D002B02D03B690F2BE8D91A
S31520000920BB7D002BD0D107F11C07BD4680BC70478C
S3152000093080B487B000AFF860B9607A604FF00003EA
S315200009403B614FF00003FB75FA6841F2F473C2F283
S3152000095000039A4207D0FA6841F2B473C2F2000348
S315200009609A4200D000BEBB68002B00D100BE7B6837
S31520000970002B00D100BEFA6841F2F473C2F20003E4
S315200009809A4206D0FA6841F2B473C2F200039A4240
S3152000099034D1BB68002B31D07B68002B2ED0FB686E
S315200009A01B681B7DFB75FB685A7BFB7D42EA0303B4
S315200009B0DAB2FB685A7317E0BA683B691344FA68DF
S315200009C012681278D2B21A703B6903F101033B61B7
S315200009D0FB681B681B7DFB75FB685A7BFB7D42EA27
S315200009E00303DAB2FB685A73FB7D03F00103DBB223
S315200009F0002B03D03A697B689A42DDD33B691846BF
S31520000A0007F11C07BD4680BC704700BF684620F032
S31520000A1007018D4689B500AF41F2F470C2F200009D
S31520000A2000F01AFABD46BDE889408546704700BFEA
S31520000A30684620F007018D4689B500AF41F2B470B3
S31520000A40C2F2000000F008FABD46BDE8894085469E
S31520000A50704700BF80B588B000AF786039607A688B
S31520000A6041F2F473C2F200039A4207D07A6841F247
S31520000A70B473C2F200039A4200D000BE7A6841F2F3
S31520000A80F473C2F200039A4207D07A6841F2B47333
S31520000A90C2F200039A4240F0A4807B683A689A60CA
S31520000AA000F03AFC7A6841F2F473C2F200039A42EB
S31520000AB006D141F29873C2F200031B68FB6105E080
S31520000AC041F29C73C2F200031B68FB61FB694FEA8B
S31520000AD0C3023B68B2FBF3F37B617B694FEA5303A6
S31520000AE03B613B694FEA9313FB60FB684FEA831334
S31520000AF03A69C3EB0203BB61FB684FEAC3137A6909
S31520000B00C3EB0202BB694FEA4303C3EB0203BA6994
S31520000B101344BB61FA684FF6FF739A4200D900BEB0
S31520000B20FA684FF6FF739A425BD8FB68012B31D9DE
S31520000B307B681B6803F10C0318464FF00701FFF78B
S31520000B407DFD7B681B68FA684FEA1222D2B21A71C1
S31520000B507B681B68FA68D2B21A707B681B6803F13F
S31520000B600C0318464FF00701FFF788FD7B681B68CA
S31520000B7003F1300318464FF00701FFF75FFDBB690D
S31520000B80FF2B00D900BE7B681B68BA69D2B283F8F6
S31520000B903C2026E07B681B6803F10C0318464FF0C7
S31520000BA00701FFF74BFD7B681B68FA684FEA1222A4
S31520000BB0D2B21A717B681B68FA68D2B21A707B6847
S31520000BC01B6803F10C0318464FF00701FFF756FD8B
S31520000BD07B681B6803F1300318464FF00701FFF7C7
S31520000BE04DFD07F12007BD4680BD00BF80B584B00E
S31520000BF000AFF860B9601346FB71FA6841F2F473EE
S31520000C00C2F200039A4207D0FA6841F2B473C2F2E4
S31520000C1000039A4200D000BEFA6841F2F473C2F291
S31520000C2000039A4224D1FB684FF080421A60FB6889
S31520000C304FF00A021A7148F20003C4F2030348F285
S31520000C400002C4F20302926C42F080029A644FF0D2
S31520000C500A00FFF7D5FC48F20003C4F2030348F26A
S31520000C600002C4F20302926C22F080029A6425E00C
S31520000C70FA6840F20003C4F201031360FB684FF0E8
S31520000C800B021A7148F20003C4F2030348F2000271
S31520000C90C4F20302926C42F480729A644FF00B0005
S31520000CA0FFF7AEFC48F20003C4F2030348F2000249
S31520000CB0C4F20302926C22F480729A64FB681B6869
S31520000CC04FF000021A71FB681B684FF000021A727F
S31520000CD0FB681B6803F1080318464FF00101FFF774
S31520000CE0ADFCFB681B6803F1080318464FF00201B0
S31520000CF0FFF7A4FCFB681B6803F1080318464FF0B6
S31520000D000001FFF79BFCFB681B6803F110031846E4
S31520000D104FF00401FFF7B2FCFB681B6803F11003D8
S31520000D2018464FF00501FFF7A9FCFB681B6803F185
S31520000D30340318464FF00101FFF7A0FCFB681B683F
S31520000D4003F1340318464FF00001FFF797FCFB68C8
S31520000D501B6803F1380318464FF00101FFF78EFC9C
S31520000D60FB681B6803F1300318464FF00501FFF7B7
S31520000D7085FCFB681B6803F1300318464FF006011B
S31520000D80FFF77CFCFB681B6803F1300318464FF025
S31520000D900701FFF773FCFB681B6803F1380318464D
S31520000DA04FF00301FFF76AFCFB681B684FF0000257
S31520000DB083F84420FB681B684FF0000283F8482024
S31520000DC0FB681B684FF0000283F84C20F868B9686E
S31520000DD0FFF740FEFB681B68FA791A73FB68BA684E
S31520000DE09A60FB68FA791A73FB684FF000025A6121
S31520000DF0FB684FF000021A61FB684FF000029A610F
S31520000E00FB684FF000021A62FB684FF000025A623C
S31520000E10FB684FF00002DA61FB684FF000029A622D
S31520000E20FB684FF00002DA62FB684FF000021A639B
S31520000E30FB684FF000025A63FB684FF000029A638A
S31520000E40FB684FF00002DA63FB684FF000025A732A
S31520000E5007F11007BD4680BD80B584B000AF78602D
S31520000E607A6841F2F473C2F200039A4207D07A6894
S31520000E7041F2B473C2F200039A4200D000BE7A68EF
S31520000E8041F2F473C2F200039A4207D07A6841F223
S31520000E90B473C2F200039A4240F0EF807B681B686D
S31520000EA01B7ADBB203F00F03FB73FB7B0C2B00F2E8
S31520000EB0D78001A252F823F0ED0E00206110002009
S31520000EC00B0F0020650F0020290F00206110002045
S31520000ED0470F0020611000206110002061100020C3
S31520000EE06110002061100020290F00207B689B6A7A
S31520000EF0002B00D100BE7B689B6A002B00F0B280DD
S31520000F007B689B6A78689847B7E07B685B6A002BAA
S31520000F1000D100BE7B685B6A002B00F0A5807B6851
S31520000F205B6A78689847A8E07B681B6A002B00D12B
S31520000F3000BE7B681B6A002B00F098807B681B6ACA
S31520000F407868984799E07B68DB69002B00D100BE62
S31520000F507B68DB69002B00F08B807B68DB69786817
S31520000F6098478AE07B681B6803F1280318464FF0F0
S31520000F700001FFF7A3FB0346002B0CD07B68DB6A3E
S31520000F80002B00D100BE7B68DB6A002B03D07B6878
S31520000F90DB6A786898477B681B6803F12803184644
S31520000FA04FF00101FFF78AFB0346002B0CD07B682C
S31520000FB01B6B002B00D100BE7B681B6B002B03D064
S31520000FC07B681B6B786898477B681B6803F128034E
S31520000FD018464FF00201FFF771FB0346002B0CD099
S31520000FE07B685B6B002B00D100BE7B685B6B002BA4
S31520000FF003D07B685B6B786898477B681B6803F136
S31520001000280318464FF00301FFF758FB0346002B31
S315200010100CD07B689B6B002B00D100BE7B689B6B42
S31520001020002B03D07B689B6B786898477B681B688E
S3152000103003F1280318464FF00401FFF73FFB034650
S31520001040002B17D07B68DB6B002B00D100BE7B68A2
S31520001050DB6B002B10D07B68DB6B786898470CE045
S3152000106000BE0AE000BF08E000BF06E000BF04E0C3
S3152000107000BF02E000BF00E000BF07F11007BD4639
S3152000108080BD00BF80B586B000AF78607A6841F237
S31520001090F473C2F200039A4207D07A6841F2B4731D
S315200010A0C2F200039A4200D000BE7B681B69002B67
S315200010B000D100BE7B685B69002B00D100BE7A6838
S315200010C041F2F473C2F200039A4206D07A6841F2E2
S315200010D0B473C2F200039A4255D17B681B69002B78
S315200010E051D07B685B69002B4DD07B681B681B7DCC
S315200010F0FB727B685A7BFB7A42EA0303DAB27B688F
S315200011005A73FB7A03F02003002B29D04FF01003EB
S315200011103B617B685A697B689B69C3EB02037B61F1
S315200011207B690F2B01D87B693B614FF00003FB6085
S3152000113012E07B681B687A6811697A6892690A44AA
S3152000114012781A707B689B6903F101027B689A61A9
S31520001150FB6803F10103FB60FA683B699A42E8D316
S315200011607B689A697B685B699A420CD17B684FF0F1
S3152000117000025A617B681B6803F1040318464FF08E
S315200011800101FFF77BFA07F11807BD4680BD00BFB6
S3152000119080B483B000AF0346FB714EF20013CEF24B
S315200011A0000397F907204FEA5212F97901F01F013F
S315200011B04FF0010000FA01F102F1200243F822105B
S315200011C007F10C07BD4680BC704700BF80B483B0D2
S315200011D000AF0346FB714EF20013CEF2000397F9DF
S315200011E007204FEA5212F97901F01F014FF0010052
S315200011F000FA01F102F1600243F8221007F10C0710
S31520001200BD4680BC704700BF80B582B000AF48F2B3
S315200012100003C4F2030348F20002C4F20302926CF4
S3152000122042F480129A6448F20003C4F2030348F29F
S315200012300002C4F20302926C42F0F0729A644FF0FC
S3152000124000037B6017E07A6841F24473C2F2000320
S315200012509B5C5BB21846FFF79BFF7A6841F24473AA
S31520001260C2F200039B5C5BB21846FFF7AFFF7B68B8
S3152000127003F101037B607B681F2BE4D948F200034E
S31520001280C4F2030348F20002C4F20302926C22F075
S31520001290F0729A6448F20003C4F2030348F2000293
S315200012A0C4F20302926C22F480129A6407F10807B2
S315200012B0BD4680BD80B485B000AF03463960FB7162
S315200012C0FB79FB60FB681F2B00D900BEFB681F2B38
S315200012D008D8FA6841F2C463C2F2000353F82230F8
S315200012E03A681A6007F11407BD4680BC704700BFF4
S315200012F080B500AF00F036F94EF60053CEF200036B
S315200013004EF60052CEF20002526942F400725A6141
S31520001310FFF790F880BD00BF80B588B000AF48F2D7
S315200013200003C4F20303D3F8983003F08063FB6014
S31520001330FB68002B40F08B8048F20003C4F20303C5
S31520001340D3F8983003F480537B617B69002B3FD11F
S3152000135041F29473C2F200034EF20012C0F2F5522B
S315200013601A6041F29873C2F200034EF20012C0F2E4
S31520001370F5521A6041F29C73C2F200034EF200123B
S31520001380C0F2F5521A6041F2A073C2F2000347F68A
S315200013904002C0F27D121A6041F2A473C2F2000329
S315200013A04EF20012C0F2F5521A6041F2A873C2F250
S315200013B000034EF20012C0F2F5521A6041F2AC73ED
S315200013C0C2F200034EF20012C0F2F5521A6045E056
S315200013D041F26473C2F2000307F1040293E80300AA
S315200013E082E8030048F20003C4F20303D3F89C30DA
S315200013F04FEA931303F00703BB61BB6907F1200291
S31520001400134413F81C3CFB77FB7F012B0BD0022BDC
S315200014100ED0002B14D100F025F803463B61386925
S3152000142000F042F81AE04FF4004000F03DF815E0D5
S3152000143044F24020C0F20F0000F036F800BF0DE065
S3152000144044F24020C0F20F0000F02EF806E000F033
S3152000145009F803463B61386900F026F807F12007B2
S31520001460BD4680BD80B483B000AF48F20003C4F20D
S315200014700303D3F8503103F004033B603B68002B91
S3152000148005D147F64003C0F27D137B6004E04FF29E
S315200014908003C0F2FA237B607B68184607F10C07AD
S315200014A0BD4680BC704700BF80B483B000AF786073
S315200014B041F29473C2F200037A681A6041F298737B
S315200014C0C2F200037A681A6041F29C73C2F20003EA
S315200014D07A681A6041F2A073C2F2000347F640020E
S315200014E0C0F27D121A6041F2A473C2F200037A6838
S315200014F01A6041F2A873C2F200037A681A6041F2B8
S31520001500AC73C2F200037A681A6007F10C07BD4675
S3152000151080BC704780B483B000AF48F20003C4F2A9
S315200015200303D3F84C317B607A684FF602039A4264
S3152000153006D04FF60203C0F201039A4204D007E018
S315200015404FF001033B6006E04FF002033B6002E0F0
S315200015504FF000033B603B68184607F10C07BD4679
S3152000156080BC704780B582B000AFFFF7D3FF03463B
S315200015707B607B68012B01D100F004F807F1080796
S31520001580BD4680BD80B400AF48F20003C4F2030319
S3152000159048F20002C4F20302D2F8982042F4807284
S315200015A0C3F8982048F20003C4F2030348F200026D
S315200015B0C4F20302D2F8982022F08062C3F8982061
S315200015C0BD4680BC704700BF70B541F2847641F2BB
S315200015D08475C2F20006C2F20005761BB61006D04C
S315200015E0002455F8243001349847A642F9D841F210
S315200015F0847541F28876C2F20005C2F20006761B97
S3152000160000F0B4F8B61006D0002455F82430013482
S315200016109847A642F9D870BD0A0D202A2A2A2A2AD6
S315200016202A2A2A2A2A2A2A2A2A2A2A2A2A2A2A2AF4
S315200016302A2A2A2A2A2A2A2A2A2A2A2A2A2A2A2AE4
S315200016402A2A2A2A2A2A2A2A2A2A2A0A0D20092046
S3152000165020202020202020202057656C636F6D6578
S3152000166020746F20536D617274467573696F6E3284
S31520001670200A0D202A2A2A2A2A2A2A2A2A2A2A2AF5
S315200016802A2A2A2A2A2A2A2A2A2A2A2A2A2A2A2A94
S315200016902A2A2A2A2A2A2A2A2A2A2A2A2A2A2A2A84
S315200016A02A2A2A2A200A0D200A0D00002048656CC5
S315200016B06C6F2C20576F726C642121200A0D200A32
S315200016C00D00000000300140043001400830014088
S315200016D00C300140103001401430014018300140D8
S315200016E01C30014020300140243001402830014088
S315200016F02C30014030300140343001403830014038
S315200017003C300140403001404430014048300140E7
S315200017104C30014050300140543001405830014097
S315200017205C30014060300140643001406830014047
S315200017306C300140703001407430014078300140F7
S315200017407C30014032333435363738393A3B3C3DEC
S315200017503E3F404142434445464748494A4B4C4D0B
S315200017604E4F50510001000102020303F8B500BF9D
S31520001770F8BC08BC9E467047F8B500BFF8BC08BC4C
S315200017809E467047D5040020C104002000000000BA
S315200017900000000000E1F50500E1F50500E1F50592
S315200017A040787D0100E1F50500E1F50500E1F5054C
S7052000019148
